:400000000080002011000000190100001901000080B500AF024B034A12681A6000F080F8BC760040FA46004010B5054C237833B9044B13B10448AFF300800123237010BD6D
:400040001081FF1F000000004808000008B5064B1BB106480649AFF300800648036813B1054B03B1984708BD00000000480800001481FF1F0881FF1F0000000080B582B0B2
:4000800000AF30E000F0F0FA0346FB711A4B1B681C2B02D1184B00221A60174B1B68042B0ADCFA79144B1B689A4205D1124B1B685A1C114B1A6016E00F4B1B68042B08DCDE
:4000C000FA790D4B1B689A4203D00B4B00221A6009E0094B1B68094AF979D154064B1B685A1C054B1A6000F0E1FA0346002BC9D10837BD4680BD00BF2C81FF1F3481FF1F9E
:4001000080B500AF00F052FA024800F0E7FA62B6FEE700BF7D00000080B400AFFEE700BF80B586B000AF224B7B61224B3B61204B7B6135E03B691B68FB603B695B68BB60F8
:400140003B699B683B6000237B600CE0FB681A68BB681A60BB680433BB60FB680433FB607B6804337B607A683B689A42EED13B69DB683B6000237B6008E0BB6800221A602B
:40018000BB680433BB607B6804337B607A683B689A42F2D13B6910333B617B69013B7B617B69002BC6D100F017FBFFF7A9FFFEE701000000B808000080B582B000AF174BCE
:4001C000174A1A60174B174A126842F400721A6000237B600FE07B68032B04D8124B7A6853F8223000E0114B114A796842F821307B6801337B607B682F2BECD90D4B1B782D
:40020000DAB20D4B1A700D4B094A1A6000F018F90B4B00221A600837BD4680BD0CED00E00004FA0514ED00E000000000190100000080FF1FBC7600400481FF1F08ED00E05A
:400240000081FF1F80B582B000AF78603960786800213A6800F0EFFA0837BD4680BD00BF80B584B000AFF860B9607A60F868B9687A6800F0D7FA1037BD4680BD80B483B029
:4002800000AF0346FB71FEE780B487B000AF7860396000233B6100237B6126E07B699B007A6813441B68BB60BB68FB73BB6823F0FF03BB6013E03B695B003A6813441B78EE
:4002C0001A46BB6813443A69520039680A4452781A703B6901333B61FB7B013BFB73FB7B002BE8D17B6901337B617B690C2BD5D91C37BD465DF8047B704700BF80B582B03A
:4003000000AF304B33221A802F4B18221A702F4B02221A704FF0402308221A702C4B03221A702C4B2C4A1278D2B21A702B4B08221A802B4B41F251221A800023FB70192383
:400340007B6014E0FB785B00DAB2264B1B78DBB203F00103DBB21343DBB203F00303FB704FF4F07000F024FA7B68013B7B607B68002B02D0FB78032BE4D17B68002B02D136
:400380000320FFF77BFF184B4FF480721A80164B07221A70154B00221A70154B48221A70114B00221A70134B02221A70124B124A1278D2B242F00102D2B21A700837BD46A4
:4003C00080BD00BF80400040824000400043004000420040A14600400801004922420040204200402542004004400040064000400840004001400040A243004080B483B0F5
:4004000000AF0B4B1B78FB710A4BFA7902F00702D2B21A70084BFA791209D2B21A70074B44221A700C37BD465DF8047B704700BFCF0100496E5800406F58004076580040F2
:4004400080B586B000AF72B6484B484A1278D2B242F00402D2B21A700023FB7513E0FA7D13465B0013445B00414A13443B613B691A683B699B889BB210461946FFF7E2FE1B
:40048000FB7D0133FB75FB7D092BE8D90023FB751CE0FA7D13469B0013445B00354A1344FB60FB681B68BB60FB685B687B60FB681A7A5B7A1B0213437B807B88B868796896
:4004C0001A46FFF7CDFEFB7D0133FB75FB7D002BDFD04FF090402849FFF7D6FE274B274A1278D2B242F00202D2B21A70244B244A1278D2B242F00202D2B21A70214B214AE8
:400500001278D2B242F04002D2B21A701E4B1E4A1278D2B242F01002D2B21A701B481C490822FFF79DFE1B481B490A22FFF798FE1A4B1A4A1278D2B242F00802D2B21A70D7
:40054000174B01221A70FFF7D9FE154B81221A70144B01221A70FFF751FF134809490E22FFF77EFE1837BD4680BD00BFE84600404C080000880800003400004803500140C1
:4005800013500140A0430040C243004002510040800300484051004088030048224300400048004004000840B043004080B500AF054B1B78002B04D100F008F8024B01225A
:4005C0001A7000F023F880BD3081FF1F80B400AF094B72221A70094B20221A70084B07221A70084B48221A70074B00221A70BD465DF8047B704700BF8564004082640040FE
:4006000021640040316400408064004080B582B000AF00F0D7F80346FB71104B0F4A1278D2B242F02002D2B21A700D4B0C4A1278D2B242F01002D2B21A700A4B094A12780E
:40064000D2B242F01002D2B21A7000F095F8FB79184600F0BBF80837BD4680BD95640040926400409064004080B483B000AF0023FB710C4B1B78BB71BB7903F02003002B60
:4006800009D0094B1B78FB71BB7903F01E03002B01D00023FB71FB7918460C37BD465DF8047B7047626400404264004080B483B000AF094B1B78DBB203F02003002B01D010
:4006C000012300E00023FB71FB7918460C37BD465DF8047B704700BF6264004080B582B000AF786000F03CF8786800F009F8072000F018F800F028F80837BD4680BD00BFA7
:4007000080B485B000AF7860054B1B68FB60FB6840337A681A601437BD465DF8047B704708ED00E080B483B000AF0346FB71054BFA795201D2B21A700C37BD465DF8047BB2
:40074000704700BF00E400E080B400AF034B01221A60BD465DF8047B704700BF00E100E080B400AF034B01221A60BD465DF8047B704700BF80E100E080B400AF094B094A7D
:400780001278D2B242F00102D2B21A70064B064A1278D2B242F00102D2B21A70BD465DF8047B7047A2430040B2430040000000000230800800F0058000BF013800467FF42E
:4007C000FCAF7047EFF3108072B6704780F31088704700BFAFF3008070B50E4B0E4D0024ED1AAD101E46AC4204D056F8242090470134F8E700F04EF8084D094B0024ED1A35
:40080000AD101E46AC4204D056F8242090470134F8E770BDA0080000A0080000A8080000A008000010B50023934203D0CC5CC4540133F9E710BD02440346934202D003F8A1
:40084000011BFAE77047000000000000105100403000505100402000C05100401000F0510040100000000140000280020140800D00140140000800400140000A004C0140F8
:400880000002005001402000000201400003004880000000F8B500BFF8BC08BC9E4670474D000000B9010000F8B500BFF8BC08BC9E46704729000000C80800000881FF1FD2
:4008C00008000000400000000000000000000000000000000000000000000000000000000000000000000000000000000000000000000000000000000000000000000000B0
:4009000000000000000000000000000000000000000000000000000000000000000000000000000000000000000000000000000000000000000000000000000000000000B7
:400940000000000000000000000000000000000000000000000000000000000000000000000000000000000000000000000000000000000000000000000000000000000077
:400980000000000000000000000000000000000000000000000000000000000000000000000000000000000000000000000000000000000000000000000000000000000037
:4009C00000000000000000000000000000000000000000000000000000000000000000000000000000000000000000000000000000000000000000000000000000000000F7
:020000040003F7
:0200000480007A
:4000000002520040036400405B000140350101400F020140350301403904014044050140044001400641014002420140035001400151014004012020800F82388572000160
:40004000051206010A01110613181B1C1C011D061F08200221012506260127083001311E320233013B023E053F044053410145EC46B0480B49FF4AFF4BFF4EF04F44500CB0
:4000800054015604580459045A045B045F0166C06A406B028063820C8805890C8B0191019218930A96049B0F9D019F06A064A110A203A427A504A610A80AAA44B01FB10E4D
:4000C000B260B310B507B808BB22BE04C003C510C650C80AC9FFCA07CBFFCC40CD20CEF0CF05D008D804D904DA04DF01E040E1A8E240E32000200350042007400A020E800D
:400100000F20108013081502171818101A401D081E8021012207240425102758281029052CA0320133503602375038043D20401043404508481049054A024C805010542041
:400140005710581059015A486201C05EC231C47CCAC3CCBDCE22D04AD208D60FD80184069401960698079C069E01A004A406A601A802AE01B607BA80D804DF01010804029D
:400180000548060409200A110C800D200E100F401080114012241520170519401A011DA11E181F04250827052D802E042F0837053D043F8045A846604C014D404E044F08CA
:4001C000574059035D02640266207E047F04AA01AE40C0F4C2F7C47FCA70CCC0CE50D0B0D230D680D830011C020103010504072009180F04151F180119081F032110251C25
:4002000026012702280129072B18351F3601372038803B20580459045F018101820884078502880789028E0194019501960699019A089C04A006A201A402A806A901AD0264
:40024000B208B301B607B702BE04BF04D602D711D804D904DB04DF01010104050640070509200C800E100F08100412201501171819801C112004215022202402268027215A
:4002800028142A012C042E102F0630203280330434103624370439853A103D213E055F206D206E046F0A74A075087615771880129104920193089402952096049C029D88DA
:4002C0009E44A120A204A304A480A620A708AD04AF40C0F8C2E2C476CA37CC6ECEEFD62033105C02CC10D6800008AB10AC02C010EA20EE40AC04EC40000108010A01000311
:400300000000C3000C140022040000000F00C0014102200CC3280C12CF00000008000000C3001000823E20000C3EC30000000001C0000F010030300E00002800000040042A
:4003400065020400010C0E0005FFFFFF62A0F0410C0000001800000004040404000000010000000000004002001030100010101200000000000000000000000000000000C9
:4003800001000000000000002000002020002000000000000000000000000000000000000000000000000000000000000000000000000000000000000000000000000000BC
:4003C00000000000000000000000000000000000000000000000000000000000000000000000000000000000000000000000000000000000000000000000000000000000FD
:4004000000000000000000000000000000000000000000000000000000000000000000000000000000000000000000000000000000000000000000000000000000000000BC
:40044000000000000000000000000000000000000000000000000000000000000000000000000000000000000000000000000000000000000000000000000000000000007C
:40048000000000000000000000000000000000000000000000000000000000000000000000000000000000000000000000000000000000000000000000000000000000003C
:0200000490006A
:0400000000004005B7
:0200000490105A
:04000000BC90ACAF55
:0200000490303A
:02000000FF49B6
:0200000490402A
:4000000000000000000000000000000000000000000000000000000000000000000000000000000000000000000000000000000000000000000000000000000000000000C0
:400040000000000000000000000000000000000000000000000000000000000000000000000000000000000000000000000000000000000000000000000000000000000080
:400080000000000000000000000000000000000000000000000000000000000000000000000000000000000000000000000000000000000000000000000000000000000040
:4000C0000000000000000000000000000000000000000000000000000000000000000000000000000000000000000000000000000000000000000000000000000000000000
:0200000490501A
:0C00000000012E12306900012E162FB2F4
:00000001FF