:400000000040002011000000750700007507000080B500AF00F0B2FB80B500AF224B12221A6000F00BFE012000F018FE182000F0CFFC1E4B1E4A1A601E4B1E4A126802210B
:400040000A431A601C4B1D4A1A601D4B1C4A126808218A431A60FA23DB00181C00F0A8FD184B181C00F0EEFE174BCC2292011A60164B174A1A60174BE02212011A60134B9D
:40008000154A1A60154B802212061A60144B41221A60144B40221A60134B00221A60024B11221A60BD4680BD3000104004010B400600008078002E407C002E402D3E000097
:4000C0006CF02E40DC050000040301400000014041FF00800003014040FF008008010B402C010140080101400C020B4080B582B000AF72B6404B00221A60FB1D00221A707B
:4001000023E0FB1D1A78131C5B009B185B003B4A9B183B603B681A78597809020A43997809040A43DB781B0613431A1C3B6819795B791B020B439BB2101C191C00F0A2FB2F
:40014000FB1D1A78FB1D01321A70FB1D1B78012BD7D92B4A2B4B101C191C00F0A3FB2A4B802252001A80294B01221A70284B294A1A60294BC02292031A60284B9922120472
:400180001A60274B274A1A60274B802292041A60264B802212051A60254B254A1278D2B202210A43D2B21A70224B224A1278D2B23C218A43D2B214210A43D2B21A701C4BA9
:4001C0001B4A1278D2B216210A43D2B21A701A4B03221A60194B1A4A1A601A4B20221A60194BC42292021A60FFF716FF00F09AFBBD4602B080BDC0466CF02E40CC1A000003
:40020000D81A0000F41A000000600F4002600F4000000240EE0000EE0001024000500F4010500F400400990014500F4018500F4000700F4001700F40000004400800044099
:400240002400D800000104400801044010B5064C2378002B07D1054B002B02D0044800E000BF0123237010BDE800002000000000C81A000008B5084B002B03D007480849E7
:4002800000E000BF07480368002B03D0064B002B00D0984708BDC04600000000C81A0000EC000020C80000200000000090B585B000AF3B60FB1D1870BB1D19707B1D1A7034
:4002C0003B1C0F3300221A70FB1D1B78181C002100F068FEBB1D1B78181C00F0CDFFFB1D1B78181C012100F0E5FE08E03C68631C3B60002001F026F8031CDBB223703B1CC9
:400300000F331B783A1C0F32591C11701A1C7B1D1B78013B9A42E9DB012001F013F8031CDAB23B681A7000F049FFBD4605B090BD80B582B000AF3A60FB1D021C1A70BB1DA4
:400340000A1C1A70FB1D1978BB1D1A783B68081C111C0122FFF7AAFFBD4602B080BDC04680B584B000AF3B60FB1D1870BB1D19707B1D1A703B1C0F3300221A70FB1D1B7846
:40038000181C002100F00EFEBB1D1B78181C00F073FF06E03B685A1C3A601B78181C00F06BFF3B1C0F331B783A1C0F32591C11707A1D12789A42EDD800F000FFBD4604B010
:4003C00080BDC04680B582B000AFFB1D1870BB1D19707B1D1A70FB1D1978BB1D1A787B1D081C111C0122FFF7BBFFBD4602B080BD90B585B000AF041C081C111C1A1CFB1DD8
:400400001C70BB1D18707B1D19703B1D1A703B1D1B780122111C99400B1C5A1E7B1D19783B1D1B78CB1A01339A403B1C0F331A70FB1D1978BB1D1A783B1C0E33081C111CF4
:400440001A1CFFF775FF3B1C20331A787B1D19783B1D1B78CB1A01339A403B1C20331A703B1C20333A1C2032391C0F31127809780A401A703B1C0F331B78DB43DBB23A1C72
:400480000E321278D2B21340DBB2DAB23B1C0E331A703B1C0E331A783B1C20331B781343DAB23B1C0E331A703B1C0E331B78FA1D1178BA1D1278081C111C1A1CFFF782FFCB
:4004C000BD4605B090BDC04690B585B000AF041C081C111C1A1CFB1D1C70BB1D18707B1D19703B1D1A70FB1D1978BB1D1A783B1C0F33081C111C1A1CFFF71AFF3B1D1B78ED
:40050000002B0ED07B1D1B780122111C99400B1CDAB23B1C0F331B78DBB21343DBB2DBB20FE07B1D1B780122111C99400B1CDBB2DB43DBB23A1C0F321278D2B21340DBB25B
:40054000DBB23A1C0F3213703B1C0F331B78FA1D1178BA1D1278081C111C1A1CFFF732FFBD4605B090BDC04690B583B002AF62B6174B184A1168196012791A71144B002260
:400580001A72134B00221A73114B00221A74104B00221A750E4B00221A760A2000F02EFC00F07AFC00F03CFF00F022F800F02AF809480A490A4A0B4B0B4C00940B4C019469
:4005C00000F05CF8024B181C1C2100F0A5FFEFE728010020CC0000202E01002032010020360100203A0100203E0100204201002080B500AF024B68221A70BD4680BDC046B9
:400600004401002080B500AF012000F09DF8002000F008F8002000F01BF8002000F080F8BD4680BD80B584B002AF021CFB1D1A70064B1B78FA1D12780092181C1B21042249
:400640000223FFF7D5FEBD4602B080BD4401002080B584B002AF021CFB1D1A70064B1B78FA1D12780092181C1C2104220223FFF7BFFEBD4602B080BD4401002080B584B015
:4006800000AFF860B9607A603B60234B1A78234B101C3B210E22FFF709FE204B1B781B029AB21E4B5B7813439AB2FB681A801B4B9B781B029AB2194BDB7813439AB2BB68E2
:4006C0001A80164B1B791B029AB2144B5B7913439AB27B681A80114B1B7A1B029AB20F4B5B7A13439AB23B681A800C4B9B7A1B029AB20A4BDB7A13439AB2BB691A80074B17
:400700001B7B1B029AB2054B5B7B13439AB2FB691A80BD4604B080BD440100201001002080B582B000AF021CFB1D1A70054B1A78FB1D1B78101C6B210622FFF7C5FEBD466B
:4007400002B080BD4401002080B584B002AF021CFB1D1A70064B1B78FA1D12780092181C6B2102220323FFF743FEBD4602B080BD4401002080B500AFFEE7C04680B586B062
:4007800000AF224B7B61224B3B61204B7B6135E03B691B68FB603B695B68BB603B699B683B6000237B600CE0FB681A68BB681A60BB680433BB60FB680433FB607B680433A6
:4007C0007B607A683B689A42EED13B69DB683B6000237B6008E0BB6800221A60BB680433BB607B6804337B607A683B689A42F2D13B6910333B617B69013B7B617B69002BBB
:40080000C6D101F033F9FFF7AFFEFEE701000000C01D000080B582B000AF154B144A126801218A431A6000237B600FE07B68032B04D8104B7A689200D35800E00E4B0F4A81
:40084000796889008B507B6801337B607B682F2BECD9FFF74BFC0A4B00221A60044B044A126801210A431A60BD4602B080BDC046000010400000000075070000000000202D
:40088000C000002080B582B000AF786039607A683B68101C00211A1C01F00EF9BD4602B080BDC04680B586B000AF7860396000233B6100237B612EE07B699B007A68D31836
:4008C0001B68BB603B1C0F33BA681A70BB68FF229343BB6017E03B695B003A68D3181B781A1CBB68D3183A69520039688A1852781A703B6901333B613B1C0F331A783B1C04
:400900000F33013A1A703B1C0F331B78002BE2D17B6901337B617B69062BCDD9BD4606B080BDC04680B500AF054B03221A60054B03221A60044B00221A60BD4680BDC04608
:400940003000304030003140000E3F4080B500AF0B4B0B4A126801218A431A60094B094A126830218A4310210A431A60054B054A126807218A4301210A431A60BD4680BDC9
:4009800000F02E4000FF2E4080B500AF0E4B0E4A126802218A431A600C4B0C4A126807218A4302210A431A60084B084A126830218A4320210A431A60034B034A1268012171
:4009C0000A431A60BD4680BD00F02E4000FF2E4090B585B000AF78607B68022B00D8BAE07B68302B00D9B6E05E4B1B78DBB21A1C7B689A420AD35C4A3B1C0F3312781A7007
:400A00005A4A3B1C0E3312781A703FE0584B1B78DBB21A1C7B689A420AD3564A3B1C0F3312781A70544A3B1C0E3312781A702DE0524B1B78DBB21A1C7B689A420AD3504AE5
:400A40003B1C0F3312781A704E4A3B1C0E3312781A701BE04C4B1B78DBB21A1C7B689A420AD34A4A3B1C0F3312781A70484A3B1C0E3312781A7009E0464A3B1C0F331278E6
:400A80001A70454A3B1C0E3312781A707B68DA1E3B1C0C3341498A5C1A703C1C0B3400F088FD031C23703B1C0C331B782F2B0DD97B682A2B0AD93A4B19221A60052000F075
:400AC0006FFD3B1C0D3319221A7007E0344B1B68D9B23B1C0D333F220A401A703A1C0C323B1C0D3312781B789A4208D22C4B7A68033A2A498A5C1A60052000F051FD294BB0
:400B00007A68254952181278D2B21A60264B3A1C0F3212781A60254B3A1C0E3212781A60052000F08FF93A1C0C323B1C0D3312781B789A4208D91A4B7A68033A17498A5CF1
:400B40001A60052000F02CFD3B1C0B331B78181C00F033FD02E0002000F046F9BD4605B090BDC046C0F1FF0FC1F1FF0FC2F1FF0FC3F1FF0FC4F1FF0FC5F1FF0FC6F1FF0FB7
:400B8000C7F1FF0FC8F1FF0FC9F1FF0FCAF1FF0FCBF1FF0FCCF1FF0FCDF1FF0F6C1D00002CFF0B4028FF0B401CFF0B4020FF0B4080B584B000AF78600023FB60154B154A48
:400BC000126801210A431A60134B144A1A60144B134A1268802109020A431A607B68002B13D01023FB600DE0012000F02BF900F019F8031C002B02D00023FB6005E07B68AF
:400C0000013B7B607B68002BEED1FB68181CBD4604B080BD60F02E4078002E400220000010002E4080B500AF034B1A6801231340181CBD4680BDC0460C002E4080B500AFFE
:400C4000FFF784FE044B044A1268802109060A431A60BD4680BDC04600F02E4080B584B000AF78600C4B1A6801231340FB607B68002B02D0012B03D005E0FFF767FE06E02A
:400C8000FFF782FE03E0002000F0AEF8C046FB68181CBD4604B080BD00F02E4080B584B000AF021C3960FB1D1A7080239B05FB60FB1D1B781F2B02D9002000F095F8FB1DA2
:400CC0001B7810339B00FA68D3181B68BB60FB1D1B7810339B00FA68D3183A681A60BB68181CBD4604B080BD90B587B000AF0A1CFB1D011C1970BB1D1A70BB1D1B78032B51
:400D000002D9002000F070F8FB1D1B781F2B02D9002000F069F8FB1D1A7803231340DB0006337B613C1C133400F043FC031C2370FB1D1B789B08DBB29B0014495B181B68C3
:400D4000FB607B690322111C99400B1CDA43FB681340FB60BB1D1A787B69111C99400B1CFA681343FB60FB1D1B789B08DBB29B00064A9B18FA681A603B1C13331B78181C6D
:400D800000F01BFCBD4607B090BDC04600E400E080B582B000AF021CFB1D1A70064BFA1D11781F220A400121081C9040021C1A60BD4602B080BDC04600E100E080B582B03B
:400DC00000AF021CFB1D1A70064BFA1D11781F220A400121081C9040021C1A60BD4602B080BDC04680E100E080B582B000AF021CFB1D1A7001BEBD4602B080BD80B582B033
:400E000000AF786008E00C4B1B68181C00F0C8FB7B680A4A9B187B607A6880231B029A42F1D8074B1B687A685343181C00F0B8FBBD4602B080BDC046E00000200080FFFFDC
:400E4000D800002080B582B000AF021CBB1D1A80BB1D1B88044A12785343181C00F0A0FBBD4602B080BDC046DC00002080B500AF00F02CF8BD4680BD80B500AF054B054A7D
:400E80001268802109060A431A6000F017F8BD4680BDC0460000254080B500AF064B1B78002B04D1FFF7E2FF034B01221A70FFF7E3FFBD4680BDC0460401002080B500AFD6
:400EC0000A20FFF765FFBD4680BDC04680B500AF204B00221A60204B204A1A60204B214A1A60214B00221A60204B00221A60204B1C4A1A601F4B00221A600A20FFF75EFFC1
:400F00000A200321FFF7F0FE1B4B0A20191CFFF7C5FE1A4B00221A60194B00221A60194B00221A60184B1422FF321A60174B00221A60174B00221A60164B10221A70164B42
:400F400000221A80154B00221A60154B00221A60BD4680BD000025406000254077080080000325400701008004032540100325400002254004022540C1150000C80E25409D
:400F8000880E2540480F2540080F2540C80F2540880F254045010020640100204C0100205801002080B584B000AF786039600023FB600423BB60384B1B78DBB2102B66D197
:400FC000364B1A680123134002D00823BB605EE00A20FFF7F3FE7B685A00FF2313407B603B68002B03D12C4B24221A7006E02A4B25221A707B68012213437B60284B7A68E2
:401000001A60284B284A1A60284B02221A60C046244B1A680823FF331340F9D0214B1A680423134002D00023BB601CE01D4B1A680223134002D00223BB6014E0194B1A6894
:401040000123134007D0144B10221A700123BB600123FB6007E0104B10221A7080235B00BB600123FB600F4B0822FF321A60FB68002B0CD00E4B0E4A1268520052081A60C9
:401080000B4B0B4A1268802109060A431A60BB68181CBD4604B080BD450100206400254040022540000F254017030000680025400000254080B584B000AF78603960002307
:4010C000FB600423BB60374B1B78DAB220231340DBB2002B60D07B685A00FF2313407B603B68002B03D12F4B24221A7006E02D4B25221A707B68012213437B602A4B2B4A6B
:401100001A6000F073F9C046294B1A6801231340FAD1284B7A681A60C046234B1A680823FF331340F9D0204B1A680423134002D00023BB601CE01C4B1A680223134002D0B7
:401140000223BB6014E0184B1A680123134007D0144B10221A700123BB600123FB6007E0104B10221A7080235B00BB600123FB600D4B0822FF321A60FB68002B0CD00E4BA9
:401180000D4A1268520052081A600B4B0A4A1268802109060A431A60BB68181CBD4604B080BDC04645010020000F25401703000068002540400225400000254080B582B018
:4011C00000AF00237B6004233B60264B1B78DAB220231340DBB2002B3ED0234B234A116820220A4001D0182200E010221A60C0461F4B1A681223FF331340F9D01C4B1A68BF
:401200001023134002D000233B600EE0184B1A680123134004D001233B6001237B6004E080235B003B6001237B60114B1222FF321A600C4B10221A707B68002B0CD00D4BB0
:401240000C4A1268520052081A600A4B094A1268802109060A431A603B68181CBD4602B080BDC046450100206800254064002540000F25400000254080B584B000AF78604B
:401280000023FB600423BB602A4B1B78DAB220231340DBB2002B48D0274B7A681A60C046264B1A680823FF331340F9D0234B1A680423134005D01F4B60221A700023BB6041
:4012C0001FE01E4B1A680223134005D0194B60221A700223BB6014E0184B1A680123134007D0144B10221A700123BB600123FB6007E0104B10221A7080235B00BB600123CC
:40130000FB600E4B0822FF321A60FB68002B0CD00B4B0B4A1268520052081A60084B084A1268802109060A431A60BB68181CBD4604B080BD4501002040022540000F25400D
:401340000000254080B584B000AF786001235B42FB601F4B1B78DAB220231340DBB2002B31D0C0461B4B1A680423134005D11A4B1A680223FF331340F4D0164B1A68042387
:40138000134010D0154B1B68FB60124B04221A607B68002B03D1124B04221A6013E00C4B60221A700FE00C4B0E4A1A600E4B0E4A1268520052081A600B4B0B4A126880215B
:4013C00009060A431A60FB68181CBD4604B080BD45010020C00F2540000F25404003254068002540170300000000254080B582B000AF01237B60084B1A682023134001D039
:40140000082300E000237A6813437B60034B7A681A60BD4602B080BD640025406800254080B500AF064B1B78002B04D100F00AF8034B01221A7000F023F8BD4680BDC04633
:401440000C01002080B500AF084B72221A70084B20221A70074B07221A70074B48221A70064B00221A70BD4680BDC04682000F4083000F4023000F4033000F4080000F40D7
:4014800090B583B000AFFC1D00F093F8031C2370114B114A1278D2B220210A43D2B21A700E4B0E4A1278D2B210210A43D2B21A700B4B0B4A1278D2B210210A43D2B21A70CE
:4014C000FF2000F055F8FB1D1B78181C00F075F8BD4603B090BDC04692000F4093000F4090000F4080B582B000AF021CFB1D1A70C046074B1B78DBB21A1C04231340F8D1E2
:40150000044BFA1D12781A70BD4602B080BDC04660000F4040000F4080B584B000AF78600A1CFB1C1A703B1C0F3300221A700F4B1B78002B16D03B1C0F331B787A68D31808
:401540001B78181CFFF7CEFF3B1C0F331A783B1C0F3301321A703A1C0F32FB1C12781B789A42E8D3BD4604B080BDC0460C01002080B582B000AF7860C046064B1B68002BE4
:40158000FBDB044B7A68120203490A431A60BD4602B080BD0000014041000080000000000230800803D00138FDD1C046C046C0467047EFF3108072B6704780F31088704799
:4015C00080B582B000AF00233B60C54B1B68002B02D0C34B1B689847C24B1A680123134002D0C14B00221A60C04B1B78DAB220231340DBB2002B3CD0BD4B1A6880235B008B
:4016000013400AD0BB4B1B889BB2C022920013439AB2B84B1A8001233B60B54B1A68012313400AD0B34B1B889BB29022920013439AB2B04B1A8001233B603B68002B18D064
:40164000AA4B1B78DAB201231340DBB2002B01D0012300E00223A74A128892B291B21A1C0B1C13439BB29AB2A24B1A809F4B00221A709E4B1B78DAB220231340DBB2002B5C
:4016800000D1AEE19A4B1A68102313401CD09A4B10221A60954B1B78DAB201231340DBB2002B01D0012300E00223924A128892B291B21A1C0B1C13439BB29AB28D4B1A807D
:4016C0008A4B10221A70B0E1884B1B78DAB208231340DBB2002B29D0854B1A68022313400ED0854B02221A60824B1B889BB28822920013439AB27F4B1A8001233B6015E0DE
:401700007A4B1B78DAB201231340DBB2002B03D0764B25221A7009E0744B24221A70774B1B68002B02D0764B10221A606F4B1B78DAB204231340DBB2002B00D115E16B4B82
:401740001B78DAB201231340DBB2002B5CD06D4B1A680823134034D06B4B1A686B4B19681F2319406A4B1B68CB18D31A7B607B68082B02D908237B600DE07B68002B0AD179
:40178000644B644A1168644A0A401A6008237B6001233B6011E010E0604B1A685C4B1B68D2185F4B1B68DBB21370594B1B685A1C574B1A607B68013B7B607B68002BEBD140
:4017C0001EE0504B1A680423134019D0534B1A684F4B1B68D218524B1B68DBB213704C4B1B685A1C4A4B1A60494B1A68464B1B689A4203D24B4B04221A6001E001233B60C4
:40180000494B4A4A1A60B0E0394B1A680223134032D0394B02221A60454B1A68454B19681F231940434B186880231B02034001D0012300E00023CB18D21A3D4B1A603C4BB5
:401840001A683D4B1A602B4B1B889BB28422920013439AB2274B1A80384B384A1268802149020A431A60354B344A1168344A0A401A6001233B6078E0324B1A681023134011
:4018800068D022E02A4B1A681C4B1B689A421BD21A4B1B685A1E264B1B689A4205D12A4B40221A60164B40221A60284B284A11681F4A12688A181278D2B21A601C4B1B685B
:4018C0005A1C1B4B1A6000E005E01A4B1A681F231340082BD6D11C4B10221A6045E0C046080100208C0E2540880E2540450100200C0F254064010020000F254050010020C6
:40190000880F2540CC0F254060010020080325404C01002060002540FFFEFFFF680100204003254068002540C00F2540ED0F00004801002008022540580100200402254063
:40194000FFFFFEFF8C0F2540800F2540400225405C010020364B1A684023134005D0354B1A68354B1A6001233B603B68002B5CD0324B324A1168324A0A401A60314B0022C1
:401980001A60314B00221A60304B1B78DAB202231340DBB2002B19D02D4B1B78DAB201231340DBB2002B01D0092300E00A23294A128892B291B21A1C0B1C13439BB29AB232
:4019C000244B1A80224B60221A702EE0224B234A116820220A4001D0182200E010221A6023E01B4B1B78DAB210231340DBB2002B1BD11B4B1A4A1268520052081A60144B66
:401A000010221A700D4B0D4A1168164A0A401A600A4B0A4A1168144A0A401A60104B104A1268802109060A431A60BD4602B080BD8C0F25404801002058010020600025401B
:401A4000FFFEFFFFC80F2540880F2540540100204501002064010020680025406400254000002540FF5FFFFFFFFCFFFF70B50E4B0E4D0024ED1AAD101E1CAC4204D0A30023
:401A8000F35898470134F8E700F088F9084B094D0024ED1AAD101E1CAC4204D0A300F35898470134F8E770BDA81D0000A81D0000A81D0000B01D0000031C8218934202D060
:401AC00019700133FAE770470000000000300F40000400400F40000403000F4062300F4036310F4051320F4045330F4008410F4002600F40800F82728338040A053006E445
:401B0000074109040C230D310ECC0F461218148015311604174A18871A301B6F24052824291C2A432B01301F310E337834E035013A203B8A3F104064410545EB470C4813B6
:401B400049FF4AFF4BFF4EF04F44500C5401580459045A045B045F0166C06A406B028044823184E788E78C809022925194019503960E9D03A702A901B060B207B303B4808C
:401B8000B618B908BE40BF04C032C104C205C401C5C0C6E0C80AC9FFCAFFCBFFCC62CDA0CEF0CF41D00CD804D904DA04DF01E640E702E910EA30EB10ED10EE10EF12004025
:401BC00003200428050107010A840B200E100F801020120819201A841DB11E102048220823C2260429202D202F203208332036083780384039083B2040204104424045A8D5
:401C00004702482049024A084B404C804E025104561058A059068884C0F5C23EC406CA64CC56CE0ED0F1D21CD60F0082041C050806E3093C0AF30B420C410D040F80117FAE
:401C400014F31518160C180F1AF01B031CC31F0420FF21102404253C2741280C29672B182C08301C3180320F331F342C352036C0374039803A283B083F10560257115804C6
:401C800059045B045F01800483018B018E01A201A802B002B204B402B501B601BE45BF10C006C650C701C818C9FFCA07CBFFCC40CD20CEF0CF05D008D418D804D904DA046E
:401CC000DB04DF01E040E1A8E240E3200040010202020511060107100D480E0410881602172619441A401B201C401D081E1520042412261027502E163518374238023A104D
:401D00003C103E083F804A04500853105A015E20600461406C146F017508760A7724824183409180928094289640972099139A109B029D049F01A080A204A508A602A7609B
:401D4000B540B610C0F9C2E0C4FACAE0CCF0CE75D204D621D80C0A40601080108240C210D840E020E680100111010000030405060708090A0B0C0E0F1011121314151617B2
:401D800018191B1C1D1E1F2021222325262728292A2B2E2F3031323334350000F8B5C046F8BC08BC9E4670477502000015080000F8B5C046F8BC08BC9E4670474D020000C8
:401DC000D01D0000C8000020200000008800000000000000000102030400000000366E01C05D0000180000000000E02E000000000000000000000000000000000000000074
:401E000000000000000000000000000000000000000000000000000000000000000000000000000000000000000000000000000000000000000000000000000000000000A2
:401E40000000000000000000000000000000000000000000000000000000000000000000000000000000000000000000000000000000000000000000000000000000000062
:401E80000000000000000000000000000000000000000000000000000000000000000000000000000000000000000000000000000000000000000000000000000000000022
:401EC00000000000000000000000000000000000000000000000000000000000000000000000000000000000000000000000000000000000000000000000000000000000E2
:020000040001F9
:0200000490303A
:0200000067098E
:0200000490402A
:4000000000000000000000000000000000000000000000000000000000000000000000000000000000000000000000000000000000000000000000000000000000000000C0
:400040000000000000000000000000000000000000000000000000000000000000000000000000000000000000000000000000000000000000000000000000000000000080
:0200000490501A
:0C00000000020E34119E00010E3D78A796
:0200000490600A
:0100000001FE
:00000001FF