:4000000000100020110000007D0800007D08000080B500AF00F036FC80B584B000AF021CFB1D1A70204A3B1C0B3312781A701F4A3B1C0A3312781A700423013BFB6018E0BD
:400040001B4B1868391C0B31FA68131C5B009B18C3185B780B70164B1868391C0A31FA68131C5B009B18C3189B780B70FB68013BFB60FB68002B0ADB0D4B1968FA68131CF1
:400080005B009B185B5CFA1D12789A42D8D9094B3A1C0B3212781A60074B3A1C0A3212781A60BD4604B080BDCCF1FF0FCDF1FF0FD40000201CFF0B4020FF0B4080B500AF47
:4000C000194B194A12688021C9020A431A601820FFF7A2FF154B19221A60052000F0B8FC134B144A1278D2B21A60052000F098FD0D4B0D4A1168104A0A401A600F4B104AF7
:400100001A60104B10221A600F4B20221A600F4B802212061A600E4B0E4A1A600E4B0F4A1A60BD4680BDC04600010B402CFF0B4028FF0B40E5F1FF0FFFFFFBFF04010B409D
:4001400006000080080202403002024008010B40000002400E000080400002403300008080B586B000AF72B63B1C173300221A7026E03B1C17331A78131C5B009B185B0080
:400180005F4A9B183B613B691A78597809020A43997809040A43DB781B0613431A1C3B6919795B791B020B439BB2101C191C00F0E7FB3B1C17331A783B1C173301321A70F7
:4001C0003B1C17331B78022BD3D93B1C173300221A7038E03B1C17331A78131C9B009B185B00484A9B18FB60FB681A78597809020A43997809040A43DB781B061343BB6074
:40020000FB681A79597909020A43997909040A43DB791B0613437B60BA1CFB68197A5B7A1B020B431380BB1C1B88B9687A68081C111C1A1C00F0B4FB3B1C17331A783B1CC0
:40024000173301321A703B1C17331B78002BC1D02D4A2E4B101C191C00F0B4FB2C4B802252001A802B4B01221A702B4B30221A602A4BEE2212021A60294BEE221A60294BA8
:4002800002221A60284B31221A60284BD82212011A60274B03221A60264B24221A60264B264A1A60264B802292021A60254B802212031A60244B992212041A60234B234A72
:4002C0001278D2B202210A43D2B21A70204B204A1278D2B23C218A43D2B214210A43D2B21A701A4B194A1278D2B216210A43D2B21A70FFF7E3FE00F0A5FBBD4606B080BD8C
:40030000D4190000E8190000F4190000141A000000600F4002600F40000001400C00014010000140000004400800044008030440000404400804044000500F4004009900A2
:4003400004500F4008500F4030500F4000700F4001700F4010B5064C2378002B07D1054B002B02D0044800E000BF0123237010BDE800002000000000CC19000008B5084B77
:40038000002B03D00748084900E000BF07480368002B03D0064B002B00D0984708BDC04600000000CC190000EC000020C80000200000000090B585B000AF3B60FB1D187015
:4003C000BB1D19707B1D1A703B1C0F3300221A70FB1D1B78181C002100F0DAFCBB1D1B78181C00F03FFEFB1D1B78181C012100F057FD08E03C68631C3B60002000F098FE12
:40040000031CDBB223703B1C0F331B783A1C0F32591C11701A1C7B1D1B78013B9A42E9DB012000F085FE031CDAB23B681A7000F0BBFDBD4605B090BD80B582B000AF3A60BE
:40044000FB1D021C1A70BB1D0A1C1A70FB1D1978BB1D1A783B68081C111C0122FFF7AAFFBD4602B080BDC04680B584B000AF3B60FB1D1870BB1D19707B1D1A703B1C0F3304
:4004800000221A70FB1D1B78181C002100F080FCBB1D1B78181C00F0E5FD06E03B685A1C3A601B78181C00F0DDFD3B1C0F331B783A1C0F32591C11707A1D12789A42EDD80E
:4004C00000F072FDBD4604B080BDC04680B582B000AFFB1D1870BB1D19707B1D1A70FB1D1978BB1D1A787B1D081C111C0122FFF7BBFFBD4602B080BD90B585B000AF041C60
:40050000081C111C1A1CFB1D1C70BB1D18707B1D19703B1D1A703B1D1B780122111C99400B1C5A1E7B1D19783B1D1B78CB1A01339A403B1C0F331A70FB1D1978BB1D1A783D
:400540003B1C0E33081C111C1A1CFFF775FF3B1C20331A787B1D19783B1D1B78CB1A01339A403B1C20331A703B1C20333A1C2032391C0F31127809780A401A703B1C0F331C
:400580001B78DB43DBB23A1C0E321278D2B21340DBB2DAB23B1C0E331A703B1C0E331A783B1C20331B781343DAB23B1C0E331A703B1C0E331B78FA1D1178BA1D1278081C10
:4005C000111C1A1CFFF782FFBD4605B090BDC04690B585B000AF041C081C111C1A1CFB1D1C70BB1D18707B1D19703B1D1A70FB1D1978BB1D1A783B1C0F33081C111C1A1C0C
:40060000FFF71AFF3B1D1B78002B0ED07B1D1B780122111C99400B1CDAB23B1C0F331B78DBB21343DBB2DBB20FE07B1D1B780122111C99400B1CDBB2DB43DBB23A1C0F324E
:400640001278D2B21340DBB2DBB23A1C0F3213703B1C0F331B78FA1D1178BA1D1278081C111C1A1CFFF732FFBD4605B090BDC04690B583B002AF62B6174B184A1168196008
:4006800012791A71144B00221A72134B00221A73114B00221A74104B00221A750E4B00221A760A2000F098FA00F0E4FA00F02CFE00F022F800F02AF809480A490A4A0B4BE9
:4006C0000B4C00940B4C019400F05CF8024B181C1C2100F093FEEFE728010020CC0000202E01002032010020360100203A0100203E0100204201002080B500AF024B6822C4
:400700001A70BD4680BDC0464401002080B500AF012000F09DF8002000F008F8002000F01BF8002000F080F8BD4680BD80B584B002AF021CFB1D1A70064B1B78FA1D1278A0
:400740000092181C1B2104220223FFF7D5FEBD4602B080BD4401002080B584B002AF021CFB1D1A70064B1B78FA1D12780092181C1C2104220223FFF7BFFEBD4602B080BDBA
:400780004401002080B584B000AFF860B9607A603B60234B1A78234B101C3B210E22FFF709FE204B1B781B029AB21E4B5B7813439AB2FB681A801B4B9B781B029AB2194B2B
:4007C000DB7813439AB2BB681A80164B1B791B029AB2144B5B7913439AB27B681A80114B1B7A1B029AB20F4B5B7A13439AB23B681A800C4B9B7A1B029AB20A4BDB7A13435A
:400800009AB2BB691A80074B1B7B1B029AB2054B5B7B13439AB2FB691A80BD4604B080BD440100201001002080B582B000AF021CFB1D1A70054B1A78FB1D1B78101C6B21F2
:400840000622FFF7C5FEBD4602B080BD4401002080B584B002AF021CFB1D1A70064B1B78FA1D12780092181C6B2102220323FFF743FEBD4602B080BD4401002080B500AFD3
:40088000FEE7C04680B586B000AF224B7B61224B3B61204B7B6135E03B691B68FB603B695B68BB603B699B683B6000237B600CE0FB681A68BB681A60BB680433BB60FB68FB
:4008C0000433FB607B6804337B607A683B689A42EED13B69DB683B6000237B6008E0BB6800221A60BB680433BB607B6804337B607A683B689A42F2D13B6910333B617B6935
:40090000013B7B617B69002BC6D101F027F8FFF7AFFEFEE701000000A81C000080B582B000AF00237B600FE07B68032B04D8104B7A689200D35800E00E4B0F4A79688900B6
:400940008B507B6801337B607B682F2BECD9FFF707FC0A4B00221A608023DB058022D205126801210A431A60BD4602B080BDC046000000007D08000000000020C0000020E2
:4009800080B582B000AF786039607A683B68101C00211A1C01F011F8BD4602B080BDC04680B584B000AFF860B9607A60F968BA687B68081C111C1A1C00F0F6FFBD4604B0CA
:4009C00080BDC04680B586B000AF7860396000233B6100237B612EE07B699B007A68D3181B68BB603B1C0F33BA681A70BB68FF229343BB6017E03B695B003A68D3181B78E3
:400A00001A1CBB68D3183A69520039688A1852781A703B6901333B613B1C0F331A783B1C0F33013A1A703B1C0F331B78002BE2D17B6901337B617B69072BCDD9BD4606B076
:400A400080BDC04680B500AFBD4680BD000000000230800804D0C0460138FDD1C046C046C0467047EFF3108072B6704780F310887047C046C046C04680B584B000AF021C50
:400A80003960FB1D1A7080239B05FB60FB1D1B781F2B02D9002000F095F8FB1D1B7810339B00FA68D3181B68BB60FB1D1B7810339B00FA68D3183A681A60BB68181CBD4630
:400AC00004B080BD90B587B000AF0A1CFB1D011C1970BB1D1A70BB1D1B78032B02D9002000F070F8FB1D1B781F2B02D9002000F069F8FB1D1A7803231340DB0006337B6154
:400B00003C1C1334FFF7AEFF031C2370FB1D1B789B08DBB29B0014495B181B68FB607B690322111C99400B1CDA43FB681340FB60BB1D1A787B69111C99400B1CFA68134306
:400B4000FB60FB1D1B789B08DBB29B00064A9B18FA681A603B1C13331B78181CFFF786FFBD4607B090BDC04600E400E080B582B000AF021CFB1D1A70064BFA1D11781F220D
:400B80000A400121081C9040021C1A60BD4602B080BDC04600E100E080B582B000AF021CFB1D1A70064BFA1D11781F220A400121081C9040021C1A60BD4602B080BDC0468C
:400BC00080E100E080B582B000AF021CFB1D1A7001BEBD4602B080BD80B582B000AF786008E00C4B1B68181CFFF732FF7B680A4A9B187B607A6880231B029A42F1D8074BC4
:400C00001B687A685343181CFFF722FFBD4602B080BDC046E40000200080FFFFDC00002080B582B000AF021CBB1D1A80BB1D1B88044A12785343181CFFF70AFFBD4602B081
:400C400080BDC046E000002080B500AF00F02CF8BD4680BD80B500AF054B054A1268802109060A431A6000F017F8BD4680BDC0460000064080B500AF064B1B78002B04D132
:400C8000FFF7E2FF034B01221A70FFF7E3FFBD4680BDC0460401002080B500AF0A20FFF765FFBD4680BDC04680B500AF234B234A12680C210A431A60214B00221A60214BD0
:400CC000214A1A60214B224A1A60224B00221A60214B00221A60214B1D4A1A60204B00221A600A20FFF758FF0A200321FFF7EAFE1C4B0A20191CFFF7BFFE1B4B00221A603A
:400D00001A4B00221A601A4B00221A60194B1422FF321A60184B00221A60184B00221A60174B10221A70174B00221A80164B00221A60164B00221A60BD4680BD7000064042
:400D400000000640600006407708008000030640070100800403064010030640000206400402064071140000C80E0640880E0640480F0640080F0640C80F0640880F06400C
:400D800045010020640100204C0100205801002080B584B000AF786039600023FB600423BB60384B1B78DBB2102B66D1364B1A680123134002D00823BB605EE00A20FFF714
:400DC000EBFE7B685A00FF2313407B603B68002B03D12C4B24221A7006E02A4B25221A707B68012213437B60284B7A681A60284B284A1A60284B02221A60C046244B1A68FB
:400E00000823FF331340F9D0214B1A680423134002D00023BB601CE01D4B1A680223134002D00223BB6014E0194B1A680123134007D0144B10221A700123BB600123FB6050
:400E400007E0104B10221A7080235B00BB600123FB600F4B0822FF321A60FB68002B0CD00E4B0E4A1268520052081A600B4B0B4A1268802109060A431A60BB68181CBD46FC
:400E800004B080BD450100206400064040020640000F064017030000680006400000064080B584B000AF786039600023FB600423BB60374B1B78DAB220231340DBB2002B0E
:400EC00060D07B685A00FF2313407B603B68002B03D12F4B24221A7006E02D4B25221A707B68012213437B602A4B2B4A1A6000F073F9C046294B1A6801231340FAD1284B72
:400F00007A681A60C046234B1A680823FF331340F9D0204B1A680423134002D00023BB601CE01C4B1A680223134002D00223BB6014E0184B1A680123134007D0144B102248
:400F40001A700123BB600123FB6007E0104B10221A7080235B00BB600123FB600D4B0822FF321A60FB68002B0CD00E4B0D4A1268520052081A600B4B0A4A126880210906D8
:400F80000A431A60BB68181CBD4604B080BDC04645010020000F06401703000068000640400206400000064080B582B000AF00237B6004233B60264B1B78DAB220231340CC
:400FC000DBB2002B3ED0234B234A116820220A4001D0182200E010221A60C0461F4B1A681223FF331340F9D01C4B1A681023134002D000233B600EE0184B1A6801231340F6
:4010000004D001233B6001237B6004E080235B003B6001237B60114B1222FF321A600C4B10221A707B68002B0CD00D4B0C4A1268520052081A600A4B094A1268802109064A
:401040000A431A603B68181CBD4602B080BDC046450100206800064064000640000F06400000064080B584B000AF78600023FB600423BB602A4B1B78DAB220231340DBB21A
:40108000002B48D0274B7A681A60C046264B1A680823FF331340F9D0234B1A680423134005D01F4B60221A700023BB601FE01E4B1A680223134005D0194B60221A700223EE
:4010C000BB6014E0184B1A680123134007D0144B10221A700123BB600123FB6007E0104B10221A7080235B00BB600123FB600E4B0822FF321A60FB68002B0CD00B4B0B4AFC
:401100001268520052081A60084B084A1268802109060A431A60BB68181CBD4604B080BD4501002040020640000F06400000064080B584B000AF786001235B42FB601F4B2F
:401140001B78DAB220231340DBB2002B31D0C0461B4B1A680423134005D11A4B1A680223FF331340F4D0164B1A680423134010D0154B1B68FB60124B04221A607B68002BE8
:4011800003D1124B04221A6013E00C4B60221A700FE00C4B0E4A1A600E4B0E4A1268520052081A600B4B0B4A1268802109060A431A60FB68181CBD4604B080BD4501002012
:4011C000C00F0640000F06404003064068000640170300000000064080B582B000AF264B1B687B60C04600F04FF8031C002BFAD0002000F057F8214B204A12680F218A430C
:401200001A601F4B1E4A1268520052081A607A682023134011D0002000F044F80A20FFF7FFFC012000F03EF8C04600F05FF8031C002BFAD00A20FFF7F3FC002000F032F811
:401240000A20FFF7EDFC0F4B01221A600C4B0C4A1268802109060A431A60084B074A12680F218A430E210A431A60012000F01AF8BD4602B080BDC0466400064010000140A9
:40128000000006406800064080B500AF044B1A68022313405B08DBB2181CBD4680BDC0460404044080B584B000AF021CFB1D1A700D4B1B68DAB23B1C0F3301218A431A7006
:4012C000FB1D1A7801231340D9B23B1C0F333A1C0F3212780A431A70034B3A1C0F3212781A60BD4604B080BD0004044080B500AF044B1B68DAB201231340DBB2181CBD460F
:4013000080BDC0460404044080B500AF064B1B78002B04D100F00AF8034B01221A7000F023F8BD4680BDC0460C01002080B500AF084B72221A70084B20221A70074B0722FC
:401340001A70074B48221A70064B00221A70BD4680BDC04683000F4082000F4020000F4030000F4081000F4090B583B000AFFC1DFFF778FB031C2370104B104A1278D2B2DB
:4013800020210A43D2B21A700D4B0D4A1278D2B210210A43D2B21A700A4B0A4A1278D2B210210A43D2B21A7000F054F8FB1D1B78181CFFF75BFBBD4603B090BD93000F40B9
:4013C00092000F4091000F4080B582B000AF021CFB1D1A70C046074B1B78DBB21A1C04231340F8D1044BFA1D12781A70BD4602B080BDC04661000F4041000F4080B584B04A
:4014000000AF78600A1CFB1C1A703B1C0F3300221A700F4B1B78002B16D03B1C0F331B787A68D3181B78181CFFF7CEFF3B1C0F331A783B1C0F3301321A703A1C0F32FB1C69
:4014400012781B789A42E8D3BD4604B080BDC0460C01002080B500AF044B044A1268802109060A431A60BD4680BDC0464000024080B582B000AF00233B60C34B1B68002BC7
:4014800002D0C14B1B689847C04B1A680123134002D0BF4B00221A60BE4B1B78DAB220231340DBB2002B3CD0BB4B1A6880235B0013400AD0B94B1B889BB2C022920013437D
:4014C0009AB2B64B1A8001233B60B34B1A68012313400AD0B14B1B889BB29022920013439AB2AE4B1A8001233B603B68002B18D0A84B1B78DAB201231340DBB2002B01D089
:40150000012300E00223A54A128892B291B21A1C0B1C13439BB29AB2A04B1A809D4B00221A709C4B1B78DAB220231340DBB2002B00D1ACE1984B1A68102313401CD0984BA1
:4015400010221A60934B1B78DAB201231340DBB2002B01D0012300E00223904A128892B291B21A1C0B1C13439BB29AB28B4B1A80884B10221A70C0E1864B1B78DAB2082397
:401580001340DBB2002B29D0834B1A68022313400ED0834B02221A60804B1B889BB28822920013439AB27D4B1A8001233B6015E0784B1B78DAB201231340DBB2002B03D082
:4015C000744B25221A7009E0724B24221A70754B1B68002B02D0744B10221A606D4B1B78DAB204231340DBB2002B00D113E1694B1B78DAB201231340DBB2002B5CD06B4B88
:401600001A680823134034D0694B1A68694B19680F231940684B1B68CB18D31A7B607B68082B02D908237B600DE07B68002B0AD1624B624A1168624A0A401A6008237B60BA
:4016400001233B6011E010E05E4B1A685A4B1B68D2185D4B1B68DBB21370574B1B685A1C554B1A607B68013B7B607B68002BEBD11EE04E4B1A680423134019D0514B1A683F
:401680004D4B1B68D218504B1B68DBB213704A4B1B685A1C484B1A60474B1A68444B1B689A4203D2494B04221A6001E001233B60474B484A1A60AEE0374B1A680223134009
:4016C00032D0374B02221A60434B1A68434B19680F231940414B186880231B02034001D0012300E00023CB18D21A3B4B1A603A4B1A683B4B1A60294B1B889BB284229200A5
:4017000013439AB2254B1A80364B364A1268802149020A431A60334B324A1168324A0A401A6001233B6076E0304B1A681023134066D015E0284B1A681A4B1B689A420ED2C0
:401740002B4B2C4A1168244A12688A181278D2B21A60214B1B685A1C1F4B1A6000E005E01E4B1A680F231340082BE3D11A4B1A680C4B1B689A4202D10B4B40221A601E4B82
:401780001E4A1A6047E0C046080100208C0E0640880E0640450100200C0F064064010020000F064050010020880F0640CC0F064060010020080306404C0100206000064040
:4017C000FFFEFFFF680100204003064068000640C00F0640ED0F000048010020080206405801002004020640FFFFFEFF8C0F0640400206405C010020800F0640F3070000EF
:401800003F4B1A684023134005D03E4B1A683E4B1A6001233B603B68002B6ED03B4B3B4A11683B4A0A401A603A4B00221A603A4B00221A60394B1B78DAB202231340DBB281
:40184000002B19D0364B1B78DAB201231340DBB2002B01D0092300E00A23324A128892B291B21A1C0B1C13439BB29AB22D4B1A802B4B60221A7040E02B4B2C4A1168202237
:401880000A4001D0182200E010221A6035E0244B1B78DAB210231340DBB2002B2DD1244B234A1268520052081A601D4B10221A70164B164A11681F4A0A401A60134B134AA6
:4018C00011681D4A0A401A60124B00221A60124B00221A60194B1A4A1A601A4B1A4A1A601A4B1B4A1A601B4B1B4A1A60104B104A1268802109060A431A60BD4602B080BDAC
:401900008C0F0640480100205801002060000640FFFEFFFFC80F0640880F0640540100204501002064010020680006406400064000000640FF5FFFFFFFFCFFFF800F064021
:40194000ED0F0000C00F0640F3070000400F0640FF0F0000000F06401703000070B50E4B0E4D0024ED1AAD101E1CAC4204D0A300F35898470134F8E700F084F9084B094D96
:401980000024ED1AAD101E1CAC4204D0A300F35898470134F8E770BD901C0000901C0000901C0000981C000010B50023934203D0CC5CC4540133F9E710BD031C821893423E
:4019C00002D019700133FAE770470000000000000400000000300F40800200330F40000100400F400004000080320F40041C00008000000003000F4063300F4037310F4019
:401A00000D320F4044330F4004400F4003410F4002600F40810F823883720102042206510D0E0F201001120E18441A311B371D381F0524E728E72C802D382F0330073123E7
:401A40003218331834603680370739083BA23E043F04400345014750482149FF4A074BFF4C404D204EF04F055008580459045A045F01604061A86240632081028218842051
:401A80008540880A890C8A048B118C048D248E038F0198059C039D0D9E0C9F30A007A10DA210A310A739AE04B01FB101B340B420B502B73CBB80BF15C042C101C5EBC6C008
:401AC000C80BC9FFCAFFCBFFCEF0CF44D00CD401D804D904DA04DB04DF01E6C0EA40EB020108051507020A440D400F081002111415021601181419801A441D111F202048E8
:401B000021452210268027AA28022E012F2031103280368038403A013C403D013E103F244002414442014402472249044B044D014F08520157105D015E105F888E12C0F46C
:401B4000C2CAC497CAC8CC1CCEF9D0B2D6F00E01130116012301320137013E043F405418580459045B045F01000401800340070208800A400B240D0410A8114019261A043E
:401B80001B801F0422152306270129A02A022F8030803104321136023828394040104204438046804701480449804B20510452025A085D02668067086802691470BC808049
:401BC00081208D048F40901491409240951499809A02A004A402A948B501C08DC22FC40FCA8DCC8FCE0ED00ED20CD682D830EE4003205002C010D480AB20B402EC2010012E
:401C0000110100000F00F00082180000000800000004F380C3000004FF3C00411C3CE342F3100C00087F0000040000000C67001841000003C0802C200F1F1C400080282073
:401C40000000000425060100030000CE30FFFFFF62A0F0410C000000000002120404040400000001000000000000400200103010001010120000000000000000000000000E
:401C800000000000F8B5C046F8BC08BC9E4670477D0300001D090000F8B5C046F8BC08BC9E46704755030000B81C0000C80000202000000088000000000000000001020330
:401CC00004000000C0F1FF0F00366E01C05D0000180000000000E02E0000000000000000000000000000000000000000000000000000000000000000000000000000000039
:401D000000000000000000000000000000000000000000000000000000000000000000000000000000000000000000000000000000000000000000000000000000000000A3
:401D40000000000000000000000000000000000000000000000000000000000000000000000000000000000000000000000000000000000000000000000000000000000063
:401D80000000000000000000000000000000000000000000000000000000000000000000000000000000000000000000000000000000000000000000000000000000000023
:401DC00000000000000000000000000000000000000000000000000000000000000000000000000000000000000000000000000000000000000000000000000000000000E3
:0200000490303A
:02000000E8D145
:0200000490402A
:200000000000000000000000000000000000000000000000000000000000000000000000E0
:0200000490501A
:0C000000000204C81193110104D0FA643E
:0200000490600A
:0100000001FE
:00000001FF