:100000000C9435000C945D000C945D000C945D0024
:100010000C945D000C945D000C945D000C945D00EC
:100020000C945D000C945D000C945D000C945D00DC
:100030000C945D000C945D000C945D000C945D00CC
:100040000C94CC020C945D000C947C010C94BF01C8
:100050000C945D000C945D000C945D000C945D00AC
:100060000C945D000C945D00840211241FBECFEF40
:10007000D8E0DEBFCDBF11E0A0E0B1E0E0E3F8E002
:1000800002C005900D92A431B107D9F711E0A4E1A7
:10009000B1E001C01D92A73CB107E1F710E0CAE64C
:1000A000D0E004C02297FE010E949F03C836D1070A
:1000B000C9F70E94BF020C9416040C94000040E89B
:1000C00055E260E070E084E191E00C94FA01CF9396
:1000D000DF9300D000D01F92CDB7DEB769E470E0A7
:1000E00080E090E00E94BE007A83698369E470E05A
:1000F00080E090E00E94BE007C836B8369E470E046
:1001000080E090E00E94BE006D8345E050E0BE01BB
:100110006F5F7F4F84E191E00E9496000F900F90F7
:100120000F900F900F90DF91CF910895CF92DF92B3
:10013000EF92FF920F931F93CF93DF936C01EB012C
:100140007B01E40EF51E00E010E0CE15DF0561F046
:100150006991D601ED91FC910190F081E02DC601ED
:100160000995080F191FF1CFC801DF91CF911F9199
:100170000F91FF90EF90DF90CF900895CF93DF9392
:1001800000D000D0CDB7DEB76115710581059105AE
:1001900079F09B01AC0169833A834B835C830E94B5
:1001A000000429813A814B815C810E94730303C062
:1001B00060E070E0CB010F900F900F900F90DF91F7
:1001C000CF910895FC0124853585F901E05CFF4F4E
:1001D00080819181329620813181821B930B8F73B4
:1001E00099270895DC011C96ED91FC911D97DF0184
:1001F000A05CBF4F2D913C91119712968D919C91CF
:1002000011972817390739F08D919C91E80FF91F44
:10021000808190E008958FEF9FEF0895FC01A48501
:10022000B585FD01E05CFF4F2081318132968081F0
:1002300091812817390779F080819181A80FB91F22
:100240008C91208131812F5F3F4F2F733327318372
:10025000208390E008958FEF9FEF0895FC0181A126
:10026000882329F0A489B5898C9186FFFBCF11A240
:1002700008950F931F93CF93DF93FC01A685B78555
:100280008D01005C1F4FE8018881998101968F7371
:100290009927AD014E5B5F4FEA01288139818217B2
:1002A0009307D1F3E80128813981A20FB31F6C9322
:1002B000A685B785A05CBF4F11969C938E93A689A7
:1002C000B7892C9181E090E0078C02C0880F991FBC
:1002D0000A94E2F7822B8C9381E081A30488F5894C
:1002E000E02D80818064808381E090E0DF91CF9178
:1002F0001F910F91089508951F920F920FB60F92BC
:1003000011242F934F935F938F939F93EF93FF93BA
:100310008091C00082FD1CC02091C6008091BA016E
:100320009091BB0101968F7399274091BC01509128
:10033000BD018417950771F0E091BA01F091BB01FE
:10034000E658FE4F20839093BB018093BA0102C010
:100350008091C600FF91EF919F918F915F914F9196
:100360002F910F900FBE0F901F90189584E191E090
:100370000E94E200892B11F00C947B0108951F92DA
:100380000F920FB60F9211242F933F938F939F9349
:10039000EF93FF932091760130917701809178015E
:1003A000909179012817390731F48091C1008F7D30
:1003B0008093C10014C0E0917801F0917901EA5C6A
:1003C000FE4F2081809178019091790101968F7381
:1003D000992790937901809378012093C600FF912B
:1003E000EF919F918F913F912F910F900FBE0F90A2
:1003F0001F901895CF92DF92EF92FF920F931F9369
:10040000CF93DF93EC016A017B01411581EE580720
:100410006105710511F1EC89FD8981E090E008A08A
:1004200002C0880F991F0A94E2F7808360E079E0A8
:100430008DE390E0A70196010E94510389019A0182
:10044000015011092109310936952795179507950E
:100450009801011580E11807A8F0EC89FD89108248
:1004600060E874E88EE190E0A70196010E945103D4
:10047000DA01C9010197A109B109B695A795979528
:1004800087959C01E889F9893083EA89FB89208373
:1004900019A2EE89FF89408181E090E09C010C8CDB
:1004A00002C0220F331F0A94E2F7242B2083EE8927
:1004B000FF8940819C010D8C02C0220F331F0A94DA
:1004C000E2F7242B2083EE89FF8940819C010E8C6A
:1004D00002C0220F331F0A94E2F7242B2083EE89F7
:1004E000FF8920810F8C02C0880F991F0A94E2F7C0
:1004F000809582238083DF91CF911F910F91FF9090
:10050000EF90DF90CF900895E4E1F1E01382128242
:1005100088EE93E0A0E0B0E084839583A683B78360
:1005200088E091E0918380838AE791E095878487D2
:1005300086E391E09787868785EC90E0918B808BAE
:1005400084EC90E0938B828B80EC90E0958B848B95
:1005500081EC90E0978B868B82EC90E0918F808F7E
:1005600086EC90E0938F828F84E0848F83E0858F88
:1005700087E0868F85E0878F81E080A308950E94C1
:1005800016030E945F00C6EBD1E00E94670020972F
:10059000E1F30E94B601F9CF1F920F920FB60F92AE
:1005A00011242F933F938F939F93AF93BF93809189
:1005B000BF019091C001A091C101B091C2013091E1
:1005C000BE0123E0230F2D3720F40196A11DB11D9C
:1005D00005C026E8230F0296A11DB11D2093BE0180
:1005E0008093BF019093C001A093C101B093C20159
:1005F0008091C3019091C401A091C501B091C60141
:100600000196A11DB11D8093C3019093C401A093D5
:10061000C501B093C601BF91AF919F918F913F915A
:100620002F910F900FBE0F901F901895789484B55E
:10063000826084BD84B5816084BD85B5826085BDDE
:1006400085B5816085BDEEE6F0E0808181608083C4
:10065000E1E8F0E0108280818260808380818160A7
:100660008083E0E8F0E0808181608083E1EBF0E06E
:10067000808184608083E0EBF0E080818160808312
:10068000EAE7F0E0808184608083808182608083FB
:100690008081816080838081806880831092C10026
:1006A0000895A1E21A2EAA1BBB1BFD010DC0AA1FB3
:1006B000BB1FEE1FFF1FA217B307E407F50720F0CB
:1006C000A21BB30BE40BF50B661F771F881F991F46
:1006D0001A9469F760957095809590959B01AC018F
:1006E000BD01CF010895052E97FB1EF400940E94D2
:1006F0008A0357FD07D00E94510307FC03D04EF434
:100700000C948A0350954095309521953F4F4F4F5B
:100710005F4F089590958095709561957F4F8F4FAD
:100720009F4F08950E94A303A59F900DB49F900D25
:10073000A49F800D911D11240895EE0FFF1F0590B9
:10074000F491E02D0994A29FB001B39FC001A39F33
:10075000700D811D1124911DB29F700D811D1124FA
:10076000911D08958F929F92AF92BF92CF92DF9288
:10077000EF92FF92CF93DF93EC01688179818A81B8
:100780009B81611571058105910521F464E279ED84
:100790008BE597E02DE133EF41E050E00E947303D9
:1007A00049015A019B01AC01A7EAB1E40E949203FE
:1007B0006B017C01ACEEB4EFA50194010E94110421
:1007C000DC01CB018C0D9D1DAE1DBF1DB7FF03C00D
:1007D0000197A109B04888839983AA83BB83BC0190
:1007E000CD019F77DF91CF91FF90EF90DF90CF9079
:1007F000BF90AF909F908F9008950E94B20308958C
:1008000080E091E00E94B20308956093000170932C
:10081000010180930201909303010895B7FF0C94A6
:1008200092030E949203821B930B0895F894FFCFCA
:10083000010000000000000039019600E2000E01F6
:04084000F2002E0193
:00000001FF
