:100000000C9435000C945D000C945D000C945D0024
:100010000C945D000C945D000C945D000C945D00EC
:100020000C945D000C945D000C945D000C945D00DC
:100030000C945D000C945D000C945D000C945D00CC
:100040000C949A020C945D000C944A010C948D015E
:100050000C945D000C945D000C945D000C945D00AC
:100060000C945D000C945D00520211241FBECFEF72
:10007000D8E0DEBFCDBF11E0A0E0B1E0E2E9F6E0FC
:1000800002C005900D92A631B107D9F711E0A6E1A3
:10009000B1E001C01D92A53DB107E1F710E0CAE64D
:1000A000D0E004C02297FE010E944303C836D10766
:1000B000C9F70E948D020C9447030C94000040E89D
:1000C00055E260E070E082E291E00E94C80185E0C4
:1000D000E0E0F1E0A6E1B1E001900D928A95E1F750
:1000E000E6E1F1E0178212860895E6E1F1E08FE0A3
:1000F00090E09683858380E190E09187808781E11D
:1001000083874CE050E0BF0182E291E00C948800CC
:10011000CF92DF92EF92FF920F931F93CF93DF93D3
:100120006C01EB017B01E40EF51E00E010E0CE1542
:10013000DF0561F06991D601ED91FC910190F081AC
:10014000E02DC6010995080F191FF1CFC801DF91F5
:10015000CF911F910F91FF90EF90DF90CF90089576
:10016000FC0124853585F901E05CFF4F8081918198
:10017000329620813181821B930B8F7399270895CA
:10018000DC011C96ED91FC911D97DF01A05CBF4F37
:100190002D913C91119712968D919C911197281752
:1001A000390739F08D919C91E80FF91F808190E01B
:1001B00008958FEF9FEF0895FC01A485B585FD019B
:1001C000E05CFF4F20813181329680819181281738
:1001D000390779F080819181A80FB91F8C91208116
:1001E00031812F5F3F4F2F7333273183208390E07E
:1001F00008958FEF9FEF0895FC0181A1882329F0D6
:10020000A489B5898C9186FFFBCF11A208950F9325
:100210001F93CF93DF93FC01A685B7858D01005C0A
:100220001F4FE8018881998101968F739927AD014D
:100230004E5B5F4FEA012881398182179307D1F322
:10024000E80128813981A20FB31F6C93A685B78579
:10025000A05CBF4F11969C938E93A689B7892C9171
:1002600081E090E0078C02C0880F991F0A94E2F7A2
:10027000822B8C9381E081A30488F589E02D808115
:100280008064808381E090E0DF91CF911F910F9196
:10029000089508951F920F920FB60F9211242F9375
:1002A0004F935F938F939F93EF93FF938091C00041
:1002B00082FD1CC02091C6008091C8019091C901A7
:1002C00001968F7399274091CA015091CB018417F1
:1002D000950771F0E091C801F091C901E857FE4F10
:1002E00020839093C9018093C80102C08091C60009
:1002F000FF91EF919F918F915F914F912F910F906F
:100300000FBE0F901F90189582E291E00E94B000FE
:10031000892B11F00C94490108951F920F920FB68A
:100320000F9211242F933F938F939F93EF93FF93FB
:1003300020918401309185018091860190918701FF
:100340002817390731F48091C1008F7D8093C10057
:1003500014C0E0918601F0918701EC5BFE4F208193
:10036000809186019091870101968F7399279093D0
:100370008701809386012093C600FF91EF919F91A2
:100380008F913F912F910F900FBE0F901F90189556
:10039000CF92DF92EF92FF920F931F93CF93DF9351
:1003A000EC016A017B01411581EE58076105710579
:1003B00011F1EC89FD8981E090E008A002C0880F6E
:1003C000991F0A94E2F7808360E079E08DE390E082
:1003D000A70196010E941F0389019A01015011098A
:1003E000210931093695279517950795980101152B
:1003F00080E11807A8F0EC89FD89108260E874E8B4
:100400008EE190E0A70196010E941F03DA01C90165
:100410000197A109B109B695A795979587959C0174
:10042000E889F9893083EA89FB89208319A2EE895A
:10043000FF89408181E090E09C010C8C02C0220F7A
:10044000331F0A94E2F7242B2083EE89FF89408131
:100450009C010D8C02C0220F331F0A94E2F7242B5B
:100460002083EE89FF8940819C010E8C02C0220FFF
:10047000331F0A94E2F7242B2083EE89FF89208121
:100480000F8C02C0880F991F0A94E2F7809582238F
:100490008083DF91CF911F910F91FF90EF90DF90BC
:1004A000CF900895E2E2F1E01382128288EE93E0A9
:1004B000A0E0B0E084839583A683B78389E091E0D0
:1004C0009183808388E891E09587848784E491E034
:1004D0009787868785EC90E0918B808B84EC90E009
:1004E000938B828B80EC90E0958B848B81EC90E0F9
:1004F000978B868B82EC90E0918F808F86EC90E0DA
:10050000938F828F84E0848F83E0858F87E0868F4E
:1005100085E0878F81E080A308950E94E4020E9415
:100520005F00C4E8D1E00E9475002097E1F30E94CB
:100530008401F9CF1F920F920FB60F9211242F93BF
:100540003F938F939F93AF93BF938091CD019091F1
:10055000CE01A091CF01B091D0013091CC0123E028
:10056000230F2D3720F40196A11DB11D05C026E8EB
:10057000230F0296A11DB11D2093CC018093CD01C4
:100580009093CE01A093CF01B093D0018091D1017F
:100590009091D201A091D301B091D4010196A11DF7
:1005A000B11D8093D1019093D201A093D301B09358
:1005B000D401BF91AF919F918F913F912F910F9057
:1005C0000FBE0F901F901895789484B5826084BDFB
:1005D00084B5816084BD85B5826085BD85B5816047
:1005E00085BDEEE6F0E0808181608083E1E8F0E0A7
:1005F0001082808182608083808181608083E0E8D6
:10060000F0E0808181608083E1EBF0E080818460B4
:100610008083E0EBF0E0808181608083EAE7F0E0B6
:10062000808184608083808182608083808181601A
:1006300080838081806880831092C1000895A1E248
:100640001A2EAA1BBB1BFD010DC0AA1FBB1FEE1F4C
:10065000FF1FA217B307E407F50720F0A21BB30B97
:10066000E40BF50B661F771F881F991F1A9469F713
:1006700060957095809590959B01AC01BD01CF016F
:100680000895EE0FFF1F0590F491E02D0994F89462
:02069000FFCF9A
:1006920000010203040000000007018800B000DC32
:0606A20000C000FC000096
:00000001FF
