:100000000C9435000C945D000C945D000C945D0024
:100010000C945D000C945D000C945D000C945D00EC
:100020000C945D000C945D000C945D000C945D00DC
:100030000C945D000C945D000C945D000C945D00CC
:100040000C9487000C945D000C9419020C945C02D3
:100050000C945D000C945D000C945D000C945D00AC
:100060000C945D000C945D00210311241FBECFEFA2
:10007000D8E0DEBFCDBF11E0A0E0B1E0E6E2F7E0FE
:1000800002C005900D92A631B107D9F711E0A6E1A3
:10009000B1E001C01D92A13DB107E1F710E0CAE651
:1000A000D0E004C02297FE010E948D03C836D1071C
:1000B000C9F70E945C030C9491030C94000040E883
:1000C00055E260E070E087E291E00E94970285E0EF
:1000D000E0E0F1E0A6E1B1E001900D928A95E1F750
:1000E00010921D01089580E091E090931C0180938F
:1000F0001B0148E050E066E171E087E291E00E9478
:10010000570164E670E080E090E00C94F6001F92E6
:100110000F920FB60F9211242F933F938F939F93BB
:10012000AF93BF9380911F0190912001A091210175
:10013000B091220130911E0123E0230F2D3720F4CE
:100140000196A11DB11D05C026E8230F0296A11D31
:10015000B11D20931E0180931F0190932001A09355
:100160002101B09322018091230190912401A0915B
:100170002501B09126010196A11DB11D8093230197
:1001800090932401A0932501B0932601BF91AF91D4
:100190009F918F913F912F910F900FBE0F901F90C5
:1001A00018953FB7F8948091230190912401A09174
:1001B0002501B091260126B5A89B05C02F3F19F057
:1001C0000196A11DB11D3FBFBA2FA92F982F8827D7
:1001D000820F911DA11DB11DBC01CD0142E0660F32
:1001E000771F881F991F4A95D1F70895CF92DF9204
:1001F000EF92FF92CF93DF936B017C010E94D100BD
:10020000EB01C114D104E104F10479F00E94D100A2
:100210006C1B7D0B683E7340A0F381E0C81AD108C7
:10022000E108F108C851DC4FECCFDF91CF91FF908E
:10023000EF90DF90CF900895789484B5826084BD6C
:1002400084B5816084BD85B5826085BD85B58160DA
:1002500085BDEEE6F0E0808181608083E1E8F0E03A
:100260001082808182608083808181608083E0E869
:10027000F0E0808181608083E1EBF0E08081846048
:100280008083E0EBF0E0808181608083EAE7F0E04A
:1002900080818460808380818260808380818160AE
:1002A00080838081806880831092C1000895CF92FE
:1002B000DF92EF92FF920F931F93CF93DF936C0126
:1002C000EB017B01E40EF51E00E010E0CE15DF052A
:1002D00061F06991D601ED91FC910190F081E02DE2
:1002E000C6010995080F191FF1CFC801DF91CF9101
:1002F0001F910F91FF90EF90DF90CF900895FC0138
:1003000024853585F901E05CFF4F8081918132962B
:1003100020813181821B930B8F7399270895DC0113
:100320001C96ED91FC911D97DF01A05CBF4F2D91B4
:100330003C91119712968D919C911197281739072E
:1003400039F08D919C91E80FF91F808190E008951C
:100350008FEF9FEF0895FC01A485B585FD01E05C5A
:10036000FF4F208131813296808191812817390792
:1003700079F080819181A80FB91F8C912081318102
:100380002F5F3F4F2F7333273183208390E00895F1
:100390008FEF9FEF0895FC0181A1882329F0A489A4
:1003A000B5898C9186FFFBCF11A208950F931F93FF
:1003B000CF93DF93FC01A685B7858D01005C1F4FAD
:1003C000E8018881998101968F739927AD014E5B71
:1003D0005F4FEA012881398182179307D1F3E80141
:1003E00028813981A20FB31F6C93A685B785A05CC5
:1003F000BF4F11969C938E93A689B7892C9181E06B
:1004000090E0078C02C0880F991F0A94E2F7822BB4
:100410008C9381E081A30488F589E02D808180643C
:10042000808381E090E0DF91CF911F910F9108953B
:1004300008951F920F920FB60F9211242F934F938E
:100440005F938F939F93EF93FF938091C00082FD02
:100450001CC02091C6008091CD019091CE010196E3
:100460008F7399274091CF015091D0018417950740
:1004700071F0E091CD01F091CE01E357FE4F208362
:100480009093CE018093CD0102C08091C600FF9170
:10049000EF919F918F915F914F912F910F900FBE90
:1004A0000F901F90189587E291E00E947F01892BA1
:1004B00011F00C94180208951F920F920FB60F922C
:1004C00011242F933F938F939F93EF93FF9320914A
:1004D000890130918A0180918B0190918C012817BC
:1004E000390731F48091C1008F7D8093C10014C021
:1004F000E0918B01F0918C01E75BFE4F20818091B0
:100500008B0190918C0101968F73992790938C01A8
:1005100080938B012093C600FF91EF919F918F9163
:100520003F912F910F900FBE0F901F901895CF9273
:10053000DF92EF92FF920F931F93CF93DF93EC0123
:100540006A017B01411581EE58076105710511F1C2
:10055000EC89FD8981E090E008A002C0880F991F16
:100560000A94E2F7808360E079E08DE390E0A701F0
:1005700096010E94690389019A010150110921091C
:10058000310936952795179507959801011580E152
:100590001807A8F0EC89FD89108260E874E88EE104
:1005A00090E0A70196010E946903DA01C901019751
:1005B000A109B109B695A795979587959C01E889FA
:1005C000F9893083EA89FB89208319A2EE89FF89A2
:1005D000408181E090E09C010C8C02C0220F331F0F
:1005E0000A94E2F7242B2083EE89FF8940819C0145
:1005F0000D8C02C0220F331F0A94E2F7242B2083B4
:10060000EE89FF8940819C010E8C02C0220F331FAE
:100610000A94E2F7242B2083EE89FF8920810F8C36
:1006200002C0880F991F0A94E2F780958223808385
:10063000DF91CF911F910F91FF90EF90DF90CF90BE
:100640000895E7E2F1E01382128288EE93E0A0E0E1
:10065000B0E084839583A683B78389E091E091839A
:1006600080838DE891E09587848789E491E097877E
:10067000868785EC90E0918B808B84EC90E0938B67
:10068000828B80EC90E0958B848B81EC90E0978B53
:10069000868B82EC90E0918F808F86EC90E0938F38
:1006A000828F84E0848F83E0858F87E0868F85E06A
:1006B000878F81E080A308950E941C010E945F0043
:1006C000C3E5D2E00E9473002097E1F30E94530239
:1006D000F9CFA1E21A2EAA1BBB1BFD010DC0AA1F58
:1006E000BB1FEE1FFF1FA217B307E407F50720F09B
:1006F000A21BB30BE40BF50B661F771F881F991F16
:100700001A9469F760957095809590959B01AC015E
:10071000BD01CF010895EE0FFF1F0590F491E02D6C
:060720000994F894FFCFDC
:10072600000102030400000000D60157017F01AB5F
:06073600018F01CB010060
:00000001FF
