:10000000022B2E008F828E83E0540100000070F8D6
:100010002278FFE4F6D8FD022B8C90008CEFF09054
:100020000094E4F0A3E4F090008DE4F090008DE003
:10003000FFEFC3940940030200D990008DE0FFEF69
:1000400075F00BA424ACF582E43400F583E4F09061
:10005000008DE0FFEF75F00BA424AEF582E43400D0
:10006000F583E4F090008DE0FFEF75F00BA424AD74
:10007000F582E43400F583E4F090008DE0FFEF7545
:10008000F00BA424AFF582E43400F583E4F0900093
:100090008DE0FFEF75F00BA424B1F582E43400F598
:1000A00083E4F090008DE0FFEF75F00BA424B4F52D
:1000B00082E43400F583E4F0A3E4F090008DE0FFE7
:1000C000EF75F00BA424B6F582E43400F583E4F078
:1000D00090008DE004F002002C90008CE0FFEF60B7
:1000E0003A90008FE4F090008FE0FFEFC39402504D
:1000F0002A90008FE0FF740F2FF582E43401F5831E
:10010000E4F090008FE0FF741E2FF582E43401F5D7
:1001100083E4F090008FE004F080CB9000A7E0FF34
:10012000EFD3940050030205439000A7E0FFEF14C3
:10013000FF1231F1900096EEF0A3EFF0900096E000
:10014000FEA3E0FF8F828E83A3120C6090009112B9
:100150000C57900091120C4EE92407F9EA3400FA8A
:10016000120A36FFEF5440FF7E00EF4E6010900001
:10017000A6E0FFEF4401FF9000A6EFF0800E900094
:10018000A6E0FFEF54FEFF9000A6EFF0900096E08F
:10019000FEA3E0FFEF2404FFEE3400FE900096EE95
:1001A000F0A3EFF0900096E0FEA3E0FF8F828E8335
:1001B000E493FF90008DEFF090008F7401F09000B9
:1001C0008FE0FFEFC394094003020458900096E0CB
:1001D000FEA3E0FF8F828E83A3120C60AE02AF01FC
:1001E000900098EEF0A3EFF090008EE4F090008D78
:1001F000E0FF90008EE0FEEEC39F400302044F90AC
:100200000098E0FEA3E0FF8F828E83740293FFEFDD
:10021000547FFF7E0090008FE0FD7C00ED6F700248
:10022000EC6E600302042E900098E0FEA3E0FF8FC6
:10023000828E83740493FE740593FF90008FE0FD1B
:10024000ED75F00BA424B4F582E43400F583E0FCF2
:10025000A3E0FDC3ED9FEC9E502C900098E0FEA320
:10026000E0FF8F828E83740493FE740593FF9000E9
:100270008FE0FDED75F00BA424B4F582E43400F5B5
:1002800083EEF0A3EFF0900098E0FEA3E0FF8F82F2
:100290008E83E493FF740F2FF582E43401F583E03D
:1002A000FF900098E0FCA3E0FD8D828C83740193A5
:1002B000FEEF6E600302042E900098E0FEA3E0FFC4
:1002C0008F828E83740393FFEF5403FF900090EFAF
:1002D000F0900098E0FEA3E0FF8F828E837402937B
:1002E000FFEF5480FF7E00EF4E700302036E90001C
:1002F0008FE0FFEF75F00BA424ADF582E43400F538
:10030000837401F0900090E0FFEFB401047F078058
:10031000027F0D90008FE0FEEE75F00BA424B1F586
:1003200082E43400F583EFF0900098E0FEA3E0FF54
:100330008F828E83740693FFEF640A601890009892
:10034000E0FEA3E0FF8F828E83740693FFEF6402CA
:1003500060030203E4900090E0FFEF640370030287
:1003600003E490008FE0FF9001B7EFF080769000FB
:100370008FE0FFEF75F00BA424ADF582E43400F5B7
:1003800083E4F0900090E0FFEFB401047F05800269
:100390007F0990008FE0FEEE75F00BA424B1F5828A
:1003A000E43400F583EFF0900098E0FEA3E0FF8FC7
:1003B000828E83740693FFEF640A6014900098E0C5
:1003C000FEA3E0FF8F828E83740693FFEFB40214C6
:1003D000900090E0FFEF6403600A90008FE0FF90D0
:1003E00001B8EFF0900098E0FEA3E0FF8F828E83CB
:1003F000740293FF90008FE0FEEE75F00BA424B022
:10040000F582E43400F583EFF0900098E0FEA3E07D
:10041000FF8F828E83740393FF90008FE0FEEE7552
:10042000F00BA424ACF582E43400F583EFF09000E7
:1004300098E0FEA3E0FFEF2407FFEE3400FE9000FB
:1004400098EEF0A3EFF090008EE004F00201ED9042
:10045000008FE004F00201BE900096E0FEA3E0FFF2
:100460008F828E83A3120C60AE02AF01900098EED3
:10047000F0A3EFF090008FE4F090008DE0FF90008B
:100480008FE0FEEEC39F5053900098E0FEA3E0FF84
:100490008F828E83E493FF900098E0FCA3E0FD8DB3
:1004A000828C83740293FEEE547FFEEE75F00BA4F3
:1004B00024B6F582E43400F583EFF0900098E0FE76
:1004C000A3E0FFEF2407FFEE3400FE900098EEF06B
:1004D000A3EFF090008FE004F0809E123152900163
:1004E0001BEEF0A3EFF090008D7401F090008DE012
:1004F000FFEFC394095049900094E0FEA3E0FF9001
:10050000008DE0FDED75F00BA424B2F582E434001B
:10051000F583EEF0A3EFF090008DE0FFEF75F00BA8
:10052000A424B4F582E43400F583E0FEA3E0FF9058
:100530000094EE8FF0120A6190008DE004F080AC20
:100540001219F422900082E4F07B007A0079009086
:100550000085120C57900111E4F0A3E4F0906000C4
:10056000E0FFEF5480FF7E00EF64804E60030208DE
:1005700015906001E0FFEF120C8C073D00058A0624
:1005800007C90807E90A00000A30906003E0FFEF9E
:10059000B40135123FBB90008AEEF0A3EFF090005B
:1005A0008AE0FEA3E0FF8F828E83A3120C6090018D
:1005B00013120C57900111E4F0A37412F012369A42
:1005C000900082EFF0020A30906003E0FFEF6402D7
:1005D000707A906002E0FF1231F190008AEEF0A391
:1005E000EFF090008AE0FEA3E0FFEF4E7003020AF6
:1005F0003090008AE0FEA3E0FF8F828E83A3120C6E
:1006000060900113120C57900113120C4EE9240351
:10061000F9EA3400FA120A36FF7E00EF7F00FE90FE
:100620000113120C4EE92402F9EA3400FA120A36D8
:10063000FD7C00EE4CFEEF4DFF900111EEF0A3EFBC
:10064000F012369A900082EFF0020A30906003E0D8
:10065000FFEF64036003020732900088E4F07BFF41
:100660007A417979900085120C57900088E0FF90CC
:100670006002E0FEEED39F403D900085120C4E12CA
:100680000A36FFEF6030900085120C4E120A36FFDA
:10069000900089EFF0900085120C4E900089E0FFE9
:1006A0007E00E92FF9EA3EFA900085120C5790007F
:1006B00088E004F080B4906002E0FFEFB4EE0C7BC1
:1006C000FF7A427987900085120C57906002E0FF14
:1006D000EF6024904134E493FF906002E0FEEEB5B9
:1006E00007157B017A017966122A3C7B017A017930
:1006F00066900085120C57900085120C4E120A3637
:10070000FFEF7003020A30900085120C4E120A3679
:10071000FF7E00900111EEF0A3EFF0900085120C27
:100720004E900113120C5712369A900082EFF0028D
:100730000A3012328C900082EFF0020A3090600092
:10074000E0FFEF5403FFEF120C8C079700075402F1
:1007500000000A30900111E4F0A37402F0906004EC
:10076000E0FFEF547FFFEF75F00BA424AEF582E4B9
:100770003400F583E0FF9001C7EFF09001C8E4F08A
:100780007B017A0179C7900113120C5712369A90A7
:100790000082EFF0020A30900111E4F0A37402F03D
:1007A0009000A6E0FF9001C7EFF09001C8E4F07B55
:1007B000017A0179C7900113120C5712369A9000F2
:1007C00082EFF0020A30020A30900111E4F0A374C3
:1007D00001F07B017A0079A7900113120C571236B1
:1007E0009A900082EFF0020A30900111E4F0A374B5
:1007F00001F0906004E0FF740F2FF9E43401FA7BFC
:1008000001900113120C5712369A900082EFF002F9
:100810000A30020A30906001E0FFEF120C8C0911DF
:100820000109A90308310508460908BE0B00000AA2
:1008300030906002E0FF900120EFF0123FD6900070
:1008400082EFF0020A30906002E0FF900084EFF047
:10085000900084E0FFEFD394004013900084E0FF09
:10086000EF14FF1231F190008AEEF0A3EFF0900048
:1008700084E0FFEFD39400400C90008AE0FEA3E0F8
:10088000FFEF4E700B900084E0FFEF6003020A3030
:100890009000A7E0FF900084E0FEEE6F60159000EE
:1008A00084E0FF9000A7EFF090011D7401F07F013C
:1008B00012001A123FD6900082EFF0020A30123076
:1008C000AFEF7003020A30906004E0FF900083EF06
:1008D000F0900083E0FF900119EFF090011D74018A
:1008E000F0120E3B900083E0FF740F2FF582E4348A
:1008F00001F583E0FF900083E0FE741E2EF582E494
:100900003401F583EFF0123FD6900082EFF0020A37
:1009100030906000E0FFEF5403FFEF120C8C0941B0
:1009200000096701092B0200000A30906002E0FF15
:10093000EF6003020A30121F73900082EFF0020A88
:1009400030906002E0FFEF64016003020A30900023
:10095000A6E0FFEF54FDFF9000A6EFF0123FD69007
:100960000082EFF0020A30906004E0FFEFC39402CF
:100970004003020A30906004E0FF74212FF582E406
:100980003401F583C083C082E0FF906002E0FEEE98
:10099000F4FEEF5EFFD082D083EFF0123FD69000DE
:1009A00082EFF0020A30020A30906000E0FFEF545C
:1009B00003FFEF120C8C09D50009F70109C30200EF
:1009C000000A30906002E0FFEF7065122945900048
:1009D00082EFF0805B906002E0FFEF640170519065
:1009E00000A6E0FFEF4402FF9000A6EFF0123FD612
:1009F000900082EFF08039906004E0FFEFC3940232
:100A0000502E906004E0FF74212FF582E43401F54C
:100A100083C083C082E0FF906002E0FEEEF4FEEF50
:100A20005EFFD082D083EFF0123FD6900082EFF0CD
:100A3000900082E0FF22BB010689828A83E0225077
:100A400002E722BBFE02E32289828A83E49322BB6F
:100A5000010689828A83F0225002F722BBFE01F34D
:100A600022C5F0F8A3E028F0C5F0F8E58215827001
:100A7000021583E038F022BB010A89828A83E0F5FF
:100A8000F0A3E022500687F009E71922BBFE07E336
:100A9000F5F009E3192289828A83E493F5F0740161
:100AA0009322BB010A89828A83F0E5F0A3F02250E9
:100AB00006F709A7F01922BBFE06F3E5F009F319C2
:100AC00022EF2BFFEE3AFEED39FDEC38FC22E88FE9
:100AD000F0A4CC8BF0A42CFCE98EF0A42CFC8AF0C2
:100AE000EDA42CFCEA8EF0A4CDA8F08BF0A42DCCC4
:100AF0003825F0FDE98FF0A42CCD35F0FCEB8EF01D
:100B0000A4FEA9F0EB8FF0A4CFC5F02ECD39FEE402
:100B10003CFCEAA42DCE35F0FDE43CFC2275F00847
:100B2000758200EF2FFFEE33FECD33CDCC33CCC535
:100B30008233C5829BED9AEC99E58298400CF58250
:100B4000EE9BFEED9AFDEC99FC0FD5F0D6E4CEFBC2
:100B5000E4CDFAE4CCF9A88222B800C1B90059BAB0
:100B6000002DEC8BF084CFCECDFCE5F0CBF97818DE
:100B7000EF2FFFEE33FEED33FDEC33FCEB33FB10D8
:100B8000D703994004EB99FB0FD8E5E4F9FA2278F2
:100B900018EF2FFFEE33FEED33FDEC33FCC933C904
:100BA00010D7059BE99A4007EC9BFCE99AF90FD80E
:100BB000E0E4C9FAE4CCFB2275F010EF2FFFEE332E
:100BC000FEED33FDCC33CCC833C810D7079BEC9A6D
:100BD000E899400AED9BFDEC9AFCE899F80FD5F0F6
:100BE000DAE4CDFBE4CCFAE4C8F922EF4BFFEE4A9D
:100BF000FEED49FDEC48FC22E8600FECC313FCED70
:100C000013FDEE13FEEF13FFD8F122E8600FEFC3E0
:100C100033FFEE33FEED33FDEC33FCD8F122E0FC84
:100C2000A3E0FDA3E0FEA3E0FF22E0F8A3E0F9A328
:100C3000E0FAA3E0FB22ECF0A3EDF0A3EEF0A3EFCB
:100C4000F022A42582F582E5F03583F58322E0FBCE
:100C5000A3E0FAA3E0F922EBF0A3EAF0A3E9F02283
:100C6000E493FB740193FA740293F922BB010789A0
:100C7000828A83020C4E5005E9F8020E12BBFE0573
:100C8000E9F8020E3289828A83020C60D083D08216
:100C9000F8E4937012740193700DA3A393F8740198
:100CA00093F5828883E4737402936860EFA3A3A32F
:100CB00080DFE50E2582F582E50D3583F583B50DE0
:100CC0000485820E2210AF0685820EF50D228582E4
:100CD0000EF50DD2AF22EC8EF0A4CCC5F0CCCDF841
:100CE000EFA4CEC5F02DFDE43CFCE8A42EC8C5F071
:100CF0003DFDE43CFCEFA4FFE5F028FEE43DFDE40F
:100D00003CFC22E709F608DFFA8046E709F208DF33
:100D1000FA803E88828C83E709F0A3DFFA8032E311
:100D200009F608DFFA806EE309F208DFFA806688C8
:100D3000828C83E309F0A3DFFA805A89828A83E0F8
:100D4000A3F608DFFA804E89828A83E0A3F208DFE7
:100D5000FA804280D280FA80C680D4805580F280AA
:100D600029801080A680EA809A80A880DA80E280BC
:100D7000CA802988848C8589828A83E493A3058626
:100D8000F0A30586DFF5DEF3800B89828A83E49386
:100D9000A3F608DFF9ECFAA9F0EDFB2288848C8534
:100DA00089828A83E0A30586F0A30586DFF6DEF458
:100DB00080E389828A83E493A3F208DFF980D688EE
:100DC000F0EF60010E4E60CD88F0ED2402B4040017
:100DD00050C3F582EB2402B4040050B923234582AA
:100DE00023900D5373BB010CE58229F582E5833A0C
:100DF000F583E0225006E92582F8E622BBFE06E9EB
:100E00002582F8E222E58229F582E5833AF583E43A
:100E10009322E6FB08E6FA08E6F922F8E0FBA3A332
:100E2000E0F925F0F0E582158270021583E0FA38CA
:100E3000F022E2FB08E2FA08E2F9229000A7E0FFC4
:100E4000EFD39400500302121C9000A7E0FFEF14B0
:100E5000FF1231F1900091EEF0A3EFF0900091E0DD
:100E6000FEA3E0FFEF2404FFEE3400FE900091EEBD
:100E7000F0A3EFF0900091E0FEA3E0FF8F828E835D
:100E8000E493FF90008CEFF0900091E0FEA3E0FF70
:100E90008F828E83A3120C60AE02AF01900093EE9E
:100EA000F0A3EFF090008EE4F090008CE0FF900053
:100EB0008EE0FEEEC39F400302121C900093E0FE02
:100EC000A3E0FF8F828E83E493FF741E2FF582E4EC
:100ED0003401F583E0FF900093E0FCA3E0FD8D82F8
:100EE0008C83E493FE740F2EF582E43401F583E0E5
:100EF000FEEE6F70030211FB900093E0FEA3E0FF93
:100F00008F828E83E493FF740F2FF582E43401F512
:100F100083E0FF900093E0FCA3E0FD8D828C83745E
:100F20000193FEEF6E60030211FB900093E0FEA3BD
:100F3000E0FF8F828E83E493FF906004E0FEEF6E0B
:100F400060030211FB900093E0FEA3E0FF8F828E0E
:100F500083740293FFEF547FFF90008DEFF09000B9
:100F60008DE0FF7E00EF24FFFFEE34FFFEEFC4F8BC
:100F7000540FC868FFEEC454F048FE900090EFF0A4
:100F8000900093E0FEA3E0FF8F828E83740393FFB3
:100F9000EF5403FF90008FEFF0900093E0FEA3E08A
:100FA000FF8F828E83740293FFEF5480FF7E00EFE9
:100FB0004E603C90008DE0FFEF75F00BA424ADF582
:100FC00082E43400F5837401F090008FE0FFEFB409
:100FD00001047F0780027F0D90008DE0FEEE75F02A
:100FE0000BA424B1F582E43400F583EFF08039904E
:100FF000008DE0FFEF75F00BA424ADF582E4340022
:10100000F583E4F090008FE0FFEFB401047F0580EA
:10101000027F0990008DE0FEEE75F00BA424B1F57F
:1010200082E43400F583EFF0900090E0FF7E00EF63
:10103000240EFFEE3460FE8F828E837401F09000E8
:1010400093E0FEA3E0FF8F828E83740493FE740509
:1010500093FF90008DE0FDED75F00BA424B4F582B4
:10106000E43400F583EEF0A3EFF0900093E0FEA3EC
:10107000E0FF8F828E83740293FF90008DE0FEEE7E
:1010800075F00BA424B0F582E43400F583EFF09002
:101090000093E0FEA3E0FF8F828E83740393FF90A2
:1010A000008DE0FEEE75F00BA424ACF582E4340074
:1010B000F583EFF090008DE0FFEF75F00BA424AF07
:1010C000F582E43400F583E4F090008DE0FFEF75E5
:1010D000F00BA424B4F582E43400F583E0FEA3E031
:1010E000FFEEFF7E00900090E0FEEEFD7C00ED2420
:1010F0000CFDEC3460FC8D828C83EFF090008DE071
:10110000FFEF75F00BA424B4F582E43400F583E01E
:10111000FEA3E0FFEF54FFFF900090E0FEEEFD7CA9
:1011200000ED240DFDEC3460FC8D828C83EFF0909B
:10113000008DE0FFEF75F00BA424B2F582E43400DB
:10114000F583E0FEA3E0FFEF54FFFF900090E0FE88
:10115000EEFD7C00ED2486FDEC3460FC8D828C83FA
:10116000EFF090008DE0FFEF75F00BA424B2F58254
:10117000E43400F583E0FEA3E0FFEEFF7E00900084
:1011800090E0FEEEFD7C00ED2487FDEC3460FC8DEC
:10119000828C83EFF090008DE0FFEF75F00BA424BC
:1011A000B2F582E43400F583E0FEA3E0FFEF54FFE4
:1011B000FF900090E0FEEEFD7C00ED2484FDEC3419
:1011C00060FC8D828C83EFF090008DE0FFEF75F076
:1011D0000BA424B2F582E43400F583E0FEA3E0FF23
:1011E000EEFF7E00900090E0FEEEFD7C00ED248599
:1011F000FDEC3460FC8D828C83EFF0900093E0FE78
:10120000A3E0FFEF2407FFEE3400FE900093EEF022
:10121000A3EFF090008EE004F0020EA922E508246E
:101220005AF582E43400F583E00508229000573037
:10123000070390005AE475F001120E1B020A3620D3
:1012400000E97F2ED2008018EF540F2490D4344050
:10125000D4FF30040BEF24BFB41A0050032461FF05
:10126000E50960021509050CE50C7002050B300755
:101270000E900057E475F001120E1BEF020A4F02A8
:101280003F287403D2078003E4C207F50890005793
:10129000120C57E4F509F50BF50CE50960077F2002
:1012A00012126080F5750AFFC201C200C202C203B9
:1012B000C205C206C20812122CFF700D3007057F4E
:1012C00000121271AF0CAE0B22B4255FC2D5C2045E
:1012D00012122CFF24D0B40A00501A75F00A7809B3
:1012E00030D50508B6FF0106C6A426F620D5047041
:1012F00002D20380D924CFB41A00EF5004C2E5D241
:1013000004021472D20180C6D20080C0D20280BC16
:10131000D2D580BAD20580B47F2012126020020795
:101320007401B5090040F112121DFF121260021281
:101330009AD208D206809512121DFB12121DFA12C3
:10134000121DF94A4B700679437A157BFF20022E55
:10135000E509602A7E008E82758300120DE5600625
:101360000EEE650A70F0C2D5EBC0E0EAC0E0E9C05D
:10137000E0EE1214B9D0E0F9D0E0FAD0E0FB120AA6
:1013800036FF60AAEBC0E0EAC0E0E9C0E0121260FC
:10139000D0E02401F9D0E03400FAD0E0FBE50A0403
:1013A00060DCD50AD980877BFF7A1479B5D20280B8
:1013B0009C791080027908C206C2088008D2D579CB
:1013C0000A8004790AC2D5E50A047002F50AE4FA33
:1013D000FDFEFF12121DFC7B0820011312121DFDE1
:1013E0007B1030000A12121DFE12121DFF7B20EC32
:1013F0003382D592D55013C3E43000069FFFE49E9C
:10140000FEE42001039DFDE49CFCE4CBF8C201EC6A
:10141000700CCFCECDCCE824F8F870F38017C3EF72
:1014200033FFEE33FEED33FDEC33FCEB33FB994041
:1014300002FB0FD8E9EB300105F8D0E0C448B20157
:10144000C0E00AEC4D4E4F78207B0070C2EAB50A2E
:101450000040BCC0E01214BBD0F0D0E0200104C4B6
:10146000C0E0C4B201C0F0121249D0F0D5F0EB02D6
:10147000129A120C8C13375313B15813084C1304DF
:101480004213B54F13BD4413BD49131D4313C35538
:1014900013A74613A74513A747156350130C2D1325
:1014A000102E13332B131423133120154C2A12CC76
:1014B000480000132B3F3F3F00790AA2D5200314B8
:1014C000300509B910020404B9080104A2D52006A8
:1014D000025001042002689202B509005034C0E0B5
:1014E0007F203003197F30A20272067205500F125E
:1014F0001512C202C206C205C2087F30800F300535
:1015000003E9C0E0121260300503D0E0F9D0E0B585
:1015100009CC3005177F30B9100C1212607F58309B
:1015200004077F788003B908031212603002057F38
:101530002D0212607F202008F87F2B2006F32292D4
:101540000280CF286E756C6C2900D20112121D30FA
:1015500001F8C201780930D50108F60212CC2D50ED
:1015600043495812121D2403B405004001E49015AC
:101570005E93121251743A121251D2037509040289
:1015800013B190008EE4F0906004E0FF90008FEFC4
:10159000F0906000E0FFEF5480FF7E00EF64804E2B
:1015A00060030216A7906001E0FFEF120C8C160E8C
:1015B00001162B02166D0315BE06000017CC9060B5
:1015C00003E0FFEFB4211D122841900111E0FEA3BA
:1015D000E0FFEF4E70030217CC12369A90008EEFA8
:1015E000F00217CC906003E0FFEF64226003021763
:1015F000CC122606900111E0FEA3E0FFEF4E70032F
:101600000217CC12369A90008EEFF00217CC121D02
:10161000B6900111E0FEA3E0FFEF4E70030217CC7D
:1016200012369A90008EEFF00217CC90008FE0FFF8
:10163000EFC3940240030217CC906002E0FFEF601A
:10164000030217CC900111E4F0A37401F090008F15
:10165000E0FF74BE2FF9E43401FA7B01900113120C
:101660000C5712369A90008EEFF00217CC90008F34
:10167000E0FFEFC3940240030217CC900111E4F0A5
:10168000A37401F090008FE0FF74BA2FF9E43401E5
:10169000FA7B01900113120C5712369A90008EEFCC
:1016A000F00217CC0217CC906000E0FFEF5480FFEF
:1016B0007E00EF4E60030217CC906001E0FFEF1256
:1016C0000C8C16CF0916EC0A17980B000017CC12D9
:1016D0001DB6900111E0FEA3E0FFEF4E700302176C
:1016E000CC12390390008EEFF00217CC90008FE0FF
:1016F000FFEFC3940240030217CC906002E0FFEFBB
:1017000060030217CC906003E0FF90008FE0FE744E
:10171000BE2EF582E43401F583EFF090008FE0FFF8
:1017200074BC2FF582E43401F583E0FF90008FE074
:10173000FE74BE2EF582E43401F583E0FEEEC39F15
:10174000501390008FE0FF74BC2FF582E43401F554
:1017500083E4F0803990008FE0FF74BC2FF582E4C1
:101760003401F583E0FFEFD39401402290008FE035
:10177000FF74BE2FF582E43401F583E0FF90008F03
:10178000E0FE74BC2EF582E43401F583EFF0123FE5
:10179000D690008EEFF0803490008FE0FFEFC3947E
:1017A000025029906002E0FFEFD39401501E906038
:1017B00002E0FF90008FE0FE74BA2EF582E434015F
:1017C000F583EFF0123FD690008EEFF090008EE0A0
:1017D000FF22D2AF9044F474FDF07D007F00123EF2
:1017E000FF12404D7BFF7A35794E123BC6124108FD
:1017F000EF60FA1240CD124021EF60557B017A0074
:101800007902123DB7900000EEF0A3EFF0900000D7
:10181000E0FEA3E0FFEF4E6038124037EF60FA7B46
:10182000017A007902900000E0FCA3E0FD1236216D
:10183000900000E0FEA3E0FFEF64404E7013124002
:1018400037EF60FA7B007A0079007D007C00123669
:1018500021123ED5900056EFF0900056E0FFEF6069
:1018600095900056E0FFEF20E0030219551233A7D0
:10187000C004C005C006C00712411A7E0090006176
:10188000EEF0A3EFF0D007D006D005D00490005DB5
:10189000120C367B017A007942C003C002C0017B82
:1018A000FF7A35795F90005A120C57D001D002D0E0
:1018B000031212827D007F00123ACE7BFF7A3579C7
:1018C0006D123BC67D007F00123ACE7B017A007913
:1018D00042123BC612410EEF75F003A42497F58225
:1018E000E43401F583120C4EC003C002C001124162
:1018F00014EF75F003A42488F582E43401F5831213
:101900000C4E900060120C57D001D002D003900012
:101910005D120C577B017A007942C003C002C001FE
:101920007BFF7A35798290005A120C57D001D00291
:10193000D0031212827D007F01123ACE7BFF7A35EE
:10194000796D123BC67D007F01123ACE7B017A0091
:101950007942123BC6900056E0FFEF20E1030217E8
:10196000F61240FF900056EFF07B017A007942C0FA
:1019700003C002C0017BFF7A35799290005A120CA5
:1019800057900056E0FFEF5401FF7E00EF4E6008D5
:101990007BFF7A3579A080067BFF7A3579A39000AA
:1019A0005D120C57900056E0FFEF5402FF7E00EFEF
:1019B0004E60087BFF7A3579A080067BFF7A357907
:1019C000A3900060120C57D001D002D003121282F3
:1019D0007D007F01123ACE7BFF7A35796D123BC6CE
:1019E0007D007F01123ACE7B017A007942123BC61C
:1019F0000217F62290009A7401F090009BE4F09098
:101A0000009BE0FFEFC394804003021BE290009B29
:101A1000E0FF7E00EF2480FFEE3460FE8F828E8335
:101A2000740CF090009AE0FFEF75F00BA424B1F570
:101A300082E43400F583E0FFEF604F90009AE0FF0E
:101A4000EF75F00BA424B0F582E43400F583E0FFD9
:101A5000EF5480FF7E00EF4E601890009BE0FF7E09
:101A600000EF240EFFEE3460FE8F828E83740CF044
:101A7000802E90009BE0FF7E00EF240EFFEE34608E
:101A8000FE8F828E837408F0801690009BE0FF7EAC
:101A900000EF240EFFEE3460FE8F828E837480F0A0
:101AA00090009AE0FFEF75F00BA424B4F582E434C3
:101AB00000F583E0FEA3E0FFEEFF7E0090009BE0D8
:101AC000FEEEFD7C00ED240CFDEC3460FC8D828C80
:101AD00083EFF090009AE0FFEF75F00BA424B4F5CB
:101AE00082E43400F583E0FEA3E0FFEF54FFFF90B3
:101AF000009BE0FEEEFD7C00ED240DFDEC3460FC6F
:101B00008D828C83EFF090009AE0FFEF75F00BA4CC
:101B100024B2F582E43400F583E0FEA3E0FFEF5445
:101B2000FFFF90009BE0FEEEFD7C00ED2486FDECC7
:101B30003460FC8D828C83EFF090009AE0FFEF75AB
:101B4000F00BA424B2F582E43400F583E0FEA3E0B8
:101B5000FFEEFF7E0090009BE0FEEEFD7C00ED249A
:101B600087FDEC3460FC8D828C83EFF090009AE06E
:101B7000FFEF75F00BA424B2F582E43400F583E0A6
:101B8000FEA3E0FFEF54FFFF90009BE0FEEEFD7C24
:101B900000ED2484FDEC3460FC8D828C83EFF090AA
:101BA000009AE0FFEF75F00BA424B2F582E4340054
:101BB000F583E0FEA3E0FFEEFF7E0090009BE0FED9
:101BC000EEFD7C00ED2485FDEC3460FC8D828C8381
:101BD000EFF090009AE004F090009BE02410F002F7
:101BE00019FF90600A74FFF02290005CEFF0900003
:101BF0005D120C5790005CE0FFEFD394005003029D
:101C00001DB590005CE0FFEFC394094003021DB5D1
:101C100090005CE0FF7E00EF24FFFFEE34FFFEEF5C
:101C2000C4F8540FC868FFEEC454F048FE90006238
:101C3000EFF0900062E0FF7E00EF2488FFEE34605A
:101C4000FE900063EEF0A3EFF090005CE0FFEF7514
:101C5000F00BA424B2F582E43400F583E0FEA3E0A7
:101C6000FFC3E49FFF74029EFE900060E0FCA3E0CF
:101C7000FDD3ED9FEC9E402890005CE0FFEF75F0F7
:101C80000BA424B2F582E43400F583E0FEA3E0FF68
:101C9000C3E49FFF74029EFE900060EEF0A3EFF09D
:101CA000900060E0FEA3E0FFEEFF7E0090005CE0AD
:101CB000FEEE75F00BA424AFF582E43400F583E06A
:101CC000FEEF4EFF900062E0FEEEFD7C00ED240C86
:101CD000FDEC3460FC8D828C83EFF0900060E0FEC0
:101CE000A3E0FFEF54FFFF900062E0FEEEFD7C00FA
:101CF000ED240DFDEC3460FC8D828C83EFF07B00D5
:101D00007A007900C003C002C00190005D120C4E41
:101D1000D082D083D0E06B7008E965827003EA65F9
:101D2000836051900065E4F0A3E4F0900060E0FE71
:101D3000A3E0FF900065E0FCA3E0FDC3ED9FEC9EF7
:101D4000503290005D120C4E900065E0FEA3E0FF63
:101D5000E92FF9EA3EFA120A36FF900063E0FCA38D
:101D6000E0FD8D828C83EFF0900065E475F0011248
:101D70000A6180B790005CE0FFEF75F00BA424AD22
:101D8000F582E43400F583E4F090005CE0FFEF7549
:101D9000F00BA424B1F582E43400F583E0FF900059
:101DA00062E0FEEEFD7C00ED240EFDEC3460FC8D67
:101DB000828C83EFF022900111E4F0A3E4F0900014
:101DC000A7E0FFEF14FF1231F1900090EEF0A3EFC7
:101DD000F0906003E0FF900096EFF0906004E0FF69
:101DE000900095EFF0900095E0FF7E00EF2402FF59
:101DF000EE3400FEEF7802C333CE33CED8F9FF9035
:101E00000090E0FCA3E0FDEF2DFFEE3CFE90009083
:101E1000EEF0A3EFF0900090E0FEA3E0FF8F828E43
:101E200083A3120C60AE02AF01900090EEF0A3EF1E
:101E3000F0900095E0FFEFC394024003021F729000
:101E40000095E0FF740F2FF582E43401F583E0FF85
:101E50007E04EF8EF0A4FFAEF0900090E0FCA3E0D3
:101E6000FDEF2DFFEE3CFE900090EEF0A3EFF09022
:101E70000090E0FEA3E0FF8F828E83A3120C60AE81
:101E800002AF01900090EEF0A3EFF0900096E0FF1B
:101E9000EFC394015003021F72900096E0FFEFD34E
:101EA00094034003021F72900096E0FF7E00EF242F
:101EB000FFFFEE34FFFEEF7802C333CE33CED8F906
:101EC000FF900090E0FCA3E0FDEF2DFFEE3CFE90C4
:101ED0000090EEF0A3EFF0906002E0FF900096EF2C
:101EE000F0900090E0FEA3E0FF8F828E83E493FFEA
:101EF000900096E0FEEFC39E4078900090E0FEA335
:101F0000E0FF8F828E83A3120C60900092120C5718
:101F1000900096E0FF7E08EF8EF0A4FFAEF09000F8
:101F200092120C4EE92FF9EA3EFA900092120C57E9
:101F3000900092120C4EE92402F9EA3400FA120CD5
:101F40006C900113120C57900092120C4E120A77EB
:101F5000FFAEF0900111EEF0A3EFF0900092120CA2
:101F60004EE92405F9EA3400FA120C6C90011612BD
:101F70000C572290008EE4F0906004E0FFEF547F55
:101F8000FF90008CEFF090008CE0FF7E00EF24FFCC
:101F9000FFEE34FFFEEFC4F8540FC868FFEEC454E0
:101FA000F048FE90008DEFF090008CE0FFEFD394AE
:101FB0000050030220E190008CE0FFEFC394094041
:101FC000030220E190008CE0FFEF75F00BA424AE3B
:101FD000F582E43400F583E0FFEF54FEFFEFF0906C
:101FE000008CE0FFEF75F00BA424AFF582E4340021
:101FF000F583E4F090008DE0FF7E00EF240CFFEE0F
:102000003460FE8F828E83E0FFEF547FFFEFF0900D
:10201000008CE0FFEF75F00BA424ADF582E43400F2
:10202000F583E0FFEF54FDFFEFF090008CE0FFEF51
:1020300075F00BA424B0F582E43400F583E0FFEFE3
:102040005480FF7E00EF4E604990008CE0FFEF75FA
:10205000F00BA424ADF582E43400F583E0FFEFB487
:10206000011890008DE0FF7E00EF240EFFEE34603B
:10207000FE8F828E83740CF0805F90008DE0FF7E77
:1020800000EF240EFFEE3460FE8F828E83740DF01D
:10209000804790008CE0FFEF75F00BA424ADF58233
:1020A000E43400F583E0FFEFB4011890008DE0FF09
:1020B0007E00EF240EFFEE3460FE8F828E83740864
:1020C000F0801690008DE0FF7E00EF240EFFEE34CE
:1020D00060FE8F828E837409F0123FD690008EEFDF
:1020E000F090008EE0FF22C0E0C0F0C083C082C04C
:1020F00085C084C086758600C093759300C0D07576
:10210000D000C000C001C002C003C004C005C006AA
:10211000C007906028E0FF90007FEFF090007FE024
:10212000FFEF5410FF7E00EF4E7003022235900047
:10213000807401F090007FE0FFEF5480FF7E00EF9D
:102140004E603190007FE0FFEF540FFF7E00EF64A0
:10215000014E6007900080E4F0804612331E90002C
:10216000A8E0FFEF5480FF7E00EF4E6034900080C7
:10217000E4F0802D90007FE0FFEF5440FF7E00EF01
:102180004E6005123F75801990007FE0FFEF5420EC
:10219000FF7E00EF4E6005123E4E8005900080E409
:1021A000F0900080E0FFEF7003022235906028E09D
:1021B000FF90007FEFF090007FE0FFEF5480FF7E04
:1021C00000EF4E70709000ABE0FF9000A3E0FEEED9
:1021D0004FFF90007FEFF090007FE0FF906029EFCD
:1021E000F0906029E0FF90007FE0FEEE6F70469077
:1021F00000A8E0FF900080EFF0906028E0FFEF542F
:1022000080FF90007FEFF090007FE0FFEF7018906C
:1022100000A8E0FF906028EFF0906028E0FFEF5406
:102220000FFF900080EFF09000A8E0FF900080E0AA
:10223000FEEEB507BAD007D006D005D004D003D043
:1022400002D001D000D0D0D093D086D084D085D019
:1022500082D083D0F0D0E03290480074C0F0122CCD
:10226000187B007A4679E81240E7EF4405FD7B00D1
:102270007A4679E81240F3750A00E50AC3940850DB
:102280003AAF0AEF75F005A4243AF582E43443F539
:1022900083AF82AE838E088F09AE08AF098F828E1E
:1022A00083120C60AE08AF098F828E83740393FC97
:1022B000740493FD123FF0050A80BF7E427FDB125B
:1022C0003E207B017A5079031240E7EF4402FD7B08
:1022D000017A5079031240F37B017A50791312404E
:1022E000E7EF4402FD7B017A5079131240F39043EB
:1022F000A0E0FFEF4440FF9043A0EFF09043C2E026
:10230000FFEF4410FF9043C2EFF07C427DC17B00A1
:102310007A5179F07F0A7E00123F4F7C427DCB7B61
:10232000007A5179127F087E00123F4F7C427DD3A4
:102330007B007A5179227F087E00123F4F9044F44F
:102340007401F0904322E0FFEF4408FF904322EF36
:10235000F09046ECE0FFEFC3940550069046897478
:102360003AF07B017A5079077D401240F37B017A85
:102370005079177D401240F3123D817B007A4379FA
:10238000A0C003C002C0017B007A4379B090000571
:10239000120C57D001D002D0037F0E7E00123DEC0C
:1023A0009043B0E0FFEF54FDFFEFF022905120E0AA
:1023B000FFEF5480FFEFF0905122E0FFEF54F0FF69
:1023C00090005EEFF090005EE0FFEF440FFF905151
:1023D00022EFF0905123E0FFEF54F0FF90005EEF0A
:1023E000F090005EE0FF905123EFF0905124E0FF69
:1023F000EF54F0FF90005EEFF090005EE0FF905130
:1024000024EFF0905120E0FFEF54DFFFEFF0905108
:1024100020E0FFEF4440FFEFF07F007E00123E7CA3
:10242000905120E0FFEF4410FFEFF07F017E00129B
:102430003E7C905121E0FF90005EEFF0905120E053
:10244000FFEF54EFFFEFF07F007E00123E7C900024
:102450005EE0FFEF5408FF90005EEFF0905120E047
:10246000FFEF4410FFEFF07F017E00123E7C9051A1
:1024700020E0FFEF54EFFFEFF090005EE0FFEF7021
:1024800098905120E0FFEF54BFFFEFF0905120E013
:10249000FFEF5480FFEFF0905122E0FFEF54F0FF88
:1024A000EFF0905123E0FFEF54F0FF90005EEFF06B
:1024B00090005EE0FFEF440FFF905123EFF090514A
:1024C00024E0FFEF54F0FF90005EEFF090005EE03C
:1024D000FFEF440FFF905124EFF02290005AEFF0ED
:1024E00090005B120C5790005AE0FFEFD39400501D
:1024F000030225F590005AE0FFEFC3940940030260
:1025000025F57B007A007900C003C002C00190006D
:102510005B120C4ED082D083D0E06B7008E96582EC
:102520007003EA658370030225F590005AE0FF7E90
:1025300000EF24FFFFEE34FFFEEFC4F8540FC8682D
:10254000FFEEC454F048FE900060EFF0900060E0B1
:10255000FF7E00EF2488FFEE3460FE900061EEF015
:10256000A3EFF090005AE0FF122F4C900065EEF0C0
:10257000A3EFF0900065E0FEA3E0FF90005EE0FCBA
:10258000A3E0FDD3ED9FEC9E4010900065E0FEA31C
:10259000E0FF90005EEEF0A3EFF0900063E4F0A3A4
:1025A000E4F090005EE0FEA3E0FF900063E0FCA397
:1025B000E0FDC3ED9FEC9E5032900061E0FEA3E091
:1025C000FF8F828E83E0FF90005B120C4E900063C1
:1025D000E0FCA3E0FDE92DF9EA3CFAEF120A4F9086
:1025E0000063E475F001120A6180B790005AE0FFC1
:1025F0001234AE800890005EE4F0A3E4F090005E38
:10260000E0FEA3E0FF229000A7E0FFEF14FF1231ED
:10261000F1900090EEF0A3EFF0906004E0FF9000E6
:1026200095EFF0900095E0FF7E00EF2402FFEE347E
:1026300000FEEF7802C333CE33CED8F9FF9000907E
:10264000E0FCA3E0FDEF2DFFEE3CFE900090EEF0ED
:10265000A3EFF0900090E0FEA3E0FF8F828E83A3B3
:10266000120C60AE02AF01900090EEF0A3EFF0907C
:102670000095E0FF740F2FF582E43401F583E0FF4D
:102680007E04EF8EF0A4FFAEF0900090E0FCA3E09B
:10269000FDEF2DFFEE3CFE900090EEF0A3EFF090EA
:1026A0000090E0FEA3E0FF8F828E83A3120C60AE49
:1026B00002AF01900090EEF0A3EFF0900090E0FEEA
:1026C000A3E0FFEF240CFFEE3400FE900090EEF04C
:1026D000A3EFF0900090E0FEA3E0FF8F828E83A333
:1026E000120C60900092120C57900092120C4EE95E
:1026F0002401F9EA3400FA120A36FF7E00EF7F0067
:10270000FE900092120C4E120A36FD7C00EE4CFE3A
:10271000EF4DFF900111EEF0A3EFF0900092120C3C
:102720004EE92402F9EA3400FA900113120C572200
:10273000124062900059EFF09043A5E0FFEF440192
:10274000FFEFF09043B5E0FFEF4401FFEFF0906042
:102750009D7401F09060097402F0906010E0FFEF4A
:10276000547FFFEFF07F007E00123E7C904394E0A8
:10277000FFEF54F9FFEFF0906012E0FFEF54DFFF3E
:10278000EFF0904394E0FFEF4401FFEFF07F017E14
:1027900000123E7C7F287E00123E7C9051F8E0FFC4
:1027A000EF547FFFEFF09051F8E0FFEF54BFFFEFE1
:1027B000F0904394E0FFEF4402FFEFF07F027E00D1
:1027C000123E7C904394E0FFEF4404FFEFF09060F2
:1027D00084E4F0906085E4F0900059E0FF12400935
:1027E0007C3B7D257F1712342C7D077F17123962C1
:1027F0007C3C7DFF7F1512342C7D077F15123962DA
:102800007C207DE77F1812342C7D077F18123962F7
:102810007C377D067F0012342C7D077F00123962E1
:102820007C377D6D7F0112342C7D077F0112396268
:102830007C377DD47F0212342C7D077F02123962EF
:10284000229000A7E0FFEF14FF1231F1900090EE0C
:10285000F0A3EFF0906004E0FF900095EFF090009F
:1028600095E0FF7E00EF2402FFEE3400FEEF7802D9
:10287000C333CE33CED8F9FF900090E0FCA3E0FD47
:10288000EF2DFFEE3CFE900090EEF0A3EFF09000F5
:1028900090E0FEA3E0FF8F828E83A3120C60AE0255
:1028A000AF01900090EEF0A3EFF0900095E0FF7480
:1028B0000F2FF582E43401F583E0FF7E04EF8EF004
:1028C000A4FFAEF0900090E0FCA3E0FDEF2DFFEE42
:1028D0003CFE900090EEF0A3EFF0900090E0FEA39D
:1028E000E0FF8F828E83A3120C60AE02AF019000D6
:1028F00090EEF0A3EFF0900090E0FEA3E0FFEF2455
:1029000010FFEE3400FE900090EEF0A3EFF0900088
:1029100090E0FEA3E0FF8F828E83A3120C609000F4
:1029200092120C57900092120C4E120A36FF7E0043
:10293000900111EEF0A3EFF0900092120C4E900176
:1029400013120C572290008EE4F0906004E0FFEF29
:10295000547FFF90008CEFF090008CE0FF7E00EF42
:1029600024FFFFEE34FFFEEFC4F8540FC868FFEEFB
:10297000C454F048FE90008DEFF090008CE0FFEF23
:10298000D394005003022A3690008CE0FFEFC394EA
:10299000094003022A3690008CE0FFEF75F00BA48B
:1029A00024AEF582E43400F583E0FFEF4401FFEF4D
:1029B000F090008CE0FFEF75F00BA424AFF582E4FB
:1029C0003400F583E4F090008CE0FFEF75F00BA489
:1029D00024ADF582E43400F583E0FFEF4402FFEF1D
:1029E000F090008CE0FFEF75F00BA424B0F582E4CA
:1029F0003400F583E0FFEF5480FF7E00EF4E601857
:102A000090008DE0FF7E00EF240EFFEE3460FE8F1D
:102A1000828E83748DF0801690008DE0FF7E00EF33
:102A2000240EFFEE3460FE8F828E837489F0123F95
:102A3000D690008EEFF090008EE0FF2290008C1276
:102A40000C57900090E4F07B007A007900C003C03E
:102A500002C00190008C120C4ED082D083D0E06B6B
:102A60007008E965827003EA65837003022B2D907C
:102A7000008C120C4E7422120A4F90008C120C4ED5
:102A8000E92401F9EA3400FA7403120A4F90008F26
:102A90007402F090008FE0FFEFC394224003022BFA
:102AA0002D900090E0FFE4FCFDFEEF2400FFEE34EB
:102AB00001FEED340CFDEC3400FCA907AA06AB05C1
:102AC0001240E7900091EFF0900090E004F0900049
:102AD00091E0FFEFC4540FFFEF90436293FF90002B
:102AE0008C120C4E90008FE0FEE92EF9E43AFAEFDA
:102AF000120A4F900091E0FFEF540FFFEF904362F6
:102B000093FF90008FE0FEEEFD7C00ED2402FDECD3
:102B10003400FC90008C120C4EE92DF9EA3CFAEFDF
:102B2000120A4F90008FE02404F0022A932275933A
:102B30000078007583467582E8E04401F000904615
:102B4000ECE0F99046FAE0FAB903225420B40012FE
:102B5000B8001AEA901FFFF07401901FFEF0904633
:102B6000F6F0901FFEE06005901FFFE0FA9048002D
:102B700074C0F075812190000078007920E4F0A302
:102B8000D8FCD9FAEA9001A9F0020011750D1F7561
:102B90000EFD122258022BD30217D2E493A3F8E4BD
:102BA00093A34003F68001F208DFF48029E493A3A5
:102BB000F85407240CC8C333C4540F4420C88340BE
:102BC00004F456800146F6DFE4800B01020408108D
:102BD000204080903A76E47E019360BCA3FF543F8E
:102BE00030E509541FFEE493A360010ECF54C025C5
:102BF000E060A840B8E493A3FAE493A3F8E493A3B5
:102C0000C8C582C8CAC583CAF0A3C8C582C8CAC518
:102C100083CADFE9DEE780BE9043007406F090428D
:102C2000007452F07B0C7A01790F1240E79046A1B4
:102C3000EFF07B007A4279227D187C081240BE7B3F
:102C4000007A4279207D517C121240BE900004E44B
:102C5000F07F197E007D007C00900000120C369001
:102C60000000120C1ED3EF9400EE9400404E900032
:102C700004E0FFEF64036044904225E0FFEF54015D
:102C8000FF7E00900004E0FEEE25E0FEEE4FFFEF39
:102C90005403FF900004EFF07FE07E017D007C0094
:102CA000123D00900000120C1E7BFF7AFF79FF7826
:102CB000FF120AC1900000120C3680A3900000128F
:102CC0000C1EEF4E70057F0312408C7B007A40791A
:102CD000047D007C011240BE9040047407F09040D7
:102CE00006E4F09040087448F0904004E4F090400E
:102CF00009E4F09040017402F022900092E4F09018
:102D0000011AE0FF7E009000A9EE8FF0120A619098
:102D10000111E0FEA3E0FFD3EF9400EE94004053D6
:102D2000900092E0FFEFC394085048900113120CFA
:102D30004E120A36FF900092E0FEEEFD7C00ED247C
:102D400000FDEC3460FC8D828C83EFF09001131257
:102D50000C4EE92401F9EA3400FA900113120C57E1
:102D6000900092E004F090011174FF75F0FF120AD8
:102D700061809C90011AE0FFEF6408600B90009264
:102D8000E0FFEFD39400401C9000A3E0FFEF6480CD
:102D9000FF9000A3EFF09000A8740FF09000A474CF
:102DA00002F0800C9000A87402F09000A47402F06D
:102DB000900092E0FF90011AEFF0900092E0FF90F7
:102DC00000ABEFF022900059EFF090005AEDF09038
:102DD000005BE4F090005BE0FFEFC39402501A90B8
:102DE000005BE0FF74BA2FF582E43401F5837401CF
:102DF000F090005BE004F080DB9044C27480F090BF
:102E000044C37401F09044C07401F09044C0740253
:102E1000F09044C07404F09000A4E4F090005AE0F4
:102E2000FFEF120C8C2E2F002E370100002E3F904A
:102E300060097402F0800E9060097403F0800690BF
:102E400060097402F0900059E0FF9000A5EFF09047
:102E500000A7E4F0900119E4F090011DE4F0900166
:102E600020E4F09000A6E4F090011AE4F0906028CD
:102E70007403F09060087480F07F017E007D007C18
:102E800000123D009060127404F02290008EE4F075
:102E9000906000E0FFEF5480FF7E00EF64804E7092
:102EA00031906001E0FFEF120C8C2EB12100002F59
:102EB00046900111E4F0A37407F07B017A0179B028
:102EC000900113120C5712369A90008EEFF0807614
:102ED0008074906000E0FFEF5480FF7E00EF4E7042
:102EE00065906001E0FFEF120C8C2EF4202F212260
:102EF00000002F46900111E4F0A37407F07B017AE3
:102F00000179B0900113120C579001B9E0FFEF4422
:102F100001FF9001B9EFF012390390008EEFF080BD
:102F200025906002E0FF7E009001AEEEF0A3EFF08E
:102F30009001B9E0FFEF4402FF9001B9EFF0123FBA
:102F4000D690008EEFF090008EE0FF22900067EFA9
:102F5000F0900069E4F0A3E4F0900067E0FFEFD3A5
:102F600094005003022FF8900067E0FFEFC394092C
:102F70004003022FF8900067E0FF7E00EF24FFFF80
:102F8000EE34FFFEEFC4F8540FC868FFEEC454F0EF
:102F900048FE900068EFF0900068E0FF7E00EF24AC
:102FA0000CFFEE3460FE8F828E83E0FFEF540FFF44
:102FB0007E00900069EEF0A3EFF0900068E0FF7EE5
:102FC00000EF240DFFEE3460FE8F828E83E0FFEF72
:102FD000FD7C00900069E0FEA3E0FFEF7F00FEEEC5
:102FE0004CFEEF4DFF900069EEF0A3EFF09000690A
:102FF00074FF75F0FE120A61900069E0FEA3E0FF25
:1030000022900082E4F0906029E0FFEF540FFFEF80
:1030100024FEFF900081EFF0900081E0FF7E0090A1
:1030200000A9EE8FF0120A61900111E0FEA3E0FF0B
:10303000D3EF9400EE94004057900081E0FFEFD36F
:103040009400404C900082E0FF7E00EF2400FFEEF1
:103050003460FE8F828E83E0FF900113120C4EEFDE
:10306000120A4F900113120C4EE92401F9EA3400C0
:10307000FA900113120C57900082E004F090008146
:10308000E014F090011174FF75F0FF120A6180984E
:10309000900081E0FF9000ABEFF09000A3E0FFEF25
:1030A0006480FF9000A3EFF09000A8740BF02290D2
:1030B000008C7401F0906004E0FF90008DEFF090C0
:1030C00000A7E0FFEF14FF1231F190008EEEF0A3A5
:1030D000EFF090008EE0FEA3E0FF8F828E83A312BC
:1030E0000C60E92404F9EA3400FA120A36FF900071
:1030F00090EFF0900090E0FF90008DE0FEEEC39F17
:10310000500B90008DE0FFEFC39402400790008CBD
:10311000E4F0803890008DE0FF740F2FF582E434E6
:1031200001F583E0FF90008DE0FE741E2EF582E431
:103130003401F583EFF0906002E0FF90008DE0FE37
:10314000740F2EF582E43401F583EFF090008CE0EB
:10315000FF229000A7E0FFEF14FF1231F190009AD8
:10316000EEF0A3EFF090009AE0FEA3E0FFEF4E60D8
:103170006F90009AE0FEA3E0FF8F828E83A3120C73
:1031800060E92404F9EA3400FA120A36FF90009E3E
:10319000EFF090009EE0FF7E00EF2402FFEE34008F
:1031A000FEEF7802C333CE33CED8F9FF90009AE019
:1031B000FCA3E0FDEF2DFFEE3CFE90009AEEF0A3A5
:1031C000EFF090009AE0FEA3E0FF8F828E83A312BF
:1031D0000C60AE02AF0190009CEEF0A3EFF080080F
:1031E00090009CE4F0A3E4F090009CE0FEA3E0FFDC
:1031F0002290009FEFF09000A5E0FFEF25E025E092
:103200002484F582E43442F583120C60AE02AF01EF
:103210009000A0EEF0A3EFF09000A0E0FEA3E0FF8E
:10322000EF2404FFEE3400FE9000A0EEF0A3EFF0D8
:103230009000A0E0FEA3E0FF8F828E83E493FF90D6
:10324000009FE0FEEEC39F400A9000A0E4F0A3E4DC
:10325000F080309000A0E0FEA3E0FF8F828E83C05C
:1032600083C08290009FE0FFD082D08375F004EF8E
:10327000120C42A3120C60AE02AF019000A0EEF05F
:10328000A3EFF09000A0E0FEA3E0FF2290008CE40A
:10329000F090008DE4F0906000E0FFEF5403FFEF4A
:1032A000120C8C32AD0132B902000032D7906004AA
:1032B000E0FF90008DEFF0801E906004E0FFEF547F
:1032C0007FFFEF75F00BA424B6F582E43400F5839C
:1032D000E0FF90008DEFF090008DE0FF90011BE08B
:1032E000FCA3E0FD8D828C83E5822FF582E435839B
:1032F000F583E493FFEF120C8C3318013310023383
:1033000006030000331812158290008CEFF080083D
:10331000122E8B90008CEFF090008CE0FF229060DA
:1033200028E0FF900081EFF0900081E0FF9060289E
:10333000EFF0906028E0FF900081EFF0900081E0D6
:10334000FFEF5480FF7E00EF4E600B900081E0FFA6
:103350009000A8EFF0227F021238A1906000E0FFF9
:10336000EF5460FFEF120C8C337500337F203389EC
:103370004000003393120544900081EFF080191251
:10338000328C900081EFF0800F123B76900081EF3D
:10339000F08005900081E4F0900081E0FFEF70067E
:1033A0009000A87403F0229001B3E0FFE4FCFDFE5E
:1033B000900057120C36900057120C1E7808120C11
:1033C0000BA804A905AA06AB079001B2E0FFE4FC34
:1033D000FDFE120BEB900057120C36900057120CAA
:1033E0001E7808120C0BA804A905AA06AB079001C9
:1033F000B1E0FFE4FCFDFE120BEB900057120C361F
:10340000900057120C1E7808120C0BA804A905AAEC
:1034100006AB079001B0E0FFE4FCFDFE120BEB9061
:103420000057120C36900057120C1E2290005AEFD3
:10343000F090005BECF0A3EDF090005AE0FFEFD3CA
:10344000941F5003D38001C340057F001240779042
:10345000005AE0FFEF541FFF7E00EF25E0FFEE3340
:10346000FEEF2400FFEE3444FEAA06A9077B0112FA
:1034700040B190005DEEF0A3EFF090005AE0FF7EC7
:1034800002EF8EF0A4FFAEF0EF2400FFEE3444FE16
:10349000AA06A9077B0190005BE0FEA3E0FFAD0751
:1034A000AC061240C090005DE0FEA3E0FF22900059
:1034B00067EFF0900067E0FFEFD39400406E90005C
:1034C00067E0FFEFC394095063900067E0FF7E0060
:1034D000EF24FFFFEE34FFFEEFC4F8540FC868FF7F
:1034E000EEC454F048FE900068EFF0900067E0FFF3
:1034F000EF75F00BA424ADF582E43400F583E4F01D
:10350000900067E0FFEF75F00BA424B1F582E4347E
:1035100000F583E0FF900068E0FEEEFD7C00ED2406
:103520000EFDEC3460FC8D828C83EFF0224E6F6ECA
:1035300065004F6464004576656E004D61726B00F6
:103540005370616365003100312E350032005553F0
:10355000422D55415254206578616D706C65004272
:10356000523A25346C642C44423A256400202020D1
:10357000202020202020202020202020202020204B
:10358000200053423A25732C5061726974793A25B0
:1035900073004454523A25732C5254533A25730005
:1035A0004F4E004F4646007F287E007D007C001273
:1035B000383B7F03123C617F057E007D007C00125A
:1035C000383B7F03123C617F0F7E007D007C001240
:1035D000383B7F03123C617F017E007D007C00123E
:1035E000383B7F02123C617F057E007D007C00122B
:1035F000383B7F06123D4B7F0E123D4B7F2C123D18
:103600004B7F08123D4B7F01123D4B7F0C123D4B0F
:103610007F03123D4B7F057E007D007C0012383B0E
:1036200022900057120C5790005AECF0A3EDF09046
:1036300001B7E0FFEF75F00BA424B4F582E4340089
:10364000F583E0FEA3E0FF90005AE0FCA3E0FDD389
:10365000ED9FEC9E40259001B7E0FFEF75F00BA4C5
:1036600024B4F582E43400F583E0FEA3E0FF90008B
:103670005AEEF0A3EFF07F001240779001B7E0FF21
:10368000900057120C4E90005AE0FCA3E0FD900011
:1036900060ECF0A3EDF0121BE922900111E0FEA313
:1036A000E0FFEF4E7005123CE080589000A47402D9
:1036B000F09000A3E4F0123C14906007E0FF7E005D
:1036C000EF7F00FE906006E0FD7C00EE4CFEEF4DCB
:1036D000FF900090EEF0A3EFF0900090E0FEA3E0EA
:1036E000FF900111E0FCA3E0FDD3ED9FEC9E4010A4
:1036F000900090E0FEA3E0FF900111EEF0A3EFF048
:10370000122CFA7F0122C0E0C083C082C085C08431
:10371000C086758600C093759300C0D075D000C078
:1037200006C00790600EE0FF9000B7E0FFEF540383
:10373000FF7E00EF64014E600E9000BAE0FFEF6480
:1037400080FF9000BAEFF09000B87401F090600B29
:10375000E0FFEF54FEFFEFF0D007D006D0D0D093BB
:10376000D086D084D085D082D083D0E032C0E0C073
:1037700083C082C085C084C086758600C09375935F
:1037800000C0D075D000C006C00790601EE0FF905A
:1037900000C2E0FFEF5403FF7E00EF64014E600EB5
:1037A0009000C5E0FFEF6480FF9000C5EFF090004F
:1037B000C37401F090600BE0FFEF54FDFFEFF0D019
:1037C00007D006D0D0D093D086D084D085D082D0F8
:1037D00083D0E032C0E0C083C082C085C084C08690
:1037E000758600C093759300C0D075D000C006C028
:1037F0000790602EE0FF9000CDE0FFEF5403FF7EC6
:1038000000EF64014E600E9000D0E0FFEF6480FF97
:103810009000D0EFF09000CE7401F090600BE0FFCC
:10382000EF54FBFFEFF0D007D006D0D0D093D08676
:10383000D084D085D082D083D0E03290FFFC120CAF
:10384000B2120C36850D83850E82120C1ED3EF94B6
:1038500000EE9480402F9001AA120C1E123D0085AC
:103860000D83850E82C083C082120C1EEF2400FFE0
:10387000EE3480FEED34FFFDEC34FFFCD082D083CB
:10388000120C3680BF9001A0120C1E850D83850E90
:1038900082120C2A120ACE123D00900004120CB2C1
:1038A00022900082EFF07B007A007900C003C00212
:1038B000C001900116120C4ED082D083D0E06B7004
:1038C00008E965827003EA65836037900082E0FF53
:1038D000900116120C4EEF120A4F9000A9E0FEA3C1
:1038E000E0FF900116120C4EE92401F9EA3400FAC7
:1038F000EE8FF0120AA27B007A0079009001161276
:103900000C57229000A47404F09000A37480F0126D
:103910003C14906007E0FF7E00EF7F00FE906006A1
:10392000E0FD7C00EE4CFEEF4DFF900090EEF0A32A
:10393000EFF0900090E0FEA3E0FF900111E0FCA307
:10394000E0FDD3ED9FEC9E4010900090E0FEA3E0E0
:10395000FF900111EEF0A3EFF09000A8740BF07F40
:10396000012290005AEFF090005BEDF090005BE0D8
:10397000FFEFD394075003D38001C340057F0012AB
:10398000407790005AE0FFEFD3941F5003D380019B
:10399000C340057F0012407790005BE0FFEF5407C3
:1039A000FF7E00EF75F020A4FFAEF090005AE0FE1D
:1039B000EE541FFE74802EF582E43444F583EFF05C
:1039C0002290005EEFF0905120E0FFEF4420FFEFE7
:1039D000F0905120E0FFEF54BFFFEFF07F007E003A
:1039E000123E7C905120E0FFEF54F0FFEFF0905139
:1039F00020C083C082E0FF90005EE0FEEE4410FE37
:103A0000EF4EFFD082D083EFF07F017E00123E7C2C
:103A1000905120E0FFEF54EFFFEFF0229000A2E47E
:103A2000F09000A2E0FFEFC39402501A9000A2E0D1
:103A3000FF74BA2FF582E43401F5837401F090002D
:103A4000A2E004F080DB9000A4E4F09000A7E4F092
:103A5000900119E4F090011DE4F0900120E4F09051
:103A600000A6E4F090011AE4F09060287403F0904E
:103A700060087480F0224F0188FF352DFF3532FF3A
:103A80003536FF353BFF3540490197FF3546FF3559
:103A900048FF354C4101C9004701B000C201000098
:103AA00000084101C6004101C5004401A503D090B2
:103AB000004401A00000FA004101A4404401AA7D95
:103AC0000000004301C00000004101CA0000900056
:103AD00057EFF0900058EDF0900057E0FFEF120C18
:103AE0008C3AF1003AFE013B0B023B180300003B0D
:103AF00024900058E0FFEF2480FF123D4B229000FD
:103B000058E0FFEF24C0FF123D4B22900058E0FF29
:103B1000EF2494FF123D4B22900058E0FFEF24D495
:103B2000FF123D4B22C0E0C0F0C083C082C085C000
:103B300084C086758600C093759300C0D075D00090
:103B4000C000C001C002C003C004C005C006C00759
:103B5000123A1CD007D006D005D004D003D002D032
:103B600001D000D0D0D093D086D084D085D082D060
:103B700083D0F0D0E032900082E4F0906000E0FF6B
:103B8000EF5480FF7E00EF64804E7034906001E05F
:103B9000FFEF120C8C3B9C0100003BC07BFF7A4284
:103BA0007999900113120C57904299E493FF7E008B
:103BB000900111EEF0A3EFF012369A900082EFF030
:103BC000900082E0FF22900057120C5790005A7428
:103BD00001F0900057120C4E120A36FF90005BEF76
:103BE000F090005BE0FFEF602A90005BE0FF123C8A
:103BF000AA900057120C4E90005AE0FFE92FF9E40A
:103C00003AFA120A36FF90005BEFF090005AE00497
:103C1000F080CE229000A9E4F0A3E4F07B007A00CB
:103C20007900C003C002C001900116120C4ED08270
:103C3000D083D0E06B7008E965827003EA65836029
:103C40001F900116120C4EE4120A4F900116120C2E
:103C50004EE92401F9EA3400FAE475F000120AA2F0
:103C60002290005BEFF0905120E0FFEF549FFFEFB8
:103C7000F0905120E0FFEF54F0FFEFF0905120C0A2
:103C800083C082E0FF90005BE0FEEE4410FEEF4E4A
:103C9000FFD082D083EFF07F017E00123E7C9051F6
:103CA00020E0FFEF54EFFFEFF02290005CEFF01206
:103CB00023AC90005CE0FFEFC4540FFF90005DEF79
:103CC000F090005DE0FF1239C190005CE0FFEF541E
:103CD0000FFF90005DEFF090005DE0FF1239C12210
:103CE0009000A47402F09000A37480F09000A87477
:103CF0000FF090011AE4F09000ABE4F07F01223263
:103D0000EC4D4E700D78FCEF24E950032840FD2265
:103D1000000078C5904800E0C403035403903D4779
:103D20009325E0240FF404FBEF28FF78FFEE38FE24
:103D3000ED38FDEC38FC50D7EF2BFFEE38FEED38B8
:103D4000FDEC38FC40F22205020304900059EFF02C
:103D50001223AC900059E0FFEFC4540FFF90005ABB
:103D6000EFF090005AE0FF123C61900059E0FFEF45
:103D7000540FFF90005AEFF090005AE0FF123C61A0
:103D8000227B0C7A0179CF1240E7900000EFF0908F
:103D90000000E0FFEF5407FF90586EEFF090000036
:103DA000E0FFEFC4540FFFEF540FFF90586FEFF098
:103DB0009058767444F022900057120C579001B836
:103DC000E0FF900057120C4E9001B8E0FEEE75F047
:103DD0000BA424B4F582E43400F583E0FCA3E0FDF9
:103DE00090005EECF0A3EDF01224DB22758600EF6C
:103DF0004E6027EF60010E759300900005E0F59589
:103E0000A3E0F585A3E0F5848B938A838982E0A300
:103E10000586F0A31586DFF6DEF4E4F593F595222A
:103E2000ACEAADA08E838F82E493F9601CA3E49387
:103E3000F5EAA3E493F5A0A3E49360F1FAA3E49375
:103E4000F8A3E493F2DAF6D9E48DA08CEA2290008C
:103E5000A4E0FFEF120C8C3E7A003E67023E6B043A
:103E60003E6F0600003E7A123F9A22123001227FF6
:0B3E7000031238A19000A87403F02298
:103E7C00EEFA9001A4E0F88FF0A4FFAEF0E88AF01F
:103E8C00A42EFEE5F03400FDEF24C9FF78FFEE38D8
:103E9C00FEED38FDE438FC5003023D002290012079
:103EAC00E0FFEF6013900120E0FFEF4480FF906093
:103EBC0008EFF0900120E4F09000A4E4F07F0112F0
:103ECC0038A19000A87403F022900057E4F0900001
:103EDC00A4E0FFEF70179001B9E0FFEF600F9001C5
:103EEC00B9E0FF900057EFF09001B9E4F090005763
:103EFC00E0FF22900057EFF0900058EDF09001C9D0
:103F0C00E0FFEF70091227309001C97401F09000A6
:103F1C0057E0FF900058E0FD122DC522EFB40A07C0
:103F2C00740D123F33740A309811A899B8130CC24F
:103F3C00983098FDA899C298B811F63099FDC2999D
:103F4C00F59922758600EF4E601BEF60010E8C8395
:103F5C008D828B958A858984E493A30586F0A315BD
:103F6C0086DFF5DEF3E4F595229000A4E0FFEF1276
:103F7C000C8C3F99003F8E023F92043F9606000046
:103F8C003F991241202212409E22123EA9229001FA
:103F9C001AE0FF7E009000A9EE8FF0120A619000EB
:103FAC00A4E4F07F011238A19000A87403F02290D1
:103FBC0000A5E0FFEF25E025E02484F582E43442FF
:103FCC00F583120C60AE02AF01229000A47406F0CF
:103FDC009000A87406F09000A37480F09000ABE4FD
:103FEC00F07F0122EC4D6011ED60010C8B938A8304
:103FFC008982E4F0A3DDFCDCFA75930022EF540116
:10400C006004D2AF8002C2AFEF5402FF9044F4E0E0
:10401C0054FD4FF0229001B8E0FFEF75F00BA42493
:10402C00ADF582E43400F583E0FF229001B7E0FFA8
:10403C00EF75F00BA424ADF582E43400F583E0FFBA
:10404C00229001C5E0FFEF70091235A79001C574ED
:10405C0001F01240DB229044F4E0F84402F0E85402
:10406C0002FF10AF012274014FFF2290FFFF120CD0
:10407C00B2EFF09046EA7401F0900001120CB222FB
:10408C00900005EFF0900005E0FF900005EFF08048
:10409C00FE229000A4E4F07F011238A19000A874D5
:1040AC0003F0228B938A838982E0FFA3E0FE759351
:1040BC0000228B938A838982EDF0A3ECF075930038
:1040CC00229001B9E4F09001B8E0FF1234AE227FE7
:1040DC000C123D4B9001C67401F0228B938A83899C
:1040EC0082E0759300FF228B938A838982EDF075B1
:1040FC009300229001AEE0FEA3E0FF229000A7E027
:10410C00FF229001B4E0FF229001B5E0FF22900164
:10411C00B6E0FF22122CFA22120100020200000863
:10412C00B40432F2010001048001090243000201CF
:10413C0001C0320904000001020200020524001033
:10414C0001042402020524060001052401000107D4
:10415C0005810308000A09040100020A0000030794
:10416C0005820240000A0705030240000A04030905
:10417C00042C034300790070007200650073007317
:10418C00002000530065006D00690063006F006E35
:10419C000064007500630074006F00720038034304
:1041AC000044004300200043006F006D006D00755B
:1041BC00006E00690063006100740069006F006E9E
:1041CC0000200049006E00740065007200660061FA
:1041DC0000630065002603430044004300200044B4
:1041EC0000610074006100200049006E00740065DD
:1041FC0000720066006100630065001003550053F7
:10420C0000420055004100520054000002033200ED
:10421C0005010902A1010901A100050919012903E0
:10422C001500250195037501810295017505810124
:10423C000501093009311581257F75089502810624
:10424C00C0C00000000081030008020100820200CF
:10425C00400A0100030200400A020A01FF41360332
:10426C00FF4250000000000000000000FF4265010A
:10427C00FF412401FF426701FF427B12034D0053B3
:10428C0000460054003100300030000100280000CE
:10429C0000000104000100000000000000000143C8
:1042AC0059555342000000303030303100000000CE
:1042BC0000000000000000000000000000C0000032
:1042CC0004000000000000007F7F00000000000CD4
:1042DC000045017E020052017C40011702EA02EE09
:1042EC000A011902EA02EE0A01400333813640CC7E
:1042FC00700141039F01A640A7800142039F01A6C4
:10430C0040A7800143039F01A640A78001470408F2
:10431C00080B040F40C20E014804AE40AF81EA40C6
:10432C00EE50014C02AC08AF44015101002A00517F
:10433C0000001000513000400051C000100100007E
:10434C00100001140008000140000A00014C00029A
:10435C0000015000002030313233343536373839D3
:06436C00414243444546B6
:00000001FF
