:400000000040002011000000A5070000A507000080B500AF00F0CAFB80B500AF1F4B12221A6000F023FE012000F030FE182000F0E7FC1B4B1B4A1A601B4B1B4A126802215A
:400040000A431A60194B1A4A1A601A4B194A126808218A431A60FA23DB00181C00F0C0FD154B181C00F002FF144B802252001A60134B144A1A60144B802212061A60134B73
:4000800040221A60124B40221A60124B00221A60024B11221A60BD4680BDC0463000104004010B400600008078002E407C002E402D3E00006CF02E40DC0500000003014072
:4000C0000000014040FF008008010B402C010140080101400C020B4080B582B000AF72B6404B00221A60FB1D00221A7023E0FB1D1A78131C5B009B185B003B4A9B183B605A
:400100003B681A78597809020A43997809040A43DB781B061343191C3B681A795B791B0213439BB2081C191C00F0C4FBFB1D1A78FB1D01321A70FB1D1B78012BD7D92B4AAA
:400140002B4B101C191C00F0C5FB2A4B802252001A80294B01221A70284B294A1A60294BC02292031A60284B992212041A60274B274A1A60274B802292041A60264B8022BD
:40018000D2041A60254A254B1B78DBB202210B43DBB21370224A224B1B78DBB23C218B43DBB214210B43DBB213701C4A1B4B1B78DBB216210B43DBB213701A4B03221A60A6
:4001C000194B1A4A1A601A4B20221A60194BC42292021A60FFF720FF00F0BCFBBD4602B080BDC0466CF02E40CC1A0000D81A0000F41A000000600F4002600F40000002403E
:40020000EE0000EE0001024000500F4010500F400400990014500F4018500F4000700F4001700F4000000440080004402400D800000104400801044010B5064C2378002BD0
:4002400007D1054B002B02D0044800E000BF0123237010BDE800002000000000C81A000008B5084B002B03D00748084900E000BF07480368002B00D108BD064B002BFBD0F1
:400280009847F9E700000000C81A0000EC000020C80000200000000090B585B000AF041C081C111C3B60FB1D221C1A70BB1D021C1A707B1D0A1C1A700F23FB1800221A70DB
:4002C000FB1D1B78181C002100F08CFEBB1D1B78181C00F0F1FFFB1D1B78181C012100F009FF08E03C68631C3B60002001F04AF8031CDBB223700F23FB181B780F22BA18F9
:40030000591C11701A1C7B1D1B78013B9A42E9DB012001F037F8031CDAB23B681A7000F06DFFBD4605B090BD80B582B000AF3A60FB1D021C1A70BB1D0A1C1A70FB1D19786F
:40034000BB1D1A783B68081C111C0122FFF7A4FFBD4602B080BDC04690B585B000AF041C081C111C3B60FB1D221C1A70BB1D021C1A707B1D0A1C1A700F23FB1800221A709D
:40038000FB1D1B78181C002100F02CFEBB1D1B78181C00F091FF06E03B685A1C3A601B78181C00F089FF0F23FB181B780F22BA18591C11707A1D12789A42EDD800F01EFF8C
:4003C000BD4605B090BDC04690B583B000AF041C081C111CFB1D221C1A70BB1D021C1A707B1D0A1C1A70FB1D1978BB1D1A787B1D081C111C0122FFF7AFFFBD4603B090BDEC
:40040000B0B584B000AF051C0C1C101C191CFB1D2A1C1A70BB1D221C1A707B1D021C1A703B1D0A1C1A703B1D1B7801229A40131C5A1E7B1D19783B1D1B78CB1A01339A4064
:400440000F23FB181A70FB1D1978BB1D1A780E23FB18081C111C1A1CFFF766FF2023FB181A787B1D19783B1D1B78CB1A01339A402023FB181A702023F9182023FB180F22CA
:40048000BA181B78127813400B700F23FB181B78DB43D9B20E23FB181B78DAB20B1C1340DBB2DAB20E23FB181A700E23FB181A782023FB181B781343DAB20E23FB181A70CB
:4004C0000E23FB181A78FB1D1978BB1D1B78081C191CFFF779FFBD4604B0B0BDB0B584B000AF051C0C1C101C191CFB1D2A1C1A70BB1D221C1A707B1D021C1A703B1D0A1CEF
:400500001A70FB1D1978BB1D1A780F23FB18081C111C1A1CFFF708FF3B1D1B78002B0DD07B1D1B7801229A40131CDAB20F23FB181B78DBB21343DBB2DBB20FE07B1D1B7890
:4005400001229A40131CDBB2DB43D9B20F23FB181B78DAB20B1C1340DBB2DBB20F22BA1813700F23FB181A78FB1D1978BB1D1B78081C191CFFF728FFBD4604B0B0BDC04610
:4005800090B583B002AF62B61A4A1B4B111C1A1C0523081C111C1A1C01F084FA154B00221A72144B00221A73124B00221A74114B00221A750F4B00221A760A2000F032FC25
:4005C00000F07EFC00F04CFF00F024F800F02CF80A480B490B4A0C4C0C4B00930C4B0193231C00F05DF8034B181C1C2100F0B0FFEEE7C04628010020CC0000202E010020CD
:4006000032010020360100203A0100203E0100204201002080B500AF024B68221A70BD4680BDC0464401002080B500AF012000F0A3F8002000F008F8002000F01BF8002020
:4006400000F086F8BD4680BD80B584B002AF021CFB1D1A70064B1A78FB1D1B780093101C1B2104220223FFF7CBFEBD4602B080BD4401002080B584B002AF021CFB1D1A702E
:40068000064B1A78FB1D1B780093101C1C2104220223FFF7B5FEBD4602B080BD4401002080B584B000AFF860B9607A603B60264B1A78264B101C3B210E22FFF7EDFD234BED
:4006C0001B781B029AB2214B5B789BB213439AB2FB681A801D4B9B781B029AB21B4BDB789BB213439AB2BB681A80184B1B791B029AB2164B5B799BB213439AB27B681A8089
:40070000124B1B7A1B029AB2104B5B7A9BB213439AB23B681A800D4B9B7A1B029AB20B4BDB7A9BB213439AB2BB691A80074B1B7B1B029AB2054B5B7B9BB213439AB2FB690A
:400740001A80BD4604B080BD440100201001002080B582B000AF021CFB1D1A70054B1A78FB1D1B78101C6B210622FFF7B7FEBD4602B080BD4401002080B584B002AF021CD8
:40078000FB1D1A70064B1A78FB1D1B780093101C6B2102220323FFF733FEBD4602B080BD4401002080B500AFFEE7C04680B586B000AF224B7B61224B3B61204B7B6135E05F
:4007C0003B691B68FB603B695B68BB603B699B683B6000237B600CE0FB681A68BB681A60BB680433BB60FB680433FB607B6804337B607A683B689A42EED13B69DB683B6046
:4008000000237B6008E0BB6800221A60BB680433BB607B6804337B607A683B689A42F2D13B6910333B617B69013B7B617B69002BC6D101F011F9FFF7A3FEFEE701000000E8
:40084000C01D000080B582B000AF154B144A126801218A431A6000237B600FE07B68032B04D8104B7A689200D35800E00E4B0F4A796889008B507B6801337B607B682F2B0A
:40088000ECD9FFF729FC0A4B00221A60044B044A126801210A431A60BD4602B080BDC0460000104000000000A507000000000020C000002080B582B000AF786039607A680A
:4008C0003B68101C00211A1C01F0F5F8BD4602B080BDC04680B586B000AF7860396000233B6100237B612FE07B699B007A68D3181B68BB600F23FB18BA681A70BB68FF2285
:400900009343BB6018E03B695B003A68D3181B781A1CBB68D318191C3B695B003A68D3185B780B703B6901333B610F23FB181A780F23FB18013A1A700F23FB181B78002B04
:40094000E1D17B6901337B617B69062BCCD9BD4606B080BD80B500AF054B03221A60054B03221A60044B00221A60BD4680BDC0463000304030003140000E3F4080B500AF7C
:400980000B4B0B4A126801218A431A60094B094A126830218A4310210A431A60054B054A126807218A4301210A431A60BD4680BD00F02E4000FF2E4080B500AF0E4B0E4ADB
:4009C000126802218A431A600C4B0C4A126807218A4302210A431A60084B084A126830218A4320210A431A60034B034A126801210A431A60BD4680BD00F02E4000FF2E40BF
:400A000090B585B000AF78607B68022B00D8BBE07B68302B00D9B7E05E4B1B78DBB21A1E7B689A420AD35C4A0F23FB1812781A705A4A0E23FB1812781A703FE0584B1B7897
:400A4000DBB21A1E7B689A420AD3564A0F23FB1812781A70544A0E23FB1812781A702DE0524B1B78DBB21A1E7B689A420AD3504A0F23FB1812781A704E4A0E23FB1812782F
:400A80001A701BE04C4B1B78DBB21A1E7B689A420AD34A4A0F23FB1812781A70484A0E23FB1812781A7009E0464A0F23FB1812781A70454A0E23FB1812781A707B68DA1EBB
:400AC0000C23FB1841498A5C1A700B23FC1800F074FD031C23700C23FB181B782F2B0DD97B682A2B0AD93A4B19221A60052000F05BFD0D23FB1819221A7007E0344B1B689D
:400B0000DAB20D23FB183F210A401A700C23FA180D23FB1812781B789A4208D22C4B7A68033A2A498A5C1A60052000F03DFD294B7A6825498C4662441278D2B21A60264B6E
:400B40000F22BA1812781A60244B0E22BA1812781A60052000F08AF90C23FA180D23FB1812781B789A4208D9194B7A68033A17498A5C1A60052000F017FD0B23FB181B78C3
:400B8000181C00F01EFD02E0002000F041F9BD4605B090BDC0F1FF0FC1F1FF0FC2F1FF0FC3F1FF0FC4F1FF0FC5F1FF0FC6F1FF0FC7F1FF0FC8F1FF0FC9F1FF0FCAF1FF0F59
:400BC000CBF1FF0FCCF1FF0FCDF1FF0F6C1D00002CFF0B4028FF0B401CFF0B4020FF0B4080B584B000AF78600023FB60154B154A126801210A431A60134B144A1A60144B2E
:400C0000134A1268802109020A431A607B68002B12D01023FB600CE0012000F027F900F019F8031E02D00023FB6005E07B68013B7B607B68002BEFD1FB68181CBD4604B062
:400C400080BDC04660F02E4078002E400220000010002E4080B500AF034B1B6801221340181CBD4680BDC0460C002E4080B500AFFFF784FE044B044A1268802109060A435E
:400C80001A60BD4680BDC04600F02E4080B584B000AF78600C4B1B6801221340FB607B68002B02D0012B03D005E0FFF767FE06E0FFF782FE03E0002000F0AAF8C046FB6802
:400CC000181CBD4604B080BD00F02E4080B584B000AF021C3960FB1D1A7080239B05FB60FB1D1B781F2B02D9002000F091F8FB1D1B7810339B00FA68D3181B68BB60FB1D6A
:400D00001B7810339B00FA68D3183A681A60BB68181CBD4604B080BD90B587B000AF021CFB1D1A70BB1D0A1C1A70BB1D1B78032B02D9002000F06CF8FB1D1B781F2B02D963
:400D4000002000F065F8FB1D1B7803221340DB0006337B611323FC1800F02FFC031C2370FB1D1B789B08DBB29B00144A944663441B68FB607B6903229A40131CDA43FB6817
:400D80001340FB60BB1D1A787B699A40131CFA681343FB60FB1D1B789B08DBB29B00074A94466344FA681A601323FB181B78181C00F007FCBD4607B090BDC04600E400E023
:400DC00080B582B000AF021CFB1D1A70054BFA1D12781F210A40012191400A1C1A60BD4602B080BD00E100E080B582B000AF021CFB1D1A70054BFA1D12781F210A400121E9
:400E000091400A1C1A60BD4602B080BD80E100E080B582B000AF021CFB1D1A7001BEBD4602B080BD80B582B000AF786009E00C4B1B68181C00F0B8FB7B680A4A9446634447
:400E40007B607A6880231B029A42F0D8064B1B687A685343181C00F0A7FBBD4602B080BDE00000200080FFFFD800002080B582B000AF021CBB1D1A80BB1D1B88044A1278DE
:400E80005343181C00F090FBBD4602B080BDC046DC00002080B500AF00F02CF8BD4680BD80B500AF054B054A1268802109060A431A6000F017F8BD4680BDC04600002540A3
:400EC00080B500AF064B1B78002B04D1FFF7E2FF034B01221A70FFF7E3FFBD4680BDC0460401002080B500AF0A20FFF769FFBD4680BDC04680B500AF234B234A12682349BE
:400F00000A401A60224B00221A60224B224A1A60224B234A1A60234B00221A60224B00221A60224B224A1A60224B00221A600A20FFF75AFF0A200321FFF7EEFE1E4B0A2092
:400F4000191CFFF7C3FE1D4B00221A601C4B00221A601C4B00221A601B4B1422FF321A601A4B00221A601A4B00221A60194B10221A70194B00221A80184B00221A60184B90
:400F800000221A60BD4680BD70002540EFEFFFFF00002540600025407708008000032540070300800403254010032540000225400701008004022540C9150000C80E254032
:400FC000880E2540480F2540080F2540C80F2540880F254045010020640100204C0100205801002080B584B000AF786039600023FB600423BB60384B1B78DBB2102B66D157
:40100000364B1B680122134002D00823BB605EE00A20FFF7E9FE7B685B00FF2213407B603B68002B03D12C4B24221A7006E02A4B25221A707B68012213437B60284B7A68AB
:401040001A60284B284A1A60284B02221A60C046244B1A680823FF331340F9D0214B1B680422134002D00023BB601CE01D4B1B680222134002D00223BB6014E0194B1B6853
:401080000122134007D0144B10221A700123BB600123FB6007E0104B10221A7080235B00BB600123FB600F4B0822FF321A60FB68002B0CD00E4B0E4A1268520052081A608A
:4010C0000B4B0B4A1268802109060A431A60BB68181CBD4604B080BD450100206400254040022540000F254017030000680025400000254080B584B000AF786039600023C7
:40110000FB600423BB60374B1B78DBB220221340DBB2002B60D07B685B00FF2213407B603B68002B03D12F4B24221A7006E02D4B25221A707B68012213437B602A4B2B4A2A
:401140001A6000F073F9C046294B1B6801221340FAD1284B7A681A60C046234B1A680823FF331340F9D0204B1B680422134002D00023BB601CE01C4B1B680222134002D077
:401180000223BB6014E0184B1B680122134007D0144B10221A700123BB600123FB6007E0104B10221A7080235B00BB600123FB600D4B0822FF321A60FB68002B0CD00E4B69
:4011C0000D4A1268520052081A600B4B0A4A1268802109060A431A60BB68181CBD4604B080BDC04645010020000F25401703000068002540400225400000254080B582B0D8
:4012000000AF00237B6004233B60264B1B78DBB220221340DBB2002B3ED0234B234A126820210A4001D0182200E010221A60C0461F4B1A681223FF331340F9D01C4B1B687D
:401240001022134002D000233B600EE0184B1B680122134004D001233B6001237B6004E080235B003B6001237B60114B1222FF321A600C4B10221A707B68002B0CD00D4B71
:401280000C4A1268520052081A600A4B094A1268802109060A431A603B68181CBD4602B080BDC046450100206800254064002540000F25400000254080B584B000AF78600B
:4012C0000023FB600423BB602A4B1B78DBB220221340DBB2002B48D0274B7A681A60C046264B1A680823FF331340F9D0234B1B680422134005D01F4B60221A700023BB6001
:401300001FE01E4B1B680222134005D0194B60221A700223BB6014E0184B1B680122134007D0144B10221A700123BB600123FB6007E0104B10221A7080235B00BB6001238B
:40134000FB600E4B0822FF321A60FB68002B0CD00B4B0B4A1268520052081A60084B084A1268802109060A431A60BB68181CBD4604B080BD4501002040022540000F2540CD
:401380000000254080B584B000AF786001235B42FB601F4B1B78DBB220221340DBB2002B31D0C0461B4B1B680422134005D11A4B1A680223FF331340F4D0164B1B68042247
:4013C000134010D0154B1B68FB60124B04221A607B68002B03D1124B04221A6013E00C4B60221A700FE00C4B0E4A1A600E4B0E4A1268520052081A600B4B0B4A126880211B
:4014000009060A431A60FB68181CBD4604B080BD45010020C00F2540000F25404003254068002540170300000000254080B582B000AF01237B60084B1B682022134001D0F8
:40144000082300E000237A6813437B60034B7A681A60BD4602B080BD640025406800254080B500AF064B1B78002B04D100F00AF8034B01221A7000F023F8BD4680BDC046F3
:401480000C01002080B500AF084B72221A70084B20221A70074B07221A70074B48221A70064B00221A70BD4680BDC04682000F4083000F4023000F4033000F4080000F4097
:4014C00090B583B000AFFC1D00F077F8031C23700F4A0F4B1B78DBB220210B43DBB213700C4A0C4B1B78DBB210210B43DBB21370094A094B1B78DBB210210B43DBB2137077
:40150000FB1D1B78181C00F05CF8BD4603B090BD92000F4093000F4090000F4080B582B000AF021CFB1D1A70C046074B1B78DBB21A1C04231340F8D1044AFB1D1B781370A0
:40154000BD4602B080BDC04660000F4040000F4080B584B000AF78600A1CFB1C1A700F23FB1800221A700F4B1B78002B16D00F23FB181B787A68D3181B78181CFFF7CEFF60
:401580000F23FB181A780F23FB1801321A700F23FA18FB1C12781B789A42E8D3BD4604B080BDC0460C0100200230800803D00138FDD1C046C046C0467047EFF3108072B625
:4015C000704780F31088704780B582B000AF00233B60C04B1B68002B02D0BE4B1B689847BD4B1B680122134002D0BC4B00221A60BB4B1B78DBB220221340DBB2002B38D0B7
:40160000B84B1A6880235B0013400AD0B64B1B889BB2C022920013439AB2B34B1A8001233B60B04B1B68012213400AD0AE4B1B889BB29022920013439AB2AB4B1A8001234B
:401640003B603B68002B14D0A54B1B78DBB201221340DBB2002B01D0012300E00223A24A128892B213439AB29F4B1A809C4B00221A709B4B1B78DBB220221340DBB2002B0F
:4016800000D1A4E1974B1B681022134018D0974B10221A60924B1B78DBB201221340DBB2002B01D0012300E002238F4A128892B213439AB28C4B1A80894B10221A70AAE16A
:4016C000874B1B78DBB208221340DBB2002B29D0844B1B68022213400ED0844B02221A60814B1B889BB28822920013439AB27E4B1A8001233B6015E0794B1B78DBB20122FE
:401700001340DBB2002B03D0754B25221A7009E0734B24221A70764B1B68002B02D0754B10221A606E4B1B78DBB204221340DBB2002B00D113E16A4B1B78DBB201221340FC
:40174000DBB2002B5BD06C4B1B680822134033D06A4B1A686A4B1B681F211940694B1B68CB18D31A7B607B68082B02D908237B600CE07B68002B09D1634B634A1268634996
:401780000A401A6008237B6001233B6010E0604B1A685C4B1B68D2185E4B1B68DBB21370584B1B685A1C574B1A607B68013B7B607B68002BEBD11EE04F4B1B680422134023
:4017C00019D0534B1A684F4B1B68D218514B1B68DBB213704B4B1B685A1C4A4B1A60494B1A68464B1B689A4203D24B4B04221A6001E001233B60494B494A1A60AFE0394BA7
:401800001B680222134032D0384B02221A60454B1B681F221A40434B196880231B020B4001D0012300E00023D2183F4B1B689A1A3D4B1A603C4B1A683C4B1A602A4B1B88FC
:401840009BB28422920013439AB2274B1A80384B374A1268802149020A431A60344B344A126834490A401A6001233B6077E0324B1B681022134067D022E02B4B1A681C4B19
:401880001B689A421BD21A4B1B685A1E264B1B689A4205D1294B40221A60164B40221A60274A284B1968204B1B68CB181B78DBB213601D4B1B685A1C1B4B1A6000E005E07A
:4018C000184B1B681F221340082BD6D11B4B10221A6044E0080100208C0E2540880E2540450100200C0F254064010020000F254050010020880F2540CC0F2540600100202E
:40190000080325404C01002060002540FFFEFFFF680100204003254068002540C00F2540ED0F000008022540480100205801002004022540FFFFFEFF8C0F2540800F254031
:40194000400225405C010020344B1B684022134005D0334B1A68334B1A6001233B603B68002B58D0304B304A126830490A401A602F4B00221A602F4B00221A602E4B1B7826
:40198000DBB202221340DBB2002B15D02B4B1B78DBB201221340DBB2002B01D0092300E00A23274A128892B213439AB2244B1A80224B60221A702EE0224B234A12682021A2
:4019C0000A4001D0182200E010221A6023E01B4B1B78DBB210221340DBB2002B1BD11B4B1A4A1268520052081A60144B10221A700D4B0D4A126816490A401A600A4B0A4ADA
:401A0000126814490A401A60104B104A1268802109060A431A60BD4602B080BD8C0F2540480100205801002060002540FFFEFFFFC80F2540880F25405401002045010020BE
:401A400064010020680025406400254000002540FF5FFFFFFFFCFFFF0E4B70B500251E1C0D4CE41AA410A54204D0AB00F35898470135F8E700F092F9084B00251E1C084C83
:401A8000E41AA410A54204D0AB00F35898470135F8E770BDA81D0000A81D0000A81D0000B01D0000002310B5934203D0CC5CC4540133F9E710BD031C8218934202D01970EC
:401AC0000133FAE7704700000000000000300F40000400400F40000403000F4068300F4035310F404F320F4043330F4008410F4002600F40800F827283380275053E0780B9
:401B0000088009280C1F0D500E600F2715181763181F1A201BC02418250226212720284A2A012D202F1D307832803307340635F8360138203A023B083E5440424103450CF4
:401B400046B0470E481949FF4AFF4BFF4EF04F44500C5401580459045A045B045F0166C06A406B0284E788E789048B018C808D018F029022925194449631980199019A0E1C
:401B80009B06A307A504B080B260B407B507B618BB28BE40C024C106C203C401C5C0C60EC806C9FFCAFFCBFFCC62CDA0CEF0CF41D00CD804D904DA04DF01E640E702E9104E
:401BC000EA30EB10ED10EE10EF12004001020308042807010A080E280F8010301120184019641B011D821E282104221423202404251026082B212D022F6032143720380428
:401C000039203B803C403D20404041044204444045AA48204C804E0851105308564058125944C0EBC272C406CACACC26CE3ED0F7D220D60F00F30110020C040C0508080442
:401C4000093C0B420C0F0EF013041482157F18C319181EF3201C22E3230324412567271828FF29042B802C082D3C2F41302C3180321C3320340F351F36C0374039803A22F1
:401C80003B203F0456025711580459045B045F018F0196019F01A201A402B002B402B501B601BE50BF10C006C501C650C809C9FFCA07CBFFCC40CD20CEF0CF05D008D41867
:401CC000D804D904DA04DB04DF01E040E1A8E240E32004400501072809080C400E2810A0140816A219421A041C401D281E011F1120042410251026822C402E202F113280E6
:401D00003408360A37203A403D203E0A4820492053205A015C10600461406C146F01760A7728811082B083408D21922094289604984099209A409D029F01A080A21CA52801
:401D4000A760B002B308C0F0C2E4C4FCCAF0CCE8CEE8D204D621D80C0A40670282408301C210D680E020E62010011101030405060708090A0B0C0E0F1011121314151617B6
:401D800018191B1C1D1E1F2021222325262728292A2B2E2F3031323334350000F8B5C046F8BC08BC9E4670476102000045080000F8B5C046F8BC08BC9E46704739020000C0
:401DC000D01D0000C8000020200000008800000000000000000102030400000000366E01C05D0000180000000000E02E000000000000000000000000000000000000000074
:401E000000000000000000000000000000000000000000000000000000000000000000000000000000000000000000000000000000000000000000000000000000000000A2
:401E40000000000000000000000000000000000000000000000000000000000000000000000000000000000000000000000000000000000000000000000000000000000062
:401E80000000000000000000000000000000000000000000000000000000000000000000000000000000000000000000000000000000000000000000000000000000000022
:401EC00000000000000000000000000000000000000000000000000000000000000000000000000000000000000000000000000000000000000000000000000000000000E2
:020000040001F9
:0200000490303A
:020000008ADF95
:0200000490402A
:4000000000000000000000000000000000000000000000000000000000000000000000000000000000000000000000000000000000000000000000000000000000000000C0
:400040000000000000000000000000000000000000000000000000000000000000000000000000000000000000000000000000000000000000000000000000000000000080
:0200000490501A
:0C00000000020E34119E00010E3D9C7D9C
:0200000490600A
:0100000001FE
:00000001FF