:400000000010002011000000A1030000A103000080B500AF00F0C8F980B584B000AF021CFB1D1A70224A3B1C0B3312781A70214A3B1C0A3312781A701F4B1B68013BFB601E
:400040001AE01E4B1868391C0B31FA68131C5B009B18C31801331B780B70184B1868391C0A31FA68131C5B009B18C31802331B780B70FB68013BFB60FB68002B0ADB0F4B59
:400080001968FA68131C5B009B185B5CFA1D12789A42D6D90A4B3A1C0B3212781A60094B3A1C0A3212781A60BD4604B080BDC046CCF1FF0FCDF1FF0F641B0000CC0000206B
:4000C0001CFF0B4020FF0B4080B500AF164B164A12688021C9020A431A601820FFF79CFF124B19221A60052000F05EFD104B114A1278D2B21A60052000F016FE0A4B0A4A83
:4001000011680D4A0A401A600C4B10221A600C4B802212061A600B4B802212061A600A4B0A4A1A60BD4680BD00010B402CFF0B4028FF0B40E5F1FF0FFFFFFBFF0802024054
:4001400008010B4004010B40000002400E00008080B582B000AF72B6FB1D00221A7023E0FB1D1A78131C5B009B185B00264A9B183B603B681A78597809020A43997809048A
:400180000A43DB781B0613431A1C3B6819795B791B020B439BB2101C191C00F089F9FB1DFA1D127801321A70FB1D1B78012BD7D9164BEE2212021A60154BEE221A60154B18
:4001C000D82212011A60144B03221A60134B24221A60134B992212041A60124B114A1278D2B202210A43D2B21A700E4B0D4A1278D2B206210A43D2B21A70FFF765FF00F0E5
:4002000067F9BD4602B080BD581B00000C0001401000014008030440000404400804044030500F4000700F4010B5064C2378002B07D10548002802D0044800E000BF0121DD
:40024000217010BD4801002000000000501B000008B5084B002B03D00748084900E000BF07480168002903D0064A002A00D0904708BDC04600000000501B00004C01002087
:40028000C80000200000000080B584B000AF0A1CFB1D011C1970BB1D1A703B1C0E33FA1D12781A803B1C0E3300229B5E1A023B1C0E331A80BB1D1B7899B23B1C0E333A1C80
:4002C0000E3212880A431A803B1C0E331B881BB2181CBD4604B080BD80B584B000AF021CBB1D1A806820002100F09EF9BB1D00229B5E181C00F002FB6820012100F01CFA71
:40030000012000F061FB021C3B1C0F331A706820012100F011FA012000F056FB021C3B1C0E331A7000F08CFA3B1C0F331A783B1C0E331B78101C191CFFF7A6FF031C181CAD
:40034000BD4604B080BDC04680B500AF00F0DAF86820002100F068F91C2000F0CFFA00F06FFABD4680BDC04680B586B000AFFFF7EBFF62B63B20FFF7AFFF031C1A1C3B1C92
:4003800016331A803B1C16331B88391D034A081C111C1A1C00F0D8FFECE7C046541B000080B500AFFEE7C04680B586B000AF254B7B61254B3B61234B7B61234B3B6132E037
:4003C0003B691B68FB603B695B68BB603B699B683B6000237B600CE0FB681A68BB681A60BB680433BB60FB680433FB607B6804337B607A683B689A42EED13B69DB683B604A
:4004000000237B6008E0BB6800221A60BB680433BB607B6804337B607A683B689A42F2D13B6910333B617B695A1E9341DBB27A69013A7A61002BC3D100F04EFFFFF794FFCB
:40044000FEE7C04601000000C41B000080B582B000AF00237B600FE07B68032B04D8104B7A689200D35800E00E4B0F4A796889008B507B6801337B607B682F2BECD9FFF706
:4004800067FE0A4B00221A608023DB058022D205126801210A431A60BD4602B080BDC04600000000A103000000000020C000002080B582B000AF786039607A683B68101CB3
:4004C00000211A1C00F037FFBD4602B080BDC04680B500AFBD4680BD80B500AF00F02CF8BD4680BD80B500AF054B054A1268802109060A431A6000F017F8BD4680BDC04672
:400500000000064080B500AF064B1B78002B04D1FFF7E2FF034B01221A70FFF7E3FFBD4680BDC0466401002080B500AF0A2000F0C5FBBD4680BDC04680B500AF234B0022C0
:400540001A60234B234A1A60234B234A12680C210A431A60214B224A1A60224B00221A60214B00221A60214B214A1A60214B00221A600A2000F0B8FB0A20032100F04AFB57
:400580001D4B0A20191C00F01FFB1C4B00221A601B4B00221A601B4B00221A601A4B1B4A1A601B4B00221A601A4B00221A601A4B10221A70194B00221A80194B00221A60DB
:4005C000184B00221A60BD4680BDC0460000064060000640770800807000064000030640070300800403064010030640000206400701008004020640510D0000C80E064006
:40060000880E0640480F0640080F064013010000C80F0640880F06407401002082010020880100207C01002080B584B000AF786039600023FB600423BB60374B1B78DBB26D
:40064000102B64D1354B1A680123134002D00823BB605CE00A2000F047FB7B685A00FF2313407B603B68002B03D12B4B24221A7006E0294B25221A707B68012213437B600A
:40068000274B7A681A60274B274A1A60274B02221A60C046234B1A68254B1340FAD0214B1A680423134002D00023BB601CE01D4B1A680223134002D00223BB6014E0194B3C
:4006C0001A680123134007D0134B10221A700123BB600123FB6007E00F4B10221A7080235B00BB600123FB600E4B114A1A60FB68002B0CD00F4B0F4A1268520052081A60D2
:400700000C4B0C4A1268802109060A431A60BB68181CBD4604B080BD740100206400064040020640000F06401703000068000640070100000000064080B584B000AF7860AE
:4007400039600023FB600423BB60364B1B78DAB220231340DBB2002B5ED07B685A00FF2313407B603B68002B03D12E4B24221A7006E02C4B25221A707B68012213437B6027
:40078000294B2A4A1A6000F075F9C046284B1A6801231340FAD1274B7A681A60C046224B1A68254B1340FAD01F4B1A680423134002D00023BB601CE01B4B1A68022313401A
:4007C00002D00223BB6014E0174B1A680123134007D0144B10221A700123BB600123FB6007E0104B10221A7080235B00BB600123FB600D4B104A1A60FB68002B0CD00F4B62
:400800000E4A1268520052081A600C4B0B4A1268802109060A431A60BB68181CBD4604B080BDC04674010020000F064017030000680006404002064007010000000006404A
:4008400080B582B000AF00237B6004233B60254B1B78DAB220231340DBB2002B3CD0224B224A116820220A4001D0182200E010221A60C0461E4B1A681E4B1340FAD01C4B66
:400880001A681023134002D000233B600EE0184B1A680123134004D001233B6001237B6004E080235B003B6001237B60104B114A1A600C4B10221A707B68002B0CD00E4BC2
:4008C0000D4A1268520052081A600B4B0A4A1268802109060A431A603B68181CBD4602B080BDC046740100206800064064000640000F0640110100000000064080B584B094
:4009000000AF78600023FB600423BB60294B1B78DAB220231340DBB2002B46D0264B7A681A60C046254B1A68254B1340FAD0234B1A680423134005D01E4B60221A70002350
:40094000BB601FE01D4B1A680223134005D0194B60221A700223BB6014E0184B1A680123134007D0134B10221A700123BB600123FB6007E00F4B10221A7080235B00BB6061
:400980000123FB600D4B0E4A1A60FB68002B0CD00C4B0C4A1268520052081A60094B094A1268802109060A431A60BB68181CBD4604B080BD7401002040020640000F064082
:4009C000070100000000064080B584B000AF786001235B42FB601F4B1B78DAB220231340DBB2002B30D0C0461B4B1A680423134004D11A4B1A681A4B1340F5D0164B1A6842
:400A00000423134010D0174B1B68FB60124B04221A607B68002B03D1134B04221A6013E00C4B60221A700FE00C4B104A1A60104B0F4A1268520052081A600D4B0C4A126853
:400A4000802109060A431A60FB68181CBD4604B080BDC04674010020C00F0640000F0640010100004003064068000640170300000000064080B582B000AF264B1B687B60F1
:400A8000C04600F04FF8031C002BFAD0002000F057F8214B204A12680F218A431A601F4B1E4A1268520052081A607A682023134011D0002000F044F80A2000F035F901203F
:400AC00000F03EF8C04600F05FF8031C002BFAD00A2000F029F9002000F032F80A2000F023F90F4B01221A600C4B0C4A1268802109060A431A60084B074A12680F218A4313
:400B00000E210A431A60012000F01AF8BD4602B080BDC0466400064010000140000006406800064080B500AF044B1A68022313405B08DBB2181CBD4680BDC04604040440D2
:400B400080B584B000AF021CFB1D1A700D4B1B68DAB23B1C0F3301218A431A70FB1D1A7801231340D9B23B1C0F333A1C0F3212780A431A70034B3A1C0F3212781A60BD46FB
:400B800004B080BD0004044080B500AF044B1B68DAB201231340DBB2181CBD4680BDC04604040440000000000230800804D0C0460138FDD1C046C0467047EFF3108072B6F8
:400BC000704780F31088704780B584B000AF021C3960FB1D1A7080239B05FB60FB1D1B781F2B02D9002000F095F8FB1D1B7810339B00FA68D3181B68BB60FB1D1B7810339E
:400C00009B00FA68D3183A681A60BB68181CBD4604B080BD90B587B000AF0A1CFB1D011C1970BB1D1A70BB1D1B78032B02D9002000F070F8FB1D1B781F2B02D9002000F028
:400C400069F8FB1D1A7803231340DB0006337B613C1C1334FFF7B1FF031C2370FB1D1B789B08DBB29B0014495B181B68FB607B690322111C99400B1CDA43FB681340FB6081
:400C8000BB1D1A787B69111C99400B1CFA681343FB60FB1D1B789B08DBB29B00064A9B18FA681A603B1C13331B78181CFFF789FFBD4607B090BDC04600E400E080B582B037
:400CC00000AF021CFB1D1A70064BFA1D11781F220A400121081C9040021C1A60BD4602B080BDC04600E100E080B582B000AF021CFB1D1A70064BFA1D11781F220A4001212E
:400D0000081C9040021C1A60BD4602B080BDC04680E100E080B582B000AF021CFB1D1A7001BEBD4602B080BD80B582B000AF021CBB1D1A80BB1D1B88044A12785343181CA4
:400D4000FFF732FFBD4602B080BDC046D800002080B582B000AF00233B60C24B1B68002B02D0C04B1B689847BF4B1A680123134002D0BE4B00221A60BD4B1B78DAB22023AA
:400D80001340DBB2002B3CD0BA4B1A6880235B0013400AD0B84B1B889BB2C022920013439AB2B54B1A8001233B60B24B1A68012313400AD0B04B1B889BB2902292001343B3
:400DC0009AB2AD4B1A8001233B603B68002B18D0A74B1B78DAB201231340DBB2002B01D0012300E00223A44A128892B291B21A1C0B1C13439BB29AB29F4B1A809C4B00227E
:400E00001A709B4B1B78DAB220231340DBB2002B00D1AAE1974B1A68102313401CD0974B10221A60924B1B78DAB201231340DBB2002B01D0012300E002238F4A128892B239
:400E400091B21A1C0B1C13439BB29AB28A4B1A80874B10221A70BEE1854B1B78DAB208231340DBB2002B29D0824B1A68022313400ED0824B02221A607F4B1B889BB28822B5
:400E8000920013439AB27C4B1A8001233B6015E0774B1B78DAB201231340DBB2002B03D0734B25221A7009E0714B24221A70744B1B68002B02D0734B10221A606C4B1B780F
:400EC000DAB204231340DBB2002B00D111E1684B1B78DAB201231340DBB2002B5BD06A4B1A680823134033D0684B1A68684B19680F231940674B1B68CB18D31A7B607B68D6
:400F0000082B02D908237B601EE07B68002B1BD1614B614A1168614A0A401A6008237B6001233B6010E05E4B1A685A4B1B68D2185C4B1B68DBB21370564B1B685A1C554B00
:400F40001A607B68013B7B607B68002BEBD11EE04D4B1A680423134019D0514B1A684D4B1B68D2184F4B1B68DBB21370494B1B685A1C484B1A60474B1A68444B1B689A42CC
:400F800003D2494B04221A6001E001233B60474B474A1A60ADE0374B1A680223134032D0364B02221A60434B1A68434B19680F231940414B186880231B02034001D0012313
:400FC00000E00023CB18D21A3A4B1A60394B1A683A4B1A60284B1B889BB28422920013439AB2254B1A80364B354A1268802149020A431A60324B324A1168324A0A401A60F5
:4010000001233B6075E0304B1A681023134065D013E0284B1A681A4B1B689A4214D22B4B2B4A1168234A12688A181278D2B21A60204B1B685A1C1F4B1A601F4B1A680F2377
:401040001340082BE5D100E0C0461A4B1A680C4B1B689A4202D10B4B40221A601D4B1E4A1A6046E0680100208C0E0640880E0640740100200C0F064082010020000F064009
:4010800084010020880F0640CC0F064094010020080306408801002060000640FFFEFFFF900100204003064068000640C00F0640ED0F000078010020080206407C010020BE
:4010C00004020640FFFFFEFF8C0F0640400206408C010020800F0640F30700003F4B1A684023134005D03E4B1A683E4B1A6001233B603B68002B6ED03B4B3B4A11683B4A4B
:401100000A401A603A4B00221A603A4B00221A60394B1B78DAB202231340DBB2002B19D0364B1B78DAB201231340DBB2002B01D0092300E00A23324A128892B291B21A1C41
:401140000B1C13439BB29AB22D4B1A802B4B60221A7040E02B4B2C4A116820220A4001D0182200E010221A6035E0244B1B78DAB210231340DBB2002B2DD1244B234A1268E8
:40118000520052081A601D4B10221A70164B164A11681F4A0A401A60134B134A11681D4A0A401A60124B00221A60124B00221A60194B1A4A1A601A4B1A4A1A601A4B1B4ADE
:4011C0001A601B4B1B4A1A60104B104A1268802109060A431A60BD4602B080BD8C0F0640780100207C01002060000640FFFEFFFFC80F0640880F06408001002074010020B0
:4012000082010020680006406400064000000640FF5FFFFFFFFCFFFF800F0640ED0F0000C00F0640F3070000400F0640FF0F0000000F064017030000002934D001230022B3
:4012400010B488422CD301242407A14204D2814202D209011B01F8E7E400A14204D2814202D249005B00F8E7884201D3401A1A434C08A04202D3001B5C0822438C08A042CB
:4012800002D3001B9C082243CC08A04202D3001BDC082243002803D01B0901D00909E3E7101C10BC7047002801D00020C04307B4024802A14018029003BDC046190000003E
:4012C0000029F0D003B5FFF7B9FF0EBC4243891A1847C0467047C04670B50E4B0E4D0024E81A85101E1CAC4204D0A100725890470134F8E700F054FC0849094A0E1C541A29
:40130000A5100024AC4204D0A300F05880470134F8E770BDAC1B0000AC1B0000AC1B0000B41B000010B50023934203D0CC5CC4540133F9E710BD00B58218031C934202D035
:4013400019700133FAE700BD0EB400B59CB01DAB02A904CB822202900861920009488A810122886048615042074AC88110681D9A019300F063F8029900230B701CB008BCC9
:4013800003B01847FFFFFF7F44010020F7B501919168071C141C002940D190239289D80002423BD02568216963696E1A58000096C6180098F50FAB1901305D10A84201DB86
:4013C000009D0235381C53050FD5291C00F004FB061E13D02169009AFFF7A4FFA7891649802239401143A18111E02A1C00F04AFB061E0CD1381C216900F0A6FA0C203860D2
:40140000A58940263543A5810124604213E0009B6561F018ED1A26612060A560A668002E08DD694627680A793A70A3680137013B2760A3600020FEBD7FFBFFFFF0B5A1B066
:40144000049007938B890E1C171C19060FD53269002A0CD1402100F0BFFA30603061002803D1049C0C262660D6E04020706108AD00212024302369616C76AB763C1C227896
:40148000002A04D1E01B069019D003970FE0252AF8D00134F3E70399321C09780498FFF775FF039A01320392013000D1AFE003990698CB1B8342EEDB0D9F3A180D922178B9
:4014C000002900D1A3E001206A4600234742633201342B60EB606F60AB601370AB65504F2178381C052200F0C1FA002807D0C71B2B680120B840184328600134EFE72B6879
:40150000D90603D568462021633001701A0703D56A462B276332177021782A2901D00B9B0EE0079A1068111D0791002801DB0B9004E0022247421343EF602B60013409E03C
:4015400020783038092804D80A277B4301341B18F6E70B9323782E2B18D161782A2909D1079B02341A68191D0791002A0DDA012042420AE00134002220783038092804D87D
:401580000A277A4301341218F6E70992254F2178381C032200F06AFA002806D02B68C21B4021914019432960013421781E4806222976671C00F05AFA002817D01B480028AB
:4015C0000BD12868079C0723C10501D5E41800E007349C430834079414E007AA00920498291C321C124B00E000BF07E007AC00940498291C321C0E4B00F08CF8059005998A
:401600004A1C04D00D99059A8C180D9436E7B589690601D40D9801E00127784221B0F0BD6A1B0000701B0000741B0000000000008D130000F7B5151C01930A698B680090BB
:401640000C1C934200DA131C201C2B6043300178002901D001332B602668B00602D52F6802372F602268062616401CD0261C4336377822683E1C731E9E4192061CD5A31983
:40168000181C40303021271CC17045373A784133DA70023610E0617E0098019A089FB847013006D00136E3682868191A8E42F2DBDCE7012040422CE00027B7420ADAE1199C
:4016C000433109780098019A089B98470130F0D00137F2E72B68256806212940E6680025042903D1F01AC743FD170540A2682669B24201DD931BED180027AF4208DAA17E76
:401700000098019A089EB0470130D2D00137F4E70020FEBDF0B50D1C8BB0433507930590069204950A7E0C1C109B6E2A00D1A8E012D8632A24D009D8002A00D1B1E0582A91
:4017400000D0C1E045310A707D4D51E0642A1FD0692A00D0B8E01BE0732A00D1A5E009D86F2A2BD0702A00D0AEE00A68202616430E6038E0752A21D0782A00D0A4E032E00B
:4017800018680E1C051D1D600368423633709EE026681F68300606D4750604D5381D186000203D5E02E03D1D1D603D68644B002D3BDA04992D226D420A7036E027681E684C
:4017C0003D0605D4780603D5351D1D60358802E0311D196035685A4B207E039308276F281ED00A271CE0271C45377820554D38701A682668111D03951960300603D4750673
:4018000001D5158800E01568F00702D520231E4326601027002D03D12668202086432660261C43360022327001E003930A276168A160002903DB2068042398432060002D5C
:4018400002D1049E00290ED0049E281C391CFFF737FD039A013E515C281C3170391CFFF7EBFC051EF1D1049B9A1B2261082F33D12768F80730D5606890422DDC01326260C5
:401880002AE008681E684969050606D4450604D5351D1D603368198003E0321D1A603768396000202061049E16E01E68311D19603668301C00F01EF965682061A84200D9FE
:4018C00025612369636004E0261C4236327001212161049F00223A7007990598009109AA211C069BFFF7A6FE01300CD0351C2269AB1B93420ADA29780598069A079FB847DC
:4019000001350130F3D10122504217E02668B10705D4099BE068984210DA181C0EE00025E7680998391A8D42F3DA617E0598069A079EB0470130E6D00135F1E70BB0F0BDC6
:401940007B1B00008C1B000030B5002940D004390B68002B00DAC9181E4A1368141C002B02D14B60116033E099420FD20D684A199A4205D110682B1855680B604D6000E080
:401980004B60216024E08A4203D8131C5A68002AF9D11D685C198C420BD10C682D1958191D60904214D1116852686C181C605A600EE08C4202D90C21016009E008680D18D8
:4019C000954203D114685268001908604A60596030BDC0466C01002070B50323CD1C9D430835061C0C2D01D20C2501E0002D2DDB8D422BD31C4A1368111C1C1C002C12D0BB
:401A00002068421B0CD40B2A02D92260A41815E0A34202D166680E601CE065685D6019E0231C6468EAE7301C291C00F051F8421C0CD0C41C03218C43844201D1256009E072
:401A4000211A301C00F044F80130F7D10C243460002008E0201C0B300722211D9043431A01D05D42E55070BD6C01002000B5C9B28218904204D003788B4202D00130F8E7E7
:401A8000002000BDF8B5061C0C1C151C002904D1111CFFF7A1FF041C18E0002A03D1FFF753FF2C1C12E000F02CF8A8420ED2301C291CFFF791FF071E07D0211C2A1CFFF75E
:401AC00031FC301C211CFFF73FFF3C1C201CF8BD38B5074C0023051C081C236000F01CF8431C03D12168002900D0296038BDC046980100200023C25C0133002AFBD1581EB1
:401B0000704704390B6800B5181F002B02DAC8581918081F00BD00000A4A00B51368002B0CD018186946884202D81060181C00BD054B0C2201201A604342F7E7034B13606A
:401B4000EFE7C0467001002098010020A0010020000000002564000000300F40000400400F400004040000004300232D302B2000686C4C00656667454647003031323334AF
:401B80003536373839414243444546003031323334353637383961626364656600000000F8B5C046F8BC08BC9E467047510200004D040000F8B5C046F8BC08BC9E467047EB
:401BC00029020000D81B0000C800002080000000580000000000000000000000C0F1FF0F00366E01C05D0000180000000000E02E0000000000000000000000000000000060
:401C000000000000000000000000000000000000681B0000000000000000000000000000000000000000000000000000000000000000000000000000000000000000000021
:401C40000000000000000000000000000000000000000000E00000200000000000000000000000000000000000000000000000000000000000000000000000000000000064
:401C80000000000000000000000000000000000000000000000000000000000000000000000000000000000000000000000000000000000000000000000000000000000024
:401CC00000000000000000000000000000000000000000000000000000000000000000000000000000000000000000000000000000000000000000000000000000000000E4
:401D000000000000000000000000000000000000000000000000000000000000000000000000000000000000000000000000000000000000000000000000000000000000A3
:401D40000000000000000000000000000000000000000000000000000000000000000000000000000000000000000000000000000000000000000000000000000000000063
:0200000490303A
:02000000B6F850
:0200000490402A
:200000000000000000000000000000000000000000000000000000000000000000000000E0
:0200000490501A
:0C000000000204C81193110104D0C88B49
:0200000490600A
:0100000001FE
:00000001FF