:4000000000100020110000009D0700009D07000080B500AF00F0F0FB80B584B000AF021CFB1D1A70204A3B1C0B3312781A701F4A3B1C0A3312781A700423013BFB6018E0C6
:400040001B4B1868391C0B31FA68131C5B009B18C3185B780B70164B1868391C0A31FA68131C5B009B18C3189B780B70FB68013BFB60FB68002B0ADB0D4B1968FA68131CF1
:400080005B009B185B5CFA1D12789A42D8D9094B3A1C0B3212781A60074B3A1C0A3212781A60BD4604B080BDCCF1FF0FCDF1FF0FD00000201CFF0B4020FF0B4080B500AF4B
:4000C000164B164A12688021C9020A431A601820FFF7A2FF124B19221A60052000F020FC104B114A1278D2B21A60052000F0DCFC0A4B0A4A11680D4A0A401A600C4B0D4A6A
:400100001A600D4B10221A600C4B802212061A600B4B0C4A1A60BD4680BDC04600010B402CFF0B4028FF0B40E5F1FF0FFFFFFBFF04010B40060000800802024008010B40C4
:40014000000002400E00008080B582B000AF72B6FB1D00221A7023E0FB1D1A78131C5B009B185B002C4A9B183B603B681A78597809020A43997809040A43DB781B06134311
:400180001A1C3B6819795B791B020B439BB2101C191C00F0AFFBFB1D1A78FB1D01321A70FB1D1B78012BD7D91C4BEE2212021A601B4BEE221A601B4BD82212011A601A4B00
:4001C00003221A60194B24221A60194B992212041A60184B174A1278D2B202210A43D2B21A70154B144A1278D2B23C218A43D2B214210A43D2B21A700E4B0E4A1278D2B274
:4002000016210A43D2B21A70FFF758FF00F082FBBD4602B080BDC046B01F00000C0001401000014008030440000404400804044030500F4000700F4001700F4010B5064CC1
:400240002378002B07D1054B002B02D0044800E000BF0123237010BD4801002000000000A01F000008B5084B002B03D00748084900E000BF07480368002B03D0064B002B7B
:4002800000D0984708BDC04600000000A01F00004C010020C80000200000000090B585B000AF3B60FB1D1870BB1D19707B1D1A703B1C0F3300221A70FB1D1B78181C002184
:4002C00000F0AAFCBB1D1B78181C00F00FFEFB1D1B78181C012100F027FD08E03C68631C3B60002000F068FE031CDBB223703B1C0F331B783A1C0F32591C11701A1C7B1DD5
:400300001B78013B9A42E9DB012000F055FE031CDAB23B681A7000F08BFDBD4605B090BD80B582B000AF3A60FB1D021C1A70BB1D0A1C1A70FB1D1978BB1D1A783B68081CC3
:40034000111C0122FFF7AAFFBD4602B080BDC04680B584B000AF3B60FB1D1870BB1D19707B1D1A703B1C0F3300221A70FB1D1B78181C002100F050FCBB1D1B78181C00F0B0
:40038000B5FD06E03B685A1C3A601B78181C00F0ADFD3B1C0F331B783A1C0F32591C11707A1D12789A42EDD800F042FDBD4604B080BDC04680B582B000AFFB1D1870BB1D5F
:4003C00019707B1D1A70FB1D1978BB1D1A787B1D081C111C0122FFF7BBFFBD4602B080BD90B585B000AF041C081C111C1A1CFB1D1C70BB1D18707B1D19703B1D1A703B1D62
:400400001B780122111C99400B1C5A1E7B1D19783B1D1B78CB1A01339A403B1C0F331A70FB1D1978BB1D1A783B1C0E33081C111C1A1CFFF775FF3B1C20331A787B1D197836
:400440003B1D1B78CB1A01339A403B1C20331A703B1C20333A1C2032391C0F31127809780A401A703B1C0F331B78DB43DBB23A1C0E321278D2B21340DBB2DAB23B1C0E3325
:400480001A703B1C0E331A783B1C20331B781343DAB23B1C0E331A703B1C0E331B78FA1D1178BA1D1278081C111C1A1CFFF782FFBD4605B090BDC04690B585B000AF041CC9
:4004C000081C111C1A1CFB1D1C70BB1D18707B1D19703B1D1A70FB1D1978BB1D1A783B1C0F33081C111C1A1CFFF71AFF3B1D1B78002B0ED07B1D1B780122111C99400B1CBD
:40050000DAB23B1C0F331B78DBB21343DBB2DBB20FE07B1D1B780122111C99400B1CDBB2DB43DBB23A1C0F321278D2B21340DBB2DBB23A1C0F3213703B1C0F331B78FA1DF5
:400540001178BA1D1278081C111C1A1CFFF732FFBD4605B090BDC04690B58FB002AF00F0CDFA62B600F058F800F060F8381C2E30391C2C313A1C2A323B1C28333C1C2634D2
:4005800000943C1C2434019400F08CF83B1C2E331B881BB2391D1F4A081C111C1A1C01F0FBF83B1C2C331B881BB2391D194A081C111C1A1C01F0F0F83B1C2A331B881BB239
:4005C000391D144A081C111C1A1C01F0E5F83B1C28331B881BB2391D0E4A081C111C1A1C01F0DAF83B1C26331B881BB2391D094A081C111C1A1C01F0CFF83B1C24331B887F
:400600001BB2391D034A081C111C1A1C01F0C4F8ACE7C046A41F000080B500AF024B68221A70BD4680BDC0468A01002080B500AF012000F09DF8002000F008F8002000F0DA
:400640001BF8002000F080F8BD4680BD80B584B002AF021CFB1D1A70064B1B78FA1D12780092181C1B2104220223FFF7B9FEBD4602B080BD8A01002080B584B002AF021C71
:40068000FB1D1A70064B1B78FA1D12780092181C1C2104220223FFF7A3FEBD4602B080BD8A01002080B584B000AFF860B9607A603B60234B1A78234B101C3B210E22FFF777
:4006C000EDFD204B1B781B029AB21E4B5B7813439AB2FB681A801B4B9B781B029AB2194BDB7813439AB2BB681A80164B1B791B029AB2144B5B7913439AB27B681A80114BCA
:400700001B7A1B029AB20F4B5B7A13439AB23B681A800C4B9B7A1B029AB20A4BDB7A13439AB2BB691A80074B1B7B1B029AB2054B5B7B13439AB2FB691A80BD4604B080BDC3
:400740008A0100207401002080B582B000AF021CFB1D1A70054B1A78FB1D1B78101C6B210622FFF7A9FEBD4602B080BD8A01002080B584B002AF021CFB1D1A70064B1B78FE
:40078000FA1D12780092181C6B2102220323FFF727FEBD4602B080BD8A01002080B500AFFEE7C04680B584B000AF7860104B1A687B68D3181A1C0F4BD21A80235B009A4284
:4007C00009DC0B4B1B68FB60094B1A687B68D218074B1A6007E000F0A1FF031C0C221A6001235B42FB60FB68181CBD4604B080BDCC000020B801002080B586B000AF224B40
:400800007B61224B3B61204B7B6135E03B691B68FB603B695B68BB603B699B683B6000237B600CE0FB681A68BB681A60BB680433BB60FB680433FB607B6804337B607A6884
:400840003B689A42EED13B69DB683B6000237B6008E0BB6800221A60BB680433BB607B6804337B607A683B689A42F2D13B6910333B617B69013B7B617B69002BC6D100F070
:4008800053FFFFF769FEFEE7010000001820000080B582B000AF00237B600FE07B68032B04D8104B7A689200D35800E00E4B0F4A796889008B507B6801337B607B682F2B7B
:4008C000ECD9FFF741FC0A4B00221A608023DB058022D205126801210A431A60BD4602B080BDC046000000009D07000000000020C000002080B582B000AF786039607A68AB
:400900003B68101C00211A1C00F03DFFBD4602B080BDC04680B500AFBD4680BD000000000230800804D0C0460138FDD1C046C046C0467047EFF3108072B6704780F3108889
:400940007047C046C046C04680B584B000AF021C3960FB1D1A7080239B05FB60FB1D1B781F2B02D9002000F095F8FB1D1B7810339B00FA68D3181B68BB60FB1D1B781033D0
:400980009B00FA68D3183A681A60BB68181CBD4604B080BD90B587B000AF0A1CFB1D011C1970BB1D1A70BB1D1B78032B02D9002000F070F8FB1D1B781F2B02D9002000F0AB
:4009C00069F8FB1D1A7803231340DB0006337B613C1C1334FFF7AEFF031C2370FB1D1B789B08DBB29B0014495B181B68FB607B690322111C99400B1CDA43FB681340FB6007
:400A0000BB1D1A787B69111C99400B1CFA681343FB60FB1D1B789B08DBB29B00064A9B18FA681A603B1C13331B78181CFFF786FFBD4607B090BDC04600E400E080B582B0BC
:400A400000AF021CFB1D1A70064BFA1D11781F220A400121081C9040021C1A60BD4602B080BDC04600E100E080B582B000AF021CFB1D1A70064BFA1D11781F220A400121B0
:400A8000081C9040021C1A60BD4602B080BDC04680E100E080B582B000AF021CFB1D1A7001BEBD4602B080BD80B582B000AF021CBB1D1A80BB1D1B88044A12785343181C27
:400AC000FFF72EFFBD4602B080BDC046DC00002080B500AF00F02CF8BD4680BD80B500AF054B054A1268802109060A431A6000F017F8BD4680BDC0460000064080B500AFC4
:400B0000064B1B78002B04D1FFF7E2FF034B01221A70FFF7E3FFBD4680BDC0466401002080B500AF0A20FFF789FFBD4680BDC04680B500AF234B234A12680C210A431A605D
:400B4000214B00221A60214B214A1A60214B224A1A60224B00221A60214B00221A60214B1D4A1A60204B00221A600A20FFF77CFF0A200321FFF70EFF1C4B0A20191CFFF7BD
:400B8000E3FE1B4B00221A601A4B00221A601A4B00221A60194B1422FF321A60184B00221A60184B00221A60174B10221A70174B00221A80164B00221A60164B00221A60D7
:400BC000BD4680BD7000064000000640600006407708008000030640070100800403064010030640000206400402064091110000C80E0640880E0640480F0640080F064075
:400C0000C80F0640880F06408B010020A8010020900100209C01002080B584B000AF786039600023FB600423BB60384B1B78DBB2102B66D1364B1A680123134002D0082302
:400C4000BB605EE00A20FFF70FFF7B685A00FF2313407B603B68002B03D12C4B24221A7006E02A4B25221A707B68012213437B60284B7A681A60284B284A1A60284B02224F
:400C80001A60C046244B1A680823FF331340F9D0214B1A680423134002D00023BB601CE01D4B1A680223134002D00223BB6014E0194B1A680123134007D0144B10221A701F
:400CC0000123BB600123FB6007E0104B10221A7080235B00BB600123FB600F4B0822FF321A60FB68002B0CD00E4B0E4A1268520052081A600B4B0B4A1268802109060A4394
:400D00001A60BB68181CBD4604B080BD8B0100206400064040020640000F064017030000680006400000064080B584B000AF786039600023FB600423BB60374B1B78DAB2C3
:400D400020231340DBB2002B60D07B685A00FF2313407B603B68002B03D12F4B24221A7006E02D4B25221A707B68012213437B602A4B2B4A1A6000F073F9C046294B1A685A
:400D800001231340FAD1284B7A681A60C046234B1A680823FF331340F9D0204B1A680423134002D00023BB601CE01C4B1A680223134002D00223BB6014E0184B1A680123D0
:400DC000134007D0144B10221A700123BB600123FB6007E0104B10221A7080235B00BB600123FB600D4B0822FF321A60FB68002B0CD00E4B0D4A1268520052081A600B4B1D
:400E00000A4A1268802109060A431A60BB68181CBD4604B080BDC0468B010020000F06401703000068000640400206400000064080B582B000AF00237B6004233B60264B3E
:400E40001B78DAB220231340DBB2002B3ED0234B234A116820220A4001D0182200E010221A60C0461F4B1A681223FF331340F9D01C4B1A681023134002D000233B600EE01E
:400E8000184B1A680123134004D001233B6001237B6004E080235B003B6001237B60114B1222FF321A600C4B10221A707B68002B0CD00D4B0C4A1268520052081A600A4BED
:400EC000094A1268802109060A431A603B68181CBD4602B080BDC0468B0100206800064064000640000F06400000064080B584B000AF78600023FB600423BB602A4B1B7888
:400F0000DAB220231340DBB2002B48D0274B7A681A60C046264B1A680823FF331340F9D0234B1A680423134005D01F4B60221A700023BB601FE01E4B1A680223134005D055
:400F4000194B60221A700223BB6014E0184B1A680123134007D0144B10221A700123BB600123FB6007E0104B10221A7080235B00BB600123FB600E4B0822FF321A60FB689A
:400F8000002B0CD00B4B0B4A1268520052081A60084B084A1268802109060A431A60BB68181CBD4604B080BD8B01002040020640000F06400000064080B584B000AF78603F
:400FC00001235B42FB601F4B1B78DAB220231340DBB2002B31D0C0461B4B1A680423134005D11A4B1A680223FF331340F4D0164B1A680423134010D0154B1B68FB60124B92
:4010000004221A607B68002B03D1124B04221A6013E00C4B60221A700FE00C4B0E4A1A600E4B0E4A1268520052081A600B4B0B4A1268802109060A431A60FB68181CBD463C
:4010400004B080BD8B010020C00F0640000F06404003064068000640170300000000064080B582B000AF264B1B687B60C04600F04FF8031C002BFAD0002000F057F8214BD1
:40108000204A12680F218A431A601F4B1E4A1268520052081A607A682023134011D0002000F044F80A20FFF7FFFC012000F03EF8C04600F05FF8031C002BFAD00A20FFF7DB
:4010C000F3FC002000F032F80A20FFF7EDFC0F4B01221A600C4B0C4A1268802109060A431A60084B074A12680F218A430E210A431A60012000F01AF8BD4602B080BDC046FD
:401100006400064010000140000006406800064080B500AF044B1A68022313405B08DBB2181CBD4680BDC0460404044080B584B000AF021CFB1D1A700D4B1B68DAB23B1C47
:401140000F3301218A431A70FB1D1A7801231340D9B23B1C0F333A1C0F3212780A431A70034B3A1C0F3212781A60BD4604B080BD0004044080B500AF044B1B68DAB20123EC
:401180001340DBB2181CBD4680BDC0460404044080B582B000AF00233B60C34B1B68002B02D0C14B1B689847C04B1A680123134002D0BF4B00221A60BE4B1B78DAB22023D2
:4011C0001340DBB2002B3CD0BB4B1A6880235B0013400AD0B94B1B889BB2C022920013439AB2B64B1A8001233B60B34B1A68012313400AD0B14B1B889BB29022920013436A
:401200009AB2AE4B1A8001233B603B68002B18D0A84B1B78DAB201231340DBB2002B01D0012300E00223A54A128892B291B21A1C0B1C13439BB29AB2A04B1A809D4B002234
:401240001A709C4B1B78DAB220231340DBB2002B00D1ACE1984B1A68102313401CD0984B10221A60934B1B78DAB201231340DBB2002B01D0012300E00223904A128892B2EE
:4012800091B21A1C0B1C13439BB29AB28B4B1A80884B10221A70C0E1864B1B78DAB208231340DBB2002B29D0834B1A68022313400ED0834B02221A60804B1B889BB2882269
:4012C000920013439AB27D4B1A8001233B6015E0784B1B78DAB201231340DBB2002B03D0744B25221A7009E0724B24221A70754B1B68002B02D0744B10221A606D4B1B78C4
:40130000DAB204231340DBB2002B00D113E1694B1B78DAB201231340DBB2002B5CD06B4B1A680823134034D0694B1A68694B19680F231940684B1B68CB18D31A7B607B6888
:40134000082B02D908237B600DE07B68002B0AD1624B624A1168624A0A401A6008237B6001233B6011E010E05E4B1A685A4B1B68D2185D4B1B68DBB21370574B1B685A1C88
:40138000554B1A607B68013B7B607B68002BEBD11EE04E4B1A680423134019D0514B1A684D4B1B68D218504B1B68DBB213704A4B1B685A1C484B1A60474B1A68444B1B68C1
:4013C0009A4203D2494B04221A6001E001233B60474B484A1A60AEE0374B1A680223134032D0374B02221A60434B1A68434B19680F231940414B186880231B02034001D014
:40140000012300E00023CB18D21A3B4B1A603A4B1A683B4B1A60294B1B889BB28422920013439AB2254B1A80364B364A1268802149020A431A60334B324A1168324A0A4000
:401440001A6001233B6076E0304B1A681023134066D015E0284B1A681A4B1B689A420ED22B4B2C4A1168244A12688A181278D2B21A60214B1B685A1C1F4B1A6000E005E011
:401480001E4B1A680F231340082BE3D11A4B1A680C4B1B689A4202D10B4B40221A601E4B1E4A1A6047E0C046680100208C0E0640880E06408B0100200C0F0640A8010020A0
:4014C000000F064094010020880F0640CC0F0640A4010020080306409001002060000640FFFEFFFFAC0100204003064068000640C00F0640ED0F00008C010020080206406A
:401500009C01002004020640FFFFFEFF8C0F064040020640A0010020800F0640F30700003F4B1A684023134005D03E4B1A683E4B1A6001233B603B68002B6ED03B4B3B4A33
:4015400011683B4A0A401A603A4B00221A603A4B00221A60394B1B78DAB202231340DBB2002B19D0364B1B78DAB201231340DBB2002B01D0092300E00A23324A128892B278
:4015800091B21A1C0B1C13439BB29AB22D4B1A802B4B60221A7040E02B4B2C4A116820220A4001D0182200E010221A6035E0244B1B78DAB210231340DBB2002B2DD1244B12
:4015C000234A1268520052081A601D4B10221A70164B164A11681F4A0A401A60134B134A11681D4A0A401A60124B00221A60124B00221A60194B1A4A1A601A4B1A4A1A607D
:401600001A4B1B4A1A601B4B1B4A1A60104B104A1268802109060A431A60BD4602B080BD8C0F06408C0100209C01002060000640FFFEFFFFC80F0640880F064098010020EA
:401640008B010020A8010020680006406400064000000640FF5FFFFFFFFCFFFF800F0640ED0F0000C00F0640F3070000400F0640FF0F0000000F064017030000002934D0E3
:401680000123002210B488422CD301242407A14204D2814202D209011B01F8E7E400A14204D2814202D249005B00F8E7884201D3401A1A434C08A04202D3001B5C082243B7
:4016C0008C08A04202D3001B9C082243CC08A04202D3001BDC082243002803D01B0901D00909E3E7101C10BC7047002801D00020C04307B4024802A14018029003BDC0469D
:40170000190000000029F0D003B5FFF7B9FF0EBC4243891A1847C0467047C046014B18687047C0464401002070B50E4B0E4D0024ED1AAD101E1CAC4204D0A300F3589847B5
:401740000134F8E700F056FC084B094D0024ED1AAD101E1CAC4204D0A300F35898470134F8E770BD0020000000200000002000000820000010B50023934203D0CC5CC45420
:401780000133F9E710BD031C8218934202D019700133FAE7704700000EB400B59CB01DAB04CB822202A992008A810A4A02908A604A6101225242CA81074A086110681D9AE7
:4017C000019300F06BF8029A002313701CB008BC03B01847FFFFFF7F44010020F0B58D6885B0071C0C1C03920193AB4245D390228B89D20013423DD06269032656430969FC
:401800002068F20F401A96190290021C0198013212187610964200D2161C381C5A050FD5311C00F021FB051E13D0029A2169FFF7A1FFA289184B134080221343A38111E06E
:40184000321C00F065FB051E0CD1381C216900F0C3FA0C233B60A389402213430120A381404217E0029B2561ED1825606661019DF61AA6600198A84200D2019D2A1C2068EA
:40188000039900F090FAA2680020531BA36023685D19256005B0F0BD7FFBFFFFF0B59FB0039005938B890E1C171C19060FD53269002A0CD1402100F0D7FA30603061002877
:4018C00003D103990C230B60C9E04023736106AD00236B6120236B763023AB763C1C2378002B03D1E21B029211D003E0252BF9D00134F4E70398311C3A1C029BFFF76EFF16
:40190000013000D1A6E06969029A8B186B612378002B00D19EE0012252426A606A4600235B3201342B60EB60AB601370AB654E4F2178381C052200F02BFA002807D0C71BFC
:401940002B680120B840184328600134EFE72B68D90603D56A4620215B3211701A0703D56A462B215B32117022782A2A01D0099B0EE0059A111D12680591002A01DB0992B2
:4019800004E05242EA60022213432B60013409E02278303A092A04D80A214B4301349B18F6E7099323782E2B18D163782A2B09D1059B02341A1D1B680592002B0DDA0123D1
:4019C0005B420AE0013400232278303A092A04D80A214B4301349B18F6E70793234F2178381C032200F0D4F9002806D0C71B2B684020B84018432860013421781C48062294
:401A0000671C297600F0C4F9002812D0194B002B06D1059B0722073393430833059314E005AB00930398291C321C134B00E000BF07E005AB00930398291C321C0E4B00F0B8
:401A400091F804900499013104D06A69049953186B6143E7B3895A0601D40B9801E0012040421FB0F0BDC046BE1F0000C41F0000C81F000000000000DD170000F7B5151C43
:401A800001930A698B68061C0C1C934200DA131C221C2B6043321278002A01D001332B602068800602D52B6802332B60216806270F401FD0231C43331B785A1E9341226838
:401AC00092061FD5E11840313020C870211C5A1C45310978A21840320233D17012E0221C301C019919320123089FB847013011D0009F01370097E0682968009F431A9F42BB
:401B0000EDDBD7E7221C301C01994332089FB847013002D10120404223E0206806212B68E26801400025042903D1D51AEB43DB171D40A26823699A4201DDD31AED1800276E
:401B40000097009FAF420BDA221C301C01991A320123089FB8470130DCD0009F0137EFE70020FEBDF0B50D1C8BB0433506920590079304950B7E0C1C109A6E2B00D1A7E08D
:401B800011D8632B22D009D8002B00D1B0E0582B00D0C0E045310B707B4D4EE0642B1CD0692B1AD0B7E0732B00D1A5E009D86F2B29D0702B00D0AEE00E68202333430B60EA
:401BC00036E0752B1FD0782B32D0A4E013680D1C191D423511601B689FE0216813680E0603D5191D11601E6805E04806F9D5191D116000215E5E644B002E3BDA049D2D22CF
:401C000076422A7036E0216813680E0603D5191D11601E6804E04806F9D5191D1E881160594B227E039308276F2A1ED00A271CE0231C78214533554D197011682368081D71
:401C4000039510601E0601D50E6802E05806FBD50E88D90702D52022134323601027002E03D1226820239A432260231C002243331A7001E003930A276368A360002B03DB2F
:401C80002568042295432560002E02D1049D002B0ED0049D301C391CFFF734FD0398013D435C301C2B70391CFFF7E8FC061EF1D1082F09D12168C90706D5626823699A4215
:401CC00002DC013D30232B70049E731B23612AE0086813684969050604D5181D10601B68196005E04606F8D5181D10601B68198000232361049D16E01368191D11601D6856
:401D0000281C00F03DF963682061984200D923612069606004E0251C42352B7001232361049E00233370079E05980096211C09AA069BFFF7A3FE013002D10120404221E07E
:401D40002A1C059806992369079DA8470130F4D02668B60705D4099BE068984212DA181C10E00025E0680999431A9D42F3DA221C0598069919320123079EB0470130DCD059
:401D80000135EFE70BB0F0BDCF1F0000E01F0000C9B28218904204D003788B4202D00130F8E70020704770B5814201D300230CE08C18A042FAD28518131C013B0BD3514270
:401DC0006618F65C6918CE54F7E7934203D0CC5CC4540133F9E770BD30B5002940D004390B68002B00DAC9181E4A1368141C002B02D14B60116033E099420FD208680A1827
:401E00009A4205D113685268C01808604A6000E04B60216024E08A4203D8131C5A68002AF9D11D685C198C420BD10968691858181960904214D114685268091919605A6074
:401E40000EE08C4202D90C23036009E008680C18944203D114685268001908604A60596030BDC0467001002070B50323CD1C9D430835061C0C2D01D20C2501E0002D3FDB9C
:401E80008D423DD3204B1C681A1C211C002913D00868431B0DD40B2B02D90B60CC181EE08C4202D1636813601AE0486860600C1C16E00C1C4968E9E7144C2068002803D1D4
:401EC000301C00F04BF82060301C291C00F046F8431C15D0C41C03239C4384420AD12560201C0B300722231D9043C31A0BD05A42E25008E0211A301C00F030F80130EED125
:401F00000C233360002070BD700100206C010020F8B5061C0C1C151C002904D1111CFFF7A3FF041C18E0002A03D1FFF755FF2C1C12E000F02CF8A8420ED2301C291CFFF78A
:401F400093FF071E07D0211C2A1CFFF713FC301C211CFFF741FF3C1C201CF8BD38B5074C0023051C081C2360FEF71CFC431C03D12368002B00D02B6038BDC046B0010020FB
:401F80000023C25C0133002AFBD1581E704704390B68181F002B02DAC8581B18181F70470000000025642009000000000400000000300F40000400400F4000044300232DFB
:401FC000302B2000686C4C006566674546470030313233343536373839414243444546003031323334353637383961626364656600000000F8B5C046F8BC08BC9E46704778
:402000006502000091080000F8B5C046F8BC08BC9E4670473D02000028200000C8000020800000007000000000000000B8010020C0F1FF0F00366E01C05D00001800000009
:402040000000E02E0000000000000000000000000000000000000000000000000000000000000000BC1F000000000000000000000000000000000000000000000000000077
:40208000000000000000000000000000000000000000000000000000000000000000000000000000E40000200000000000000000000000000000000000000000000000001C
:4020C00000000000000000000000000000000000000000000000000000000000000000000000000000000000000000000000000000000000000000000000000000000000E0
:40210000000000000000000000000000000000000000000000000000000000000000000000000000000000000000000000000000000000000000000000000000000000009F
:40214000000000000000000000000000000000000000000000000000000000000000000000000000000000000000000000000000000000000000000000000000000000005F
:40218000000000000000000000000000000000000000000000000000000000000000000000000000000000000000000000000000000000000000000000000000000000001F
:0200000490303A
:020000004E8A26
:0200000490402A
:200000000000000000000000000000000000000000000000000000000000000000000000E0
:0200000490501A
:0C000000000204C81193110104D2601D1D
:0200000490600A
:0100000001FE
:00000001FF