:4000000000100020110000003D0500003D05000080B500AF00F096FA80B584B000AF021CFB1D1A70204A3B1C0B3312781A701F4A3B1C0A3312781A700423013BFB6018E0E5
:400040001B4B1868391C0B31FA68131C5B009B18C3185B780B70164B1868391C0A31FA68131C5B009B18C3189B780B70FB68013BFB60FB68002B0ADB0D4B1968FA68131CF1
:400080005B009B185B5CFA1D12789A42D8D9094B3A1C0B3212781A60074B3A1C0A3212781A60BD4604B080BDCCF1FF0FCDF1FF0FCC0000201CFF0B4020FF0B4080B500AF4F
:4000C000164B164A12688021C9020A431A601820FFF7A2FF124B19221A60052000F0C4FB104B114A1278D2B21A60052000F0F4FB0A4B0A4A11680D4A0A401A600C4B0D4AB0
:400100001A600D4B10221A600C4B802212061A600B4B0C4A1A60BD4680BDC04600010B402CFF0B4028FF0B40E5F1FF0FFFFFFBFF04010B40060000803002024008010B409C
:40014000000002403300008080B586B000AF72B6654B01221A703B1C173300221A7026E03B1C17331A78131C5B009B185B005F4A9B183B613B691A78597809020A43997865
:4001800009040A43DB781B0613431A1C3B6919795B791B020B439BB2101C191C00F050FA3B1C17331A783B1C173301321A703B1C17331B78022BD3D93B1C173300221A709D
:4001C00038E03B1C17331A78131C9B009B185B00474A9B18FB60FB681A78597809020A43997809040A43DB781B061343BB60FB681A79597909020A43997909040A43DB79EF
:400200001B0613437B60BA1CFB68197A5B7A1B020B431380BB1C1B88B9687A68081C111C1A1C00F01DFA3B1C17331A783B1C173301321A703B1C17331B78002BC1D02D4ACA
:400240002D4B101C191C00F01DFA2C4B802252001A802B4B01221A702A4B30221A602A4BEE2212021A60294B02221A60284B294A1A60294BD82212011A60284B284A1A6056
:40028000284B802292021A60274B802212031A60264B992212041A60254B01221A60254B02221A60244B244A1278D2B202210A43D2B21A70214B214A1278D2B23C218A4329
:4002C000D2B214210A43D2B21A701B4B1A4A1278D2B216210A43D2B21A70FFF7EFFE00F011FABD4606B080BD1C700F40100B0000240B0000300B0000500B000000600F4042
:4003000002600F40000001400C0001400000044008000440B16D00000803044000500F400400990004500F4008500F4030500F402000004000800F4000700F4001700F407E
:4003400010B5064C2378002B07D1054B002B02D0044800E000BF0123237010BDE000002000000000080B000008B5084B002B03D00748084900E000BF07480368002B03D0F4
:40038000064B002B00D0984708BDC04600000000080B0000E4000020C80000200000000090B583B000AF34E0FC1D00F00FFA031C23701C4B1B68102B02D11A4B00221A6050
:4003C000184B1B68042B0BDCFB1D1A78154B1B689A4205D1134B1B685A1C124B1A6018E0104B1B68042B09DCFB1D1A780D4B1B689A4203D00B4B00221A600AE0094B1B68C3
:40040000094AF91D0978D154064B1B685A1C054B1A6000F001FA031C002BC5D1BD4603B090BDC046FC0000200401002080B582B000AFFB1D00221A7000F068F9224B181CB8
:4004400000F05EFA62B6214B5A7975239A420ED17523181C00F03CF8C0461C4B5A7975239A42FAD0FB1D1A78FB1D01321A70174B5A7964239A420ED16423181C00F028F85B
:40048000C046124B5A7964239A42FAD0FB1D1A78FB1D013A1A700D4B5A796E239A4212D1012000F0ADFA202000F0F2F9002000F0A7FAC046054B5A7975239A42FAD01E20AE
:4004C00000F0E6F9BFE7BEE7A10300000401002080B582B000AF021CFB1D1A70012000F069FA462000F0D4F9FB1D1B78752B0FD1012000F085FA012000F0CAF9002000F00D
:400500007FFA142000F0C4F9002000F053FA12E0FB1D1B78642B0ED1012000F097FA012000F0B6F9002000F091FA142000F0B0F9002000F03FFABD4602B080BD80B500AF10
:40054000FEE7C04680B586B000AF224B7B61224B3B61204B7B6135E03B691B68FB603B695B68BB603B699B683B6000237B600CE0FB681A68BB681A60BB680433BB60FB683E
:400580000433FB607B6804337B607A683B689A42EED13B69DB683B6000237B6008E0BB6800221A60BB680433BB607B6804337B607A683B689A42F2D13B6910333B617B6978
:4005C000013B7B617B69002BC6D100F065FAFFF72DFFFEE701000000040E000080B582B000AF00237B600FE07B68032B04D8104B7A689200D35800E00E4B0F4A79688900EE
:400600008B507B6801337B607B682F2BECD9FFF79BFD0A4B00221A608023DB058022D205126801210A431A60BD4602B080BDC046000000003D05000000000020C0000020D3
:4006400080B582B000AF786039607A683B68101C00211A1C00F04FFABD4602B080BDC04680B584B000AFF860B9607A60F968BA687B68081C111C1A1C00F034FABD4604B095
:4006800080BDC04680B586B000AF7860396000233B6100237B612EE07B699B007A68D3181B68BB603B1C0F33BA681A70BB68FF229343BB6017E03B695B003A68D3181B7826
:4006C0001A1CBB68D3183A69520039688A1852781A703B6901333B613B1C0F331A783B1C0F33013A1A703B1C0F331B78002BE2D17B6901337B617B69072BCDD9BD4606B0BA
:4007000080BDC04680B500AFBD4680BD80B500AF064B1B78002B04D100F00AF8034B01221A7000F023F8BD4680BDC0460001002080B500AF084B72221A70084B20221A70B7
:40074000074B07221A70074B48221A70064B00221A70BD4680BDC04680000F4082000F4020000F4030000F4081000F4090B583B000AFFC1D00F082F8031C2370104B104A7C
:400780001278D2B220210A43D2B21A700D4B0D4A1278D2B210210A43D2B21A700A4B0A4A1278D2B210210A43D2B21A7000F04CF8FB1D1B78181C00F065F8BD4603B090BDA0
:4007C00090000F4092000F4091000F4080B582B000AFFB1D00221A700D4ABB1D12781A70BB1D1A78202313400BD00A4AFB1D12781A70BB1D1A781E23134002D0FB1D0022D7
:400800001A70FB1D1B78181CBD4602B080BDC04662000F4043000F4080B582B000AF094B1B78DBB21A1C2023134001D0012300E00023FA1D1370FB1D1B78181CBD4602B098
:4008400080BDC04662000F4080B500AF044B044A1268802109060A431A60BD4680BDC04600000240000000000230800804D0C0460138FDD1C046C046C0467047EFF31080B4
:4008800072B6704780F310887047C046C046C04680B582B000AF786008E00C4B1B68181CFFF7E2FF7B680A4A9B187B607A6880231B029A42F1D8074B1B687A685343181C3D
:4008C000FFF7D2FFBD4602B080BDC046DC0000200080FFFFD400002080B582B000AF021CBB1D1A80BB1D1B88044A12785343181CFFF7BAFFBD4602B080BDC046D800002069
:4009000080B582B000AF786000F04AF87B68181C00F008F8032000F011F800F037F8BD4602B080BD80B582B000AF7860024B7A681A64BD4602B080BD0000002090B585B03C
:4009400000AF021CFB1D1A700623FB603C1C0B34FFF794FF031C23700B4B0B4A1268C021101C8843011CFA1D1078FA68041C9440221C0A431A603B1C0B331B78181CFFF74C
:4009800081FFBD4605B090BD00E400E080B500AF024B01221A60BD4680BDC04600E100E080B500AF024B01221A60BD4680BDC04680E100E080B584B000AF021CFB1D1A70EC
:4009C0000E4B1B68DAB23B1C0F3308218A431A70FB1D1B78DB00DAB208231340D9B23B1C0F333A1C0F3212780A431A70034B3A1C0F3212781A60BD4604B080BD00000440A9
:400A000080B584B000AF021CFB1D1A700E4B1B68DAB23B1C0F3310218A431A70FB1D1B781B01DAB210231340D9B23B1C0F333A1C0F3212780A431A70034B3A1C0F321278F1
:400A40001A60BD4604B080BD0000044080B584B000AF021CFB1D1A700E4B1B68DAB23B1C0F3304218A431A70FB1D1B789B00DAB204231340D9B23B1C0F333A1C0F321278DE
:400A80000A431A70034B3A1C0F3212781A60BD4604B080BD0000044070B50E4B0E4D0024ED1AAD101E1CAC4204D0A300F35898470134F8E700F094F9084B094D0024ED1A4F
:400AC000AD101E1CAC4204D0A300F35898470134F8E770BDEC0D0000EC0D0000EC0D0000F40D000010B50023934203D0CC5CC4540133F9E710BD031C8218934202D01970A9
:400B00000133FAE770470000000000000400000000300F40800200330F40000100400F400004000080320F40600D00008000000003000F4063300F403D310F4013320F405B
:400B400043330F4007400F4005410F4002600F408072810F823804220518065107030C440E3114E71717180119181A0E1B0524E7250E2C802D0230603218331834073507F5
:400B8000368039083B203E043F04400345104605480649FF4A074BFF4C404D204EF04F05500856025713580459045A045B045F01604061A8624063208080810C820483115A
:400BC0008487850D8630873088238ACC8E18940A96E497399805990D9B10A102A824A924AA43AB01B2E0B33CB502B61FB701BA08BB08BF50C023C106C5EBC7C0C823C9FFAC
:400C0000CAFFCBFFCEF0CF44D00CD401D804D904DA04DB04DF01E6C0EA40EB02004001080564064008200A140D080F0810021104171018501A051D441F042004210422203E
:400C400025042640271829042A402D012F043108320833103520362838043D083F024104471449024D214F085240570159015D115E805F08680269046A107090731089403F
:400C80008C21C0F5C266C445CAAACC66CEC2D062D220D6F1E2800E0111011202160122022E04300232013301350136043E053F1054185604580459045B045F01006401013D
:400CC0000201070208020A120E200F8010801140121413101542180419911A101B441D401F0520202229230225082704281029402A012B043080311032093502382239417A
:400D00003A144016420149804A1851015E02678A874088128E21907291409201931099029D019F04A080A508A948B110B301C08FC23DC49FCA0FCC8FCE0FD00ED20CD68002
:400D4000D8B0032058406F028840C010D480DA808702A702AB20E210EC201001110100000360000073180C007F08000002240000001C33E24FFF300000E700185C10230077
:400D800008400000040000630C1C00E101000004401F2C000F601C800080280A0000010021060500030E00C021FFFFFF62A0F0410C000000000000000404040000000001C6
:400DC0000000000000004002001030100010101200000000000000000000000000000000F8B5C046F8BC08BC9E46704769030000DD050000F8B5C046F8BC08BC9E46704755
:400E000041030000180E0000C800002018000000380000000000000000000000C0F1FF0F00366E01C05D0000180000000000E02E0000000000000000000000000000000069
:400E40000000000000000000000000000000000000000000000000000000000000000000000000000000000000000000000000000000000000000000000000000000000072
:400E80000000000000000000000000000000000000000000000000000000000000000000000000000000000000000000000000000000000000000000000000000000000032
:400EC00000000000000000000000000000000000000000000000000000000000000000000000000000000000000000000000000000000000000000000000000000000000F2
:400F000000000000000000000000000000000000000000000000000000000000000000000000000000000000000000000000000000000000000000000000000000000000B1
:0200000490303A
:02000000750386
:0200000490402A
:200000000000000000000000000000000000000000000000000000000000000000000000E0
:0200000490501A
:0C000000000204C81193110104CC869684
:0200000490600A
:0100000001FE
:00000001FF