:400000000010002011000000D5040000D504000080B500AF00F062FA80B584B000AF021CFB1D1A70204A3B1C0B3312781A701F4A3B1C0A3312781A700423013BFB6018E0EB
:400040001B4B1868391C0B31FA68131C5B009B18C3185B780B70164B1868391C0A31FA68131C5B009B18C3189B780B70FB68013BFB60FB68002B0ADB0D4B1968FA68131CF1
:400080005B009B185B5CFA1D12789A42D8D9094B3A1C0B3212781A60074B3A1C0A3212781A60BD4604B080BDCCF1FF0FCDF1FF0FD00000201CFF0B4020FF0B4080B500AF4B
:4000C000164B164A12688021C9020A431A601820FFF7A2FF124B19221A60052000F078FC104B114A1278D2B21A60052000F058FD0A4B0A4A11680D4A0A401A600C4B0D4A95
:400100001A600D4B10221A600C4B802212061A600B4B0C4A1A60BD4680BDC04600010B402CFF0B4028FF0B40E5F1FF0FFFFFFBFF04010B40060000803002024008010B409C
:40014000000002403300008080B586B000AF72B6674B01221A703B1C173300221A7026E03B1C17331A78131C5B009B185B00614A9B183B613B691A78597809020A43997861
:4001800009040A43DB781B0613431A1C3B6919795B791B020B439BB2101C191C00F01CFA3B1C17331A783B1C173301321A703B1C17331B78022BD3D93B1C173300221A70D1
:4001C00038E03B1C17331A78131C9B009B185B00494A9B18FB60FB681A78597809020A43997809040A43DB781B061343BB60FB681A79597909020A43997909040A43DB79ED
:400200001B0613437B60BA1CFB68197A5B7A1B020B431380BB1C1B88B9687A68081C111C1A1C00F0E9F93B1C17331A783B1C173301321A703B1C17331B78002BC1D02F4AFD
:400240002F4B101C191C00F0E9F92E4B802252001A802D4B01221A702C4B30221A602C4BEE2212021A602B4B02221A602A4B31221A602A4BD82212011A60294B294A1A609A
:40028000294B2A4A1A602A4B802292021A60294B802212031A60284B992212041A60274B05221A60264B06221A60264B254A1278D2B202210A43D2B21A70234B224A12785E
:4002C000D2B23C218A43D2B214210A43D2B21A701C4B1C4A1278D2B216210A43D2B21A70FFF7ECFE00F0DAF9BD4606B080BDC0461C700F40080F00001C0F0000280F0000DC
:40030000480F000000600F4002600F40000001400C00014000000440080004400803044008040440360C000000500F400400990004500F4008500F4030500F402000004052
:4003400000800F4000700F4001700F4010B5064C2378002B07D1054B002B02D0044800E000BF0123237010BDE800002000000000000F000008B5084B002B03D007480849F9
:4003800000E000BF07480368002B03D0064B002B00D0984708BDC04600000000000F0000EC000020C80000200000000080B500AF00F0B0FC00F076F91A4B181C00F00EFD7A
:4003C00062B60A2000F0C8FB174B5B79752B09D1012000F01FFC642000F0BEFB002000F019FC1AE0104B5B79642B09D1012000F037FC642000F0B0FB002000F031FC0CE0BC
:40040000094B5B796E2B08D1012000F0DDFB642000F0A2FB002000F0D7FB052000F09CFBD2E7C046BD0400000C01002090B583B000AF36E0FC1D00F0A9F9031C23701D4BEB
:400440001B680C2B03DD1B4B01221A6029E0194B1B68052B0BDCFB1D1A78164B1B689A4205D1144B1B685A1C124B1A6019E0114B1B68052B09DCFB1D1A780E4B1B689A421A
:4004800003D00C4B01221A600BE00A4B1B68013B094AF91D0978D154064B1B685A1C054B1A6000F0D9F9031C002BC3D1BD4603B090BDC046CC0000200C01002080B500AFAD
:4004C00000F0CAF9031C002B01D0FFF7AFFFBD4680BDC04680B500AFFEE7C04680B586B000AF224B7B61224B3B61204B7B6135E03B691B68FB603B695B68BB603B699B6802
:400500003B6000237B600CE0FB681A68BB681A60BB680433BB60FB680433FB607B6804337B607A683B689A42EED13B69DB683B6000237B6008E0BB6800221A60BB680433B4
:40054000BB607B6804337B607A683B689A42F2D13B6910333B617B69013B7B617B69002BC6D100F095FCFFF721FFFEE7010000005012000080B582B000AF00237B600FE040
:400580007B68032B04D8104B7A689200D35800E00E4B0F4A796889008B507B6801337B607B682F2BECD9FFF7CFFD0A4B00221A608023DB058022D205126801210A431A6077
:4005C000BD4602B080BDC04600000000D504000000000020C000002080B582B000AF786039607A683B68101C00211A1C00F07FFCBD4602B080BDC04680B584B000AFF860C8
:40060000B9607A60F968BA687B68081C111C1A1C00F064FCBD4604B080BDC04680B586B000AF7860396000233B6100237B612EE07B699B007A68D3181B68BB603B1C0F33B6
:40064000BA681A70BB68FF229343BB6017E03B695B003A68D3181B781A1CBB68D3183A69520039688A1852781A703B6901333B613B1C0F331A783B1C0F33013A1A703B1C5F
:400680000F331B78002BE2D17B6901337B617B69072BCDD9BD4606B080BDC04680B500AFBD4680BD80B500AF064B1B78002B04D100F00AF8034B01221A7000F033F8BD46E4
:4006C00080BDC0460401002080B500AF0E4B0020191C00F091F90020032100F0B3F90B4B00221A700A4B72221A700A4B20221A70094B06221A70094B47221A70084B00224E
:400700001A70BD4680BDC046E90800000501002082000F4080000F4020000F4030000F4081000F4090B583B000AFFC1D00F05AF9031C2370124B124A1278D2B220210A43EA
:40074000D2B21A700F4B0F4A1278D2B210210A43D2B21A70002000F0C9F90B4B0A4A1278D2B210210A43D2B21A7000F023F9FB1D1B78181C00F03AF9BD4603B090BDC046F1
:4007800092000F4090000F4091000F4080B582B000AFFB1D00221A70002000F0BDF9BB1D274A12781A707B1D264A12781A70264B1B78DBB2002B05D1BA1D7B1D12781B7862
:4007C0009A421FD0BB1D1A78FB1D20498A5C1A70BB1D1A78BB1D01321A70BB1D1B780C2B02D9BB1D00221A70154BBA1D12781A70154B1B78DBB2002B03D0134B00221A7000
:4008000015E014E0124A3B1D12781A703B1D1A78202313400BD00F4AFB1D12781A703B1D1A781E23134002D0FB1D00221A70002000F05CF9FB1D1B78181CBD4602B080BDDD
:400840000601002007010020080100201C01002060000F4042000F4080B582B000AF002000F05AF91D4B1B78DAB21D4B1B78DBB29A420CD11B4B1B78DBB2002B03D0FB1DA6
:400880000D221A7020E0FB1D00221A701CE0134B1B78DAB2124B1B78DBB29A4209D2104B1B78D9B20D4B1B78DAB2FB1D8A1A1A700AE00B4B1B78DAB2084B1B78DBB2D31A19
:4008C000DAB2FB1D0D321A70002000F00FF9FB1D1B78181CBD4602B080BDC04606010020070100200801002080B582B000AFBB1D00221A70274AFB1D12781A70FB1D1A7843
:400900001E23134007D0FB1D1A781E231340DAB2214B1A7035E034E0204B1B78DBB2204A1278D1B21F4AD154BB1D01221A70BB1D1B78002B21D01C4B1B78DBB2002B02D043
:400940001A4B01221A70154B1B78DBB20133DAB2124B1A70114B1B78DBB20C2B02D90F4B00221A700D4B1B78DAB2114B1B78DBB29A4202D10C4B01221A70064AFB1D127812
:400980001A70FB1D1A7820231340C5D1BD4602B080BDC04660000F40050100200701002042000F401C01002008010020090100200601002080B500AF044B044A12688021FE
:4009C00009060A431A60BD4680BDC046000002400230800804D0C0460138FDD1C046C046C0467047EFF3108072B6704780F310887047C046C046C04680B584B000AF021CDA
:400A00003960FB1D1A7080239B05FB60FB1D1B781F2B02D9002000F095F8FB1D1B7810339B00FA68D3181B68BB60FB1D1B7810339B00FA68D3183A681A60BB68181CBD46B0
:400A400004B080BD90B587B000AF0A1CFB1D011C1970BB1D1A70BB1D1B78032B02D9002000F070F8FB1D1B781F2B02D9002000F069F8FB1D1A7803231340DB0006337B61D4
:400A80003C1C1334FFF7AEFF031C2370FB1D1B789B08DBB29B0014495B181B68FB607B690322111C99400B1CDA43FB681340FB60BB1D1A787B69111C99400B1CFA68134387
:400AC000FB60FB1D1B789B08DBB29B00064A9B18FA681A603B1C13331B78181CFFF786FFBD4607B090BDC04600E400E080B582B000AF021CFB1D1A70064BFA1D11781F228E
:400B00000A400121081C9040021C1A60BD4602B080BDC04600E100E080B582B000AF021CFB1D1A70064BFA1D11781F220A400121081C9040021C1A60BD4602B080BDC0460C
:400B400080E100E080B582B000AF021CFB1D1A7001BEBD4602B080BD80B582B000AF786008E00C4B1B68181CFFF732FF7B680A4A9B187B607A6880231B029A42F1D8074B44
:400B80001B687A685343181CFFF722FFBD4602B080BDC046E00000200080FFFFD800002080B582B000AF021CBB1D1A80BB1D1B88044A12785343181CFFF70AFFBD4602B00A
:400BC00080BDC046DC00002080B584B000AF021CFB1D1A700E4B1B68DAB23B1C0F3302218A431A70FB1D1B78DB18DAB202231340D9B23B1C0F333A1C0F3212780A431A70A5
:400C0000034B3A1C0F3212781A60BD4604B080BD0004044080B584B000AF021CFB1D1A700E4B1B68DAB23B1C0F3308218A431A70FB1D1B78DB00DAB208231340D9B23B1CC4
:400C40000F333A1C0F3212780A431A70034B3A1C0F3212781A60BD4604B080BD0004044080B584B000AF021CFB1D1A700D4B1B68DAB23B1C0F3301218A431A70FB1D1A781A
:400C800001231340D9B23B1C0F333A1C0F3212780A431A70034B3A1C0F3212781A60BD4604B080BD0004044090B583B000AFFF2000F05CF8FF2000F073F8FC1DFFF792FED9
:400CC000031C23700A4B0A4A1278D2B210210A43D2B21A70FB1D1B78181CFFF787FE00F06FF8002000F028F8BD4603B090BDC04693000F4080B500AF054B054A1278D2B2A2
:400D0000802149420A43D2B21A70BD4680BDC04673000F4080B500AF064B1B78002B04D1FFF7C2FF034B01221A70FFF7E3FFBD4680BDC0460B01002080B582B000AF021C2C
:400D4000FB1D1A70034BFA1D12781A70BD4602B080BDC04683000F4080B500AF024B1B78DBB2181CBD4680BD63000F4080B582B000AF021CFB1D1A70034BFA1D12781A70C8
:400D8000BD4602B080BDC04623000F4080B500AF024B1B78DBB2181CBD4680BD43000F4080B582B000AF021CFB1D1A70034BFA1D12781A70BD4602B080BDC04603000F40D9
:400DC00080B500AF01E0FFF7E1FFFFF7C5FF031C1A1C08231340F6D1BD4680BD80B582B000AF786000F04AF87B68181C00F008F8032000F011F800F037F8BD4602B080BD70
:400E000080B582B000AF7860024B7A689A64BD4602B080BD0000002090B585B000AF021CFB1D1A701623FB603C1C0B34FFF7DAFD031C23700A4B0A4A11680A4A1140FA1D14
:400E40001078FA68041C9440221C0A431A603B1C0B331B78181CFFF7C9FDBD4605B090BD00E400E0FFFF3FFF80B500AF024B04221A60BD4680BDC04600E100E080B500AFB6
:400E8000024B04221A60BD4680BDC04680E100E070B50E4B0E4D0024ED1AAD101E1CAC4204D0A300F35898470134F8E700F0BEF9084B094D0024ED1AAD101E1CAC4204D0EC
:400EC000A300F35898470134F8E770BD3812000038120000381200004012000010B50023934203D0CC5CC4540133F9E710BD031C8218934202D019700133FAE7704700004E
:400F0000000000000400000000300F40000280320F40800100400F400004000000320F40AC1100008000000004000F406E300F4039310F4027320F404C330F400C400F404F
:400F400005410F4002600F408038810F8272830D0218040406A3098C0B130C030E6C1405170818C719201A301B431F0C200A21D122C4230E2620280429D12A402B0630E0EB
:400F8000313033C0350F361F390A3A023B203F044003470449FF4A074BFF4C404D204EF04F05500854185604580459045A045B045F01604061A862406320801381208204AF
:400FC00084E088E08B048C408E2090039214942096C0988099029A209B09A101A208A30AA413A513A60CA80AA913AA14AD10AE15B010B110B2E0B303B40FB520B70CBA2004
:40100000BE01BF50C032C101C5EBC60CC807C9FFCAFFCBFFCEF0CF44D00CD401D804D904DA04DB04DF01E6C0EA40EB020001021104200501062209200A200E180F80106807
:40104000144015A21610180119011D101E5021352606272A29112A112E202FAA30683310372039203D013E1041044611471048204D014E105008548057405A015D015E40CA
:401080005F1860046140634080018740C0FDC276C4FECAF5CC2ECEA4D072D6F1D80D86028A0492019601A604AA02B001B201B402B604BB20BE51C046C5ECC702C813C9FF82
:4010C000CAFFCBFFCF01D018D280D401D804D904DA04DB04DC09DD99DF01E040E240E440E540E680E880EA80EC80EE800010021404420518090A0E1A1108120815401719B4
:40110000180419401A601C501D101E051F0122202401260827442C102E042F013528362237443D403E2A4102441046044702480849054C014D204E025008510855045610EF
:4011400059055A405C016C106F2A7102762A771982108E2191409210942496019B029D40A206A72AA940AA02AB80B080B310B420B540C0F6C2ECC4F6CA50CCF0CEF0D0E18D
:40118000D234D68B03205B206E80711083208640C010D480DA80DC20E280E64081109D10AB20E620EC201001110100000010F3001C08E300F3180C000F04F080000000036B
:4011C000C33C0042827F0000FF00000408000000046700180C000000413C00412C801C400F1FC0200008222000000040350602000400E00C18FFFFFF62A0F0410C00000034
:401200000000021304040404000000010000000000004002001030100010101200000000000000000000000000000000F8B5C046F8BC08BC9E46704775030000750500000C
:40124000F8B5C046F8BC08BC9E4670474D03000060120000C800002020000000480000000000000001000000C0F1FF0F00366E01C05D0000180000000000E02E00000000EE
:40128000000000000000000000000000000000000000000000000000000000000000000000000000000000000000000000000000000000000000000000000000000000002E
:4012C00000000000000000000000000000000000000000000000000000000000000000000000000000000000000000000000000000000000000000000000000000000000EE
:4013000000000000000000000000000000000000000000000000000000000000000000000000000000000000000000000000000000000000000000000000000000000000AD
:40134000000000000000000000000000000000000000000000000000000000000000000000000000000000000000000000000000000000000000000000000000000000006D
:0200000490303A
:020000001F3DA2
:0200000490402A
:200000000000000000000000000000000000000000000000000000000000000000000000E0
:0200000490501A
:0C000000000204C81193110104CE30D09E
:0200000490600A
:0100000001FE
:00000001FF