:400000000010002011000000190300001903000080B500AF00F084F980B584B000AF021CFB1D1A70204A3B1C0B3312781A701F4A3B1C0A3312781A700423013BFB6018E044
:400040001B4B1868391C0B31FA68131C5B009B18C3185B780B70164B1868391C0A31FA68131C5B009B18C3189B780B70FB68013BFB60FB68002B0ADB0D4B1968FA68131CF1
:400080005B009B185B5CFA1D12789A42D8D9094B3A1C0B3212781A60074B3A1C0A3212781A60BD4604B080BDCCF1FF0FCDF1FF0FCC0000201CFF0B4020FF0B4080B500AF4F
:4000C000164B164A12688021C9020A431A601820FFF7A2FF124B19221A60052000F0A0FA104B114A1278D2B21A60052000F0D0FA0A4B0A4A11680D4A0A401A600C4B0D4AFA
:400100001A600D4B10221A600C4B802212061A600B4B0C4A1A60BD4680BDC04600010B402CFF0B4028FF0B40E5F1FF0FFFFFFBFF04010B40060000803002024008010B409C
:40014000000002403300008080B582B000AF72B6FB1D00221A7023E0FB1D1A78131C5B009B185B00384A9B183B603B681A78597809020A43997809040A43DB781B061343E0
:400180001A1C3B6819795B791B020B439BB2101C191C00F043F9FB1D1A78FB1D01321A70FB1D1B78012BD7D9284A294B101C191C00F044F9274B802252001A80264B0122AD
:4001C0001A70264B30221A60254BEE2212021A60244B02221A60244B31221A60234BD82212011A60224B234A1A60234B802292021A60224B802212031A60214B992212049F
:400200001A60204B1F4A1278D2B202210A43D2B21A701D4B1C4A1278D2B23C218A43D2B214210A43D2B21A70164B164A1278D2B216210A43D2B21A70FFF740FF00F03EF90D
:40024000BD4602B080BDC0461C070000280700004807000000600F4002600F40000001400C00014000000440080004400803044000500F400400990004500F4008500F4092
:4002800030500F4000700F4001700F4010B5064C2378002B07D1054B002B02D0044800E000BF0123237010BDE0000020000000001407000008B5084B002B03D007480849B6
:4002C00000E000BF07480368002B03D0064B002B00D0984708BDC0460000000014070000E4000020C80000200000000090B583B000AF00F0E7F862B607E0FC1D00F042F971
:40030000031C2370012000F09FF900F061F9031C002BF2D1C046F8E780B500AFFEE7C04680B586B000AF224B7B61224B3B61204B7B6135E03B691B68FB603B695B68BB608B
:400340003B699B683B6000237B600CE0FB681A68BB681A60BB680433BB60FB680433FB607B6804337B607A683B689A42EED13B69DB683B6000237B6008E0BB6800221A6029
:40038000BB680433BB607B6804337B607A683B689A42F2D13B6910333B617B69013B7B617B69002BC6D100F087F9FFF79FFFFEE701000000E409000080B582B000AF00237A
:4003C0007B600FE07B68032B04D8104B7A689200D35800E00E4B0F4A796889008B507B6801337B607B682F2BECD9FFF7ADFE0A4B00221A608023DB058022D2051268012157
:400400000A431A60BD4602B080BDC046000000001903000000000020C000002080B582B000AF786039607A683B68101C00211A1C00F068F9BD4602B080BDC04680B586B09E
:4004400000AF7860396000233B6100237B612EE07B699B007A68D3181B68BB603B1C0F33BA681A70BB68FF229343BB6017E03B695B003A68D3181B781A1CBB68D3183A692F
:40048000520039688A1852781A703B6901333B613B1C0F331A783B1C0F33013A1A703B1C0F331B78002BE2D17B6901337B617B69072BCDD9BD4606B080BDC04680B500AFBC
:4004C000BD4680BD80B500AF064B1B78002B04D100F00AF8034B01221A7000F023F8BD4680BDC046FC00002080B500AF084B72221A70084B20221A70074B07221A70074BCF
:4005000048221A70064B00221A70BD4680BDC04683000F4082000F4023000F4033000F4081000F4090B583B000AFFC1D00F082F8031C2370104B104A1278D2B220210A4370
:40054000D2B21A700D4B0D4A1278D2B210210A43D2B21A700A4B0A4A1278D2B210210A43D2B21A7000F04CF8FB1D1B78181C00F065F8BD4603B090BD93000F4092000F40BB
:4005800091000F4080B582B000AFFB1D00221A700D4ABB1D12781A70BB1D1A78202313400BD00A4AFB1D12781A70BB1D1A781E23134002D0FB1D00221A70FB1D1B78181C70
:4005C000BD4602B080BDC04662000F4040000F4080B582B000AF094B1B78DBB21A1C2023134001D0012300E00023FA1D1370FB1D1B78181CBD4602B080BDC04662000F4053
:4006000080B500AF044B044A1268802109060A431A60BD4680BDC04600000240000000000230800804D0C0460138FDD1C046C046C0467047EFF3108072B6704780F3108800
:400640007047C046C046C04680B582B000AF786008E00C4B1B68181CFFF7E2FF7B680A4A9B187B607A6880231B029A42F1D8074B1B687A685343181CFFF7D2FFBD4602B0ED
:4006800080BDC046DC0000200080FFFFD400002080B582B000AF021CBB1D1A80BB1D1B88044A12785343181CFFF7BAFFBD4602B080BDC046D800002070B50E4B0E4D00242A
:4006C000ED1AAD101E1CAC4204D0A300F35898470134F8E700F074F9084B094D0024ED1AAD101E1CAC4204D0A300F35898470134F8E770BDCC090000CC090000CC090000E2
:40070000D4090000031C8218934202D019700133FAE77047000000000400000000300F40000400400F40000403000F4068300F4037310F4050320F4040330F4004400F40F7
:4007400003410F4002600F40810F82388372010C03010422050406510F171001120E184419191A311B061D191F02208024E728E730073107328033183460361839083B2211
:400780003E403F04406341024205440145C0460E480649FF4AFF4BFF4C624DA04EF04F41500C580459045A045F016640670269106A306B106D106E106F1281208803890674
:4007C0008A6C8B098C048EA391129301961898059CC79D079E109F18A00AA2E4A440A507A604A708AF1DB101B21FB4E0B520B71EBA20BB80BF11C043C102C5EBC6C0C80B66
:40080000C9FFCAFFCBFFCEF0CF44D00CD401D804D904DA04DB04DF01E6C0EA40EB020108051007010A440D080E020F08111413021508168018051A441B081D181F202121D7
:40084000220A2440268027092E882F20311032803683390A3A803B803D013E103F204001412043084608470549A14D014F08524057105C405D015E105F08C0C4C2EAC43EAE
:40088000CA50CC9CCEABD0EED20CD6F0020205011202180422012E0130023201350136043E053F105418580459045B045F01800F82F08482851889088AF38CFF8D048F8027
:4008C00090C39304941C953C96E39741993C9B429CF39D109E0CA008A404A703A80CA967AB18AC41AD7FB0C0B180B22CB320B40FB51FB61CB740B980BA28BB20BF04C006D9
:40090000C501C705C811C9FFCA07CBFFCC40CD20CEF0CF05D008D602D712D804D904DA04DB04DF01E040E1A8E240E32000040204034A050108800A600F8410A81140158021
:40094000164019A61B401F4521402215270429202A042B02308031043211382839403F044A084B0451045A085D02670A69146B0270BC808081208D048F4090049140924082
:40098000951C978099019A409DA09F06A208A30AA948B120B302B508C01FC25DC49FCA0ECC0FCE4ED204D682D830EE1003205B20C010D480AB20B720EC2010011101000097
:4009C000F8B5C046F8BC08BC9E467047B5020000B9030000F8B5C046F8BC08BC9E4670478D020000F8090000C800002018000000200000000000000000000000C0F1FF0F89
:400A000000366E01C05D0000180000000000E02E000000000000000000000000000000000000000000000000000000000000000000000000000000000000000000000000CE
:400A40000000000000000000000000000000000000000000000000000000000000000000000000000000000000000000000000000000000000000000000000000000000076
:400A80000000000000000000000000000000000000000000000000000000000000000000000000000000000000000000000000000000000000000000000000000000000036
:400AC00000000000000000000000000000000000000000000000000000000000000000000000000000000000000000000000000000000000000000000000000000000000F6
:400B000000000000000000000000000000000000000000000000000000000000000000000000000000000000000000000000000000000000000000000000000000000000B5
:0200000490303A
:020000004D3A77
:0200000490402A
:200000000000000000000000000000000000000000000000000000000000000000000000E0
:0200000490501A
:0C000000000204C81193110104CB5ECD76
:0200000490600A
:0100000001FE
:00000001FF