:400000000010002011000000A1030000A103000080B500AF00F0C8F980B584B000AF021CFB1D1A70204A3B1C0B3312781A701F4A3B1C0A3312781A700423013BFB6018E0F0
:400040001B4B1868391C0B31FA68131C5B009B18C3185B780B70164B1868391C0A31FA68131C5B009B18C3189B780B70FB68013BFB60FB68002B0ADB0D4B1968FA68131CF1
:400080005B009B185B5CFA1D12789A42D8D9094B3A1C0B3212781A60074B3A1C0A3212781A60BD4604B080BDCCF1FF0FCDF1FF0FCC0000201CFF0B4020FF0B4080B500AF4F
:4000C000164B164A12688021C9020A431A601820FFF7A2FF124B19221A60052000F0E4FA104B114A1278D2B21A60052000F0F0FA0A4B0A4A11680D4A0A401A600C4B0D4A96
:400100001A600D4B10221A600C4B802212061A600B4B0C4A1A60BD4680BDC04600010B402CFF0B4028FF0B40E5F1FF0FFFFFFBFF04010B40060000803002024008010B409C
:40014000000002403300008080B582B000AF72B63F4B01221A70FB1D00221A7023E0FB1D1A78131C5B009B185B003A4A9B183B603B681A78597809020A43997809040A4371
:40018000DB781B0613431A1C3B6819795B791B020B439BB2101C191C00F084F9FB1D1A78FB1D01321A70FB1D1B78012BD7D92A4A2A4B101C191C00F085F9294B802252008A
:4001C0001A80284B01221A70274B30221A60274BEE2212021A60264B02221A60254B31221A60254BD82212011A60244B244A1A60244B802292021A60234B992212041A6085
:40020000224B01221A60224B02221A60214B214A1278D2B202210A43D2B21A701E4B1E4A1278D2B23C218A43D2B214210A43D2B21A70184B174A1278D2B216210A43D2B24F
:400240001A70FFF73BFF00F07DF9BD4602B080BD1C700F40100800001C0800003C08000000600F4002600F40000001400C00014000000440080004400803044000500F40A5
:400280000400990004500F4030500F402000004000800F4000700F4001700F4010B5064C2378002B07D1054B002B02D0044800E000BF0123237010BDE00000200000000010
:4002C0000808000008B5084B002B03D00748084900E000BF07480368002B03D0064B002B00D0984708BDC0460000000008080000E4000020C80000200000000090B583B07F
:4003000000AF34E0FC1D00F081F9031C23701C4B1B68102B02D11A4B00221A60184B1B68042B0BDCFB1D1A78154B1B689A4205D1134B1B685A1C124B1A6018E0104B1B688D
:40034000042B09DCFB1D1A780D4B1B689A4203D00B4B00221A600AE0094B1B68094AF91D0978D154064B1B685A1C054B1A6000F073F9031C002BC5D1BD4603B090BDC0461A
:40038000FC0000200401002080B500AF00F0DEF8024B181C00F0B0F962B6FEE7FD02000080B500AFFEE7C04680B586B000AF224B7B61224B3B61204B7B6135E03B691B687E
:4003C000FB603B695B68BB603B699B683B6000237B600CE0FB681A68BB681A60BB680433BB60FB680433FB607B6804337B607A683B689A42EED13B69DB683B6000237B6073
:4004000008E0BB6800221A60BB680433BB607B6804337B607A683B689A42F2D13B6910333B617B69013B7B617B69002BC6D100F0BDF9FFF7A9FFFEE701000000E40A00004A
:4004400080B582B000AF00237B600FE07B68032B04D8104B7A689200D35800E00E4B0F4A796889008B507B6801337B607B682F2BECD9FFF769FE0A4B00221A608023DB05F6
:400480008022D205126801210A431A60BD4602B080BDC04600000000A103000000000020C000002080B582B000AF786039607A683B68101C00211A1C00F09EF9BD4602B0F9
:4004C00080BDC04680B586B000AF7860396000233B6100237B612EE07B699B007A68D3181B68BB603B1C0F33BA681A70BB68FF229343BB6017E03B695B003A68D3181B78E8
:400500001A1CBB68D3183A69520039688A1852781A703B6901333B613B1C0F331A783B1C0F33013A1A703B1C0F331B78002BE2D17B6901337B617B69072BCDD9BD4606B07B
:4005400080BDC04680B500AFBD4680BD80B500AF064B1B78002B04D100F00AF8034B01221A7000F023F8BD4680BDC0460001002080B500AF084B72221A70084B20221A7079
:40058000074B07221A70074B48221A70064B00221A70BD4680BDC04683000F4082000F4022000F4032000F4081000F4090B583B000AFFC1D00F082F8031C2370104B104A37
:4005C0001278D2B220210A43D2B21A700D4B0D4A1278D2B210210A43D2B21A700A4B0A4A1278D2B210210A43D2B21A7000F04CF8FB1D1B78181C00F065F8BD4603B090BD62
:4006000093000F4092000F4091000F4080B582B000AFFB1D00221A700D4ABB1D12781A70BB1D1A78202313400BD00A4AFB1D12781A70BB1D1A781E23134002D0FB1D002295
:400640001A70FB1D1B78181CBD4602B080BDC04662000F4040000F4080B582B000AF094B1B78DBB21A1C2023134001D0012300E00023FA1D1370FB1D1B78181CBD4602B05D
:4006800080BDC04662000F4080B500AF044B044A1268802109060A431A60BD4680BDC04600000240000000000230800804D0C0460138FDD1C046C046C0467047EFF3108076
:4006C00072B6704780F310887047C046C046C04680B582B000AF021CBB1D1A80BB1D1B88044A12785343181CFFF7DEFFBD4602B080BDC046D800002080B582B000AF7860D3
:4007000000F04AF87B68181C00F008F8032000F011F800F037F8BD4602B080BD80B582B000AF7860024B7A681A64BD4602B080BD0000002090B585B000AF021CFB1D1A70BD
:400740000623FB603C1C0B34FFF7B8FF031C23700B4B0B4A1268C021101C8843011CFA1D1078FA68041C9440221C0A431A603B1C0B331B78181CFFF7A5FFBD4605B090BDF0
:4007800000E400E080B500AF024B01221A60BD4680BDC04600E100E080B500AF024B01221A60BD4680BDC04680E100E070B50E4B0E4D0024ED1AAD101E1CAC4204D0A300EB
:4007C000F35898470134F8E700F07AF9084B094D0024ED1AAD101E1CAC4204D0A300F35898470134F8E770BDCC0A0000CC0A0000CC0A0000D40A0000031C8218934202D0FD
:4008000019700133FAE77047000000000400000000300F40000400400F40000403000F4066300F4036310F4050320F4044330F4006400F4007410F4002600F40810F82389E
:4008400083720080010603080422065109080B031001120E14E71508170518441A3124E725022B0F3007310B32803307346036183B0A3E40406341044205440145C0470E0B
:40088000481249FF4AFF4BFF4C624DA04EF04F41500C580459045A045F016640670269106A306B106D106E106F1281208463860C880A89078A448B08911292189301950794
:4008C0009604971898059B1DA027A210A506A709A864AA03B01FB101B31EB460B520B820BB08BE10BF11C026C103C5EBC6C0C80BC9FFCAFFCBFFCEF0CF44D00CD401D804ED
:40090000D904DA04DB04DF01E6C0EA40EB02000201080510062007200A540E800F2411041502171018051A441B081D201E8021012202232024402608271829102B102F200B
:4009400032083510360A39023A203D013E20408143084620471049A14D014E044F04530457205C405D115F08C06CC27EC454CA46CCE2CEA5D06BD22CD6F0020206041202CC
:40098000170118012B01300232013301340136043E053F04400245014650480949FF4A074BFF4C404D204EF04F05500854185604580459045A045B045F01604061A8624030
:4009C00063208482851889088AF38C1C8D048EE390C3913C9342940F96F0970398F3993C9A0C9B419CFF9D7FA008A110A404A80CA967AB18AC41AF04B0C0B11FB22CB320AF
:400A0000B40FB540B61CB920BA28BB82BF04D602D711D804D904DB04DF0100440308050908800A640F8410E8114019A21A241B401D541F01204022412328260428402960FC
:400A40002F043251330837083828394045204F045710588059045A885B205C085D025E0864086782680169046A1070BC874090049140924093089504961899099C809DB0D7
:400A8000A120A308A401A710A948AE40B110B320C037C25FC40FCA2DCC4FCE0ED020D684D8B0032052206F02C010D420DA808702A702AB20AE20E210EC20EE401001110112
:400AC000F8B5C046F8BC08BC9E467047C502000041040000F8B5C046F8BC08BC9E4670479D020000F80A0000C800002018000000380000000000000000000000C0F1FF0FC6
:400B000000366E01C05D0000180000000000E02E000000000000000000000000000000000000000000000000000000000000000000000000000000000000000000000000CD
:400B40000000000000000000000000000000000000000000000000000000000000000000000000000000000000000000000000000000000000000000000000000000000075
:400B80000000000000000000000000000000000000000000000000000000000000000000000000000000000000000000000000000000000000000000000000000000000035
:400BC00000000000000000000000000000000000000000000000000000000000000000000000000000000000000000000000000000000000000000000000000000000000F5
:400C000000000000000000000000000000000000000000000000000000000000000000000000000000000000000000000000000000000000000000000000000000000000B4
:0200000490303A
:020000009186E7
:0200000490402A
:200000000000000000000000000000000000000000000000000000000000000000000000E0
:0200000490501A
:0C000000000204C81193110104CBA319E5
:0200000490600A
:0100000001FE
:00000001FF